{
  "abi": [
    {
      "inputs": [
        {
          "internalType": "address",
          "name": "_dyad",
          "type": "address"
        },
        {
          "internalType": "address",
          "name": "_oracle",
          "type": "address"
        },
        {
          "internalType": "uint256",
          "name": "_maxSupply",
          "type": "uint256"
        },
        {
          "internalType": "uint256",
          "name": "_minPriceChangeBetweenSync",
          "type": "uint256"
        },
        {
          "internalType": "uint256",
          "name": "_minTimeBetweenSync",
          "type": "uint256"
        },
        {
          "internalType": "int256",
          "name": "_minMintDyadDeposit",
          "type": "int256"
        },
        {
          "internalType": "address[]",
          "name": "_insiders",
          "type": "address[]"
        }
      ],
      "stateMutability": "nonpayable",
      "type": "constructor"
    },
    {
      "inputs": [
        {
          "internalType": "uint256",
          "name": "id",
          "type": "uint256"
        },
        {
          "internalType": "uint256",
          "name": "syncedBlock",
          "type": "uint256"
        }
      ],
      "name": "AlreadyClaimed",
      "type": "error"
    },
    {
      "inputs": [
        {
          "internalType": "uint256",
          "name": "id",
          "type": "uint256"
        },
        {
          "internalType": "uint256",
          "name": "syncedBlock",
          "type": "uint256"
        }
      ],
      "name": "AlreadySniped",
      "type": "error"
    },
    {
      "inputs": [
        {
          "internalType": "uint256",
          "name": "blockNumber",
          "type": "uint256"
        }
      ],
      "name": "CannotDepositAndWithdrawInSameBlock",
      "type": "error"
    },
    {
      "inputs": [
        {
          "internalType": "uint256",
          "name": "cr",
          "type": "uint256"
        }
      ],
      "name": "CrTooLow",
      "type": "error"
    },
    {
      "inputs": [
        {
          "internalType": "uint256",
          "name": "id",
          "type": "uint256"
        }
      ],
      "name": "DNftDoesNotExist",
      "type": "error"
    },
    {
      "inputs": [],
      "name": "DepositIsNegative",
      "type": "error"
    },
    {
      "inputs": [],
      "name": "DyadTotalSupplyZero",
      "type": "error"
    },
    {
      "inputs": [
        {
          "internalType": "uint256",
          "name": "averageTVL",
          "type": "uint256"
        }
      ],
      "name": "ExceedsAverageTVL",
      "type": "error"
    },
    {
      "inputs": [
        {
          "internalType": "int256",
          "name": "deposit",
          "type": "int256"
        }
      ],
      "name": "ExceedsDepositBalance",
      "type": "error"
    },
    {
      "inputs": [
        {
          "internalType": "uint256",
          "name": "amount",
          "type": "uint256"
        }
      ],
      "name": "ExceedsWithdrawalBalance",
      "type": "error"
    },
    {
      "inputs": [
        {
          "internalType": "address",
          "name": "to",
          "type": "address"
        },
        {
          "internalType": "uint256",
          "name": "amount",
          "type": "uint256"
        }
      ],
      "name": "FailedEthTransfer",
      "type": "error"
    },
    {
      "inputs": [
        {
          "internalType": "uint256",
          "name": "id",
          "type": "uint256"
        }
      ],
      "name": "IsActive",
      "type": "error"
    },
    {
      "inputs": [
        {
          "internalType": "uint256",
          "name": "id",
          "type": "uint256"
        }
      ],
      "name": "IsInactive",
      "type": "error"
    },
    {
      "inputs": [
        {
          "internalType": "uint256",
          "name": "id",
          "type": "uint256"
        },
        {
          "internalType": "enum DNft.Permission",
          "name": "permission",
          "type": "uint8"
        }
      ],
      "name": "MissingPermission",
      "type": "error"
    },
    {
      "inputs": [
        {
          "internalType": "int256",
          "name": "amount",
          "type": "int256"
        }
      ],
      "name": "NotEnoughToCoverDepositMinimum",
      "type": "error"
    },
    {
      "inputs": [
        {
          "internalType": "int256",
          "name": "amount",
          "type": "int256"
        }
      ],
      "name": "NotEnoughToCoverNegativeDeposit",
      "type": "error"
    },
    {
      "inputs": [
        {
          "internalType": "uint256",
          "name": "id",
          "type": "uint256"
        }
      ],
      "name": "NotLiquidatable",
      "type": "error"
    },
    {
      "inputs": [
        {
          "internalType": "uint256",
          "name": "id",
          "type": "uint256"
        }
      ],
      "name": "NotNFTOwner",
      "type": "error"
    },
    {
      "inputs": [
        {
          "internalType": "int256",
          "name": "priceChange",
          "type": "int256"
        }
      ],
      "name": "PriceChangeTooSmall",
      "type": "error"
    },
    {
      "inputs": [],
      "name": "ReachedMaxSupply",
      "type": "error"
    },
    {
      "inputs": [],
      "name": "SyncTooSoon",
      "type": "error"
    },
    {
      "inputs": [
        {
          "internalType": "uint256",
          "name": "id",
          "type": "uint256"
        }
      ],
      "name": "WithdrawalsNotZero",
      "type": "error"
    },
    {
      "anonymous": false,
      "inputs": [
        {
          "indexed": false,
          "internalType": "uint256",
          "name": "id",
          "type": "uint256"
        }
      ],
      "name": "Activated",
      "type": "event"
    },
    {
      "anonymous": false,
      "inputs": [
        {
          "indexed": true,
          "internalType": "address",
          "name": "owner",
          "type": "address"
        },
        {
          "indexed": true,
          "internalType": "address",
          "name": "approved",
          "type": "address"
        },
        {
          "indexed": true,
          "internalType": "uint256",
          "name": "tokenId",
          "type": "uint256"
        }
      ],
      "name": "Approval",
      "type": "event"
    },
    {
      "anonymous": false,
      "inputs": [
        {
          "indexed": true,
          "internalType": "address",
          "name": "owner",
          "type": "address"
        },
        {
          "indexed": true,
          "internalType": "address",
          "name": "operator",
          "type": "address"
        },
        {
          "indexed": false,
          "internalType": "bool",
          "name": "approved",
          "type": "bool"
        }
      ],
      "name": "ApprovalForAll",
      "type": "event"
    },
    {
      "anonymous": false,
      "inputs": [
        {
          "indexed": true,
          "internalType": "uint256",
          "name": "id",
          "type": "uint256"
        },
        {
          "indexed": false,
          "internalType": "int256",
          "name": "share",
          "type": "int256"
        }
      ],
      "name": "Claimed",
      "type": "event"
    },
    {
      "anonymous": false,
      "inputs": [
        {
          "indexed": false,
          "internalType": "uint256",
          "name": "id",
          "type": "uint256"
        }
      ],
      "name": "Deactivated",
      "type": "event"
    },
    {
      "anonymous": false,
      "inputs": [
        {
          "indexed": true,
          "internalType": "uint256",
          "name": "id",
          "type": "uint256"
        },
        {
          "indexed": false,
          "internalType": "uint256",
          "name": "amount",
          "type": "uint256"
        }
      ],
      "name": "Deposited",
      "type": "event"
    },
    {
      "anonymous": false,
      "inputs": [
        {
          "indexed": true,
          "internalType": "uint256",
          "name": "id",
          "type": "uint256"
        },
        {
          "indexed": false,
          "internalType": "int256",
          "name": "amount",
          "type": "int256"
        }
      ],
      "name": "Exchanged",
      "type": "event"
    },
    {
      "anonymous": false,
      "inputs": [
        {
          "indexed": true,
          "internalType": "address",
          "name": "to",
          "type": "address"
        },
        {
          "indexed": true,
          "internalType": "uint256",
          "name": "id",
          "type": "uint256"
        }
      ],
      "name": "Liquidated",
      "type": "event"
    },
    {
      "anonymous": false,
      "inputs": [
        {
          "indexed": true,
          "internalType": "address",
          "name": "to",
          "type": "address"
        },
        {
          "indexed": true,
          "internalType": "uint256",
          "name": "id",
          "type": "uint256"
        }
      ],
      "name": "Minted",
      "type": "event"
    },
    {
      "anonymous": false,
      "inputs": [
        {
          "indexed": false,
          "internalType": "uint256",
          "name": "tokenId",
          "type": "uint256"
        },
        {
          "components": [
            {
              "internalType": "address",
              "name": "operator",
              "type": "address"
            },
            {
              "internalType": "enum DNft.Permission[]",
              "name": "permissions",
              "type": "uint8[]"
            }
          ],
          "indexed": false,
          "internalType": "struct DNft.PermissionSet[]",
          "name": "permissions",
          "type": "tuple[]"
        }
      ],
      "name": "Modified",
      "type": "event"
    },
    {
      "anonymous": false,
      "inputs": [
        {
          "indexed": true,
          "internalType": "uint256",
          "name": "from",
          "type": "uint256"
        },
        {
          "indexed": true,
          "internalType": "uint256",
          "name": "to",
          "type": "uint256"
        },
        {
          "indexed": false,
          "internalType": "int256",
          "name": "amount",
          "type": "int256"
        }
      ],
      "name": "Moved",
      "type": "event"
    },
    {
      "anonymous": false,
      "inputs": [
        {
          "indexed": true,
          "internalType": "address",
          "name": "to",
          "type": "address"
        },
        {
          "indexed": true,
          "internalType": "uint256",
          "name": "id",
          "type": "uint256"
        },
        {
          "indexed": false,
          "internalType": "uint256",
          "name": "amount",
          "type": "uint256"
        }
      ],
      "name": "Redeemed",
      "type": "event"
    },
    {
      "anonymous": false,
      "inputs": [
        {
          "indexed": true,
          "internalType": "uint256",
          "name": "from",
          "type": "uint256"
        },
        {
          "indexed": true,
          "internalType": "uint256",
          "name": "to",
          "type": "uint256"
        },
        {
          "indexed": false,
          "internalType": "int256",
          "name": "share",
          "type": "int256"
        }
      ],
      "name": "Sniped",
      "type": "event"
    },
    {
      "anonymous": false,
      "inputs": [
        {
          "indexed": false,
          "internalType": "uint256",
          "name": "id",
          "type": "uint256"
        }
      ],
      "name": "Synced",
      "type": "event"
    },
    {
      "anonymous": false,
      "inputs": [
        {
          "indexed": true,
          "internalType": "address",
          "name": "from",
          "type": "address"
        },
        {
          "indexed": true,
          "internalType": "address",
          "name": "to",
          "type": "address"
        },
        {
          "indexed": true,
          "internalType": "uint256",
          "name": "tokenId",
          "type": "uint256"
        }
      ],
      "name": "Transfer",
      "type": "event"
    },
    {
      "anonymous": false,
      "inputs": [
        {
          "indexed": true,
          "internalType": "uint256",
          "name": "from",
          "type": "uint256"
        },
        {
          "indexed": true,
          "internalType": "address",
          "name": "to",
          "type": "address"
        },
        {
          "indexed": false,
          "internalType": "uint256",
          "name": "amount",
          "type": "uint256"
        }
      ],
      "name": "Withdrawn",
      "type": "event"
    },
    {
      "anonymous": false,
      "inputs": [
        {
          "indexed": true,
          "internalType": "uint256",
          "name": "id",
          "type": "uint256"
        },
        {
          "indexed": false,
          "internalType": "uint256",
          "name": "totalXp",
          "type": "uint256"
        }
      ],
      "name": "XpIncreased",
      "type": "event"
    },
    {
      "inputs": [],
      "name": "MAX_SUPPLY",
      "outputs": [
        {
          "internalType": "uint256",
          "name": "",
          "type": "uint256"
        }
      ],
      "stateMutability": "view",
      "type": "function"
    },
    {
      "inputs": [],
      "name": "MIN_COLLATERIZATION_RATIO",
      "outputs": [
        {
          "internalType": "uint256",
          "name": "",
          "type": "uint256"
        }
      ],
      "stateMutability": "view",
      "type": "function"
    },
    {
      "inputs": [],
      "name": "MIN_MINT_DYAD_DEPOSIT",
      "outputs": [
        {
          "internalType": "int256",
          "name": "",
          "type": "int256"
        }
      ],
      "stateMutability": "view",
      "type": "function"
    },
    {
      "inputs": [],
      "name": "MIN_PRICE_CHANGE_BETWEEN_SYNC",
      "outputs": [
        {
          "internalType": "uint256",
          "name": "",
          "type": "uint256"
        }
      ],
      "stateMutability": "view",
      "type": "function"
    },
    {
      "inputs": [],
      "name": "MIN_TIME_BETWEEN_SYNC",
      "outputs": [
        {
          "internalType": "uint256",
          "name": "",
          "type": "uint256"
        }
      ],
      "stateMutability": "view",
      "type": "function"
    },
    {
      "inputs": [],
      "name": "SNIPE_MINT_SHARE_REWARD",
      "outputs": [
        {
          "internalType": "int256",
          "name": "",
          "type": "int256"
        }
      ],
      "stateMutability": "view",
      "type": "function"
    },
    {
      "inputs": [],
      "name": "XP_CLAIM_REWARD",
      "outputs": [
        {
          "internalType": "uint256",
          "name": "",
          "type": "uint256"
        }
      ],
      "stateMutability": "view",
      "type": "function"
    },
    {
      "inputs": [],
      "name": "XP_LIQUIDATION_REWARD",
      "outputs": [
        {
          "internalType": "uint256",
          "name": "",
          "type": "uint256"
        }
      ],
      "stateMutability": "view",
      "type": "function"
    },
    {
      "inputs": [],
      "name": "XP_MINT_REWARD",
      "outputs": [
        {
          "internalType": "uint256",
          "name": "",
          "type": "uint256"
        }
      ],
      "stateMutability": "view",
      "type": "function"
    },
    {
      "inputs": [],
      "name": "XP_NORM_FACTOR",
      "outputs": [
        {
          "internalType": "uint256",
          "name": "",
          "type": "uint256"
        }
      ],
      "stateMutability": "view",
      "type": "function"
    },
    {
      "inputs": [],
      "name": "XP_SNIPE_BURN_REWARD",
      "outputs": [
        {
          "internalType": "uint256",
          "name": "",
          "type": "uint256"
        }
      ],
      "stateMutability": "view",
      "type": "function"
    },
    {
      "inputs": [],
      "name": "XP_SNIPE_MINT_REWARD",
      "outputs": [
        {
          "internalType": "uint256",
          "name": "",
          "type": "uint256"
        }
      ],
      "stateMutability": "view",
      "type": "function"
    },
    {
      "inputs": [],
      "name": "XP_SYNC_REWARD",
      "outputs": [
        {
          "internalType": "uint256",
          "name": "",
          "type": "uint256"
        }
      ],
      "stateMutability": "view",
      "type": "function"
    },
    {
      "inputs": [
        {
          "internalType": "uint256",
          "name": "id",
          "type": "uint256"
        }
      ],
      "name": "activate",
      "outputs": [],
      "stateMutability": "nonpayable",
      "type": "function"
    },
    {
      "inputs": [
        {
          "internalType": "address",
          "name": "to",
          "type": "address"
        },
        {
          "internalType": "uint256",
          "name": "tokenId",
          "type": "uint256"
        }
      ],
      "name": "approve",
      "outputs": [],
      "stateMutability": "nonpayable",
      "type": "function"
    },
    {
      "inputs": [
        {
          "internalType": "address",
          "name": "owner",
          "type": "address"
        }
      ],
      "name": "balanceOf",
      "outputs": [
        {
          "internalType": "uint256",
          "name": "",
          "type": "uint256"
        }
      ],
      "stateMutability": "view",
      "type": "function"
    },
    {
      "inputs": [
        {
          "internalType": "uint256",
          "name": "id",
          "type": "uint256"
        }
      ],
      "name": "claim",
      "outputs": [
        {
          "internalType": "int256",
          "name": "",
          "type": "int256"
        }
      ],
      "stateMutability": "nonpayable",
      "type": "function"
    },
    {
      "inputs": [
        {
          "internalType": "uint256",
          "name": "id",
          "type": "uint256"
        }
      ],
      "name": "deactivate",
      "outputs": [],
      "stateMutability": "nonpayable",
      "type": "function"
    },
    {
      "inputs": [
        {
          "internalType": "uint256",
          "name": "id",
          "type": "uint256"
        },
        {
          "internalType": "uint256",
          "name": "amount",
          "type": "uint256"
        }
      ],
      "name": "deposit",
      "outputs": [],
      "stateMutability": "nonpayable",
      "type": "function"
    },
    {
      "inputs": [],
      "name": "dyad",
      "outputs": [
        {
          "internalType": "contract Dyad",
          "name": "",
          "type": "address"
        }
      ],
      "stateMutability": "view",
      "type": "function"
    },
    {
      "inputs": [],
      "name": "dyadDelta",
      "outputs": [
        {
          "internalType": "int256",
          "name": "",
          "type": "int256"
        }
      ],
      "stateMutability": "view",
      "type": "function"
    },
    {
      "inputs": [
        {
          "internalType": "uint256",
          "name": "id",
          "type": "uint256"
        }
      ],
      "name": "exchange",
      "outputs": [
        {
          "internalType": "int256",
          "name": "",
          "type": "int256"
        }
      ],
      "stateMutability": "payable",
      "type": "function"
    },
    {
      "inputs": [
        {
          "internalType": "uint256",
          "name": "tokenId",
          "type": "uint256"
        }
      ],
      "name": "getApproved",
      "outputs": [
        {
          "internalType": "address",
          "name": "",
          "type": "address"
        }
      ],
      "stateMutability": "view",
      "type": "function"
    },
    {
      "inputs": [
        {
          "internalType": "uint256",
          "name": "_id",
          "type": "uint256"
        },
        {
          "components": [
            {
              "internalType": "address",
              "name": "operator",
              "type": "address"
            },
            {
              "internalType": "enum DNft.Permission[]",
              "name": "permissions",
              "type": "uint8[]"
            }
          ],
          "internalType": "struct DNft.PermissionSet[]",
          "name": "_permissionSets",
          "type": "tuple[]"
        }
      ],
      "name": "grant",
      "outputs": [],
      "stateMutability": "nonpayable",
      "type": "function"
    },
    {
      "inputs": [
        {
          "internalType": "uint256",
          "name": "id",
          "type": "uint256"
        },
        {
          "internalType": "address",
          "name": "operator",
          "type": "address"
        },
        {
          "internalType": "enum DNft.Permission",
          "name": "permission",
          "type": "uint8"
        }
      ],
      "name": "hasPermission",
      "outputs": [
        {
          "internalType": "bool",
          "name": "",
          "type": "bool"
        }
      ],
      "stateMutability": "view",
      "type": "function"
    },
    {
      "inputs": [
        {
          "internalType": "uint256",
          "name": "id",
          "type": "uint256"
        },
        {
          "internalType": "address",
          "name": "operator",
          "type": "address"
        },
        {
          "internalType": "enum DNft.Permission[]",
          "name": "permissions",
          "type": "uint8[]"
        }
      ],
      "name": "hasPermissions",
      "outputs": [
        {
          "internalType": "bool[]",
          "name": "_hasPermissions",
          "type": "bool[]"
        }
      ],
      "stateMutability": "view",
      "type": "function"
    },
    {
      "inputs": [
        {
          "internalType": "uint256",
          "name": "",
          "type": "uint256"
        },
        {
          "internalType": "uint256",
          "name": "",
          "type": "uint256"
        }
      ],
      "name": "idToClaimed",
      "outputs": [
        {
          "internalType": "bool",
          "name": "",
          "type": "bool"
        }
      ],
      "stateMutability": "view",
      "type": "function"
    },
    {
      "inputs": [
        {
          "internalType": "uint256",
          "name": "",
          "type": "uint256"
        }
      ],
      "name": "idToLastDeposit",
      "outputs": [
        {
          "internalType": "uint256",
          "name": "",
          "type": "uint256"
        }
      ],
      "stateMutability": "view",
      "type": "function"
    },
    {
      "inputs": [
        {
          "internalType": "uint256",
          "name": "",
          "type": "uint256"
        }
      ],
      "name": "idToNft",
      "outputs": [
        {
          "internalType": "uint256",
          "name": "xp",
          "type": "uint256"
        },
        {
          "internalType": "int256",
          "name": "deposit",
          "type": "int256"
        },
        {
          "internalType": "uint256",
          "name": "withdrawal",
          "type": "uint256"
        },
        {
          "internalType": "uint256",
          "name": "lastOwnershipChange",
          "type": "uint256"
        },
        {
          "internalType": "bool",
          "name": "isActive",
          "type": "bool"
        }
      ],
      "stateMutability": "view",
      "type": "function"
    },
    {
      "inputs": [
        {
          "internalType": "uint256",
          "name": "",
          "type": "uint256"
        },
        {
          "internalType": "address",
          "name": "",
          "type": "address"
        }
      ],
      "name": "idToNftPermission",
      "outputs": [
        {
          "internalType": "uint8",
          "name": "permissions",
          "type": "uint8"
        },
        {
          "internalType": "uint248",
          "name": "lastUpdated",
          "type": "uint248"
        }
      ],
      "stateMutability": "view",
      "type": "function"
    },
    {
      "inputs": [
        {
          "internalType": "address",
          "name": "owner",
          "type": "address"
        },
        {
          "internalType": "address",
          "name": "operator",
          "type": "address"
        }
      ],
      "name": "isApprovedForAll",
      "outputs": [
        {
          "internalType": "bool",
          "name": "",
          "type": "bool"
        }
      ],
      "stateMutability": "view",
      "type": "function"
    },
    {
      "inputs": [],
      "name": "lastEthPrice",
      "outputs": [
        {
          "internalType": "int256",
          "name": "",
          "type": "int256"
        }
      ],
      "stateMutability": "view",
      "type": "function"
    },
    {
      "inputs": [
        {
          "internalType": "uint256",
          "name": "id",
          "type": "uint256"
        },
        {
          "internalType": "address",
          "name": "to",
          "type": "address"
        }
      ],
      "name": "liquidate",
      "outputs": [],
      "stateMutability": "payable",
      "type": "function"
    },
    {
      "inputs": [],
      "name": "maxXp",
      "outputs": [
        {
          "internalType": "uint256",
          "name": "",
          "type": "uint256"
        }
      ],
      "stateMutability": "view",
      "type": "function"
    },
    {
      "inputs": [
        {
          "internalType": "address",
          "name": "to",
          "type": "address"
        }
      ],
      "name": "mint",
      "outputs": [
        {
          "internalType": "uint256",
          "name": "",
          "type": "uint256"
        }
      ],
      "stateMutability": "payable",
      "type": "function"
    },
    {
      "inputs": [
        {
          "internalType": "uint256",
          "name": "_from",
          "type": "uint256"
        },
        {
          "internalType": "uint256",
          "name": "_to",
          "type": "uint256"
        },
        {
          "internalType": "int256",
          "name": "_amount",
          "type": "int256"
        }
      ],
      "name": "move",
      "outputs": [],
      "stateMutability": "nonpayable",
      "type": "function"
    },
    {
      "inputs": [],
      "name": "name",
      "outputs": [
        {
          "internalType": "string",
          "name": "",
          "type": "string"
        }
      ],
      "stateMutability": "view",
      "type": "function"
    },
    {
      "inputs": [
        {
          "internalType": "uint256",
          "name": "tokenId",
          "type": "uint256"
        }
      ],
      "name": "ownerOf",
      "outputs": [
        {
          "internalType": "address",
          "name": "",
          "type": "address"
        }
      ],
      "stateMutability": "view",
      "type": "function"
    },
    {
      "inputs": [],
      "name": "prevDyadDelta",
      "outputs": [
        {
          "internalType": "int256",
          "name": "",
          "type": "int256"
        }
      ],
      "stateMutability": "view",
      "type": "function"
    },
    {
      "inputs": [],
      "name": "prevSyncedBlock",
      "outputs": [
        {
          "internalType": "uint256",
          "name": "",
          "type": "uint256"
        }
      ],
      "stateMutability": "view",
      "type": "function"
    },
    {
      "inputs": [
        {
          "internalType": "uint256",
          "name": "from",
          "type": "uint256"
        },
        {
          "internalType": "address",
          "name": "to",
          "type": "address"
        },
        {
          "internalType": "uint256",
          "name": "amount",
          "type": "uint256"
        }
      ],
      "name": "redeem",
      "outputs": [
        {
          "internalType": "uint256",
          "name": "",
          "type": "uint256"
        }
      ],
      "stateMutability": "nonpayable",
      "type": "function"
    },
    {
      "inputs": [
        {
          "internalType": "address",
          "name": "from",
          "type": "address"
        },
        {
          "internalType": "address",
          "name": "to",
          "type": "address"
        },
        {
          "internalType": "uint256",
          "name": "tokenId",
          "type": "uint256"
        }
      ],
      "name": "safeTransferFrom",
      "outputs": [],
      "stateMutability": "nonpayable",
      "type": "function"
    },
    {
      "inputs": [
        {
          "internalType": "address",
          "name": "from",
          "type": "address"
        },
        {
          "internalType": "address",
          "name": "to",
          "type": "address"
        },
        {
          "internalType": "uint256",
          "name": "tokenId",
          "type": "uint256"
        },
        {
          "internalType": "bytes",
          "name": "data",
          "type": "bytes"
        }
      ],
      "name": "safeTransferFrom",
      "outputs": [],
      "stateMutability": "nonpayable",
      "type": "function"
    },
    {
      "inputs": [
        {
          "internalType": "address",
          "name": "operator",
          "type": "address"
        },
        {
          "internalType": "bool",
          "name": "approved",
          "type": "bool"
        }
      ],
      "name": "setApprovalForAll",
      "outputs": [],
      "stateMutability": "nonpayable",
      "type": "function"
    },
    {
      "inputs": [
        {
          "internalType": "uint256",
          "name": "_from",
          "type": "uint256"
        },
        {
          "internalType": "uint256",
          "name": "_to",
          "type": "uint256"
        }
      ],
      "name": "snipe",
      "outputs": [
        {
          "internalType": "int256",
          "name": "",
          "type": "int256"
        }
      ],
      "stateMutability": "nonpayable",
      "type": "function"
    },
    {
      "inputs": [
        {
          "internalType": "bytes4",
          "name": "interfaceId",
          "type": "bytes4"
        }
      ],
      "name": "supportsInterface",
      "outputs": [
        {
          "internalType": "bool",
          "name": "",
          "type": "bool"
        }
      ],
      "stateMutability": "view",
      "type": "function"
    },
    {
      "inputs": [],
      "name": "symbol",
      "outputs": [
        {
          "internalType": "string",
          "name": "",
          "type": "string"
        }
      ],
      "stateMutability": "view",
      "type": "function"
    },
    {
      "inputs": [
        {
          "internalType": "uint256",
          "name": "id",
          "type": "uint256"
        }
      ],
      "name": "sync",
      "outputs": [
        {
          "internalType": "int256",
          "name": "",
          "type": "int256"
        }
      ],
      "stateMutability": "nonpayable",
      "type": "function"
    },
    {
      "inputs": [],
      "name": "syncedBlock",
      "outputs": [
        {
          "internalType": "uint256",
          "name": "",
          "type": "uint256"
        }
      ],
      "stateMutability": "view",
      "type": "function"
    },
    {
      "inputs": [],
      "name": "timeOfLastSync",
      "outputs": [
        {
          "internalType": "uint256",
          "name": "",
          "type": "uint256"
        }
      ],
      "stateMutability": "view",
      "type": "function"
    },
    {
      "inputs": [
        {
          "internalType": "uint256",
          "name": "index",
          "type": "uint256"
        }
      ],
      "name": "tokenByIndex",
      "outputs": [
        {
          "internalType": "uint256",
          "name": "",
          "type": "uint256"
        }
      ],
      "stateMutability": "view",
      "type": "function"
    },
    {
      "inputs": [
        {
          "internalType": "address",
          "name": "owner",
          "type": "address"
        },
        {
          "internalType": "uint256",
          "name": "index",
          "type": "uint256"
        }
      ],
      "name": "tokenOfOwnerByIndex",
      "outputs": [
        {
          "internalType": "uint256",
          "name": "",
          "type": "uint256"
        }
      ],
      "stateMutability": "view",
      "type": "function"
    },
    {
      "inputs": [
        {
          "internalType": "uint256",
          "name": "tokenId",
          "type": "uint256"
        }
      ],
      "name": "tokenURI",
      "outputs": [
        {
          "internalType": "string",
          "name": "",
          "type": "string"
        }
      ],
      "stateMutability": "view",
      "type": "function"
    },
    {
      "inputs": [],
      "name": "totalDeposit",
      "outputs": [
        {
          "internalType": "int256",
          "name": "",
          "type": "int256"
        }
      ],
      "stateMutability": "view",
      "type": "function"
    },
    {
      "inputs": [],
      "name": "totalSupply",
      "outputs": [
        {
          "internalType": "uint256",
          "name": "",
          "type": "uint256"
        }
      ],
      "stateMutability": "view",
      "type": "function"
    },
    {
      "inputs": [],
      "name": "totalXp",
      "outputs": [
        {
          "internalType": "uint256",
          "name": "",
          "type": "uint256"
        }
      ],
      "stateMutability": "view",
      "type": "function"
    },
    {
      "inputs": [
        {
          "internalType": "address",
          "name": "from",
          "type": "address"
        },
        {
          "internalType": "address",
          "name": "to",
          "type": "address"
        },
        {
          "internalType": "uint256",
          "name": "tokenId",
          "type": "uint256"
        }
      ],
      "name": "transferFrom",
      "outputs": [],
      "stateMutability": "nonpayable",
      "type": "function"
    },
    {
      "inputs": [
        {
          "internalType": "uint256",
          "name": "from",
          "type": "uint256"
        },
        {
          "internalType": "address",
          "name": "to",
          "type": "address"
        },
        {
          "internalType": "uint256",
          "name": "amount",
          "type": "uint256"
        }
      ],
      "name": "withdraw",
      "outputs": [],
      "stateMutability": "nonpayable",
      "type": "function"
    }
  ],
  "bytecode": {
    "object": "0x6101006040526001600a553480156200001757600080fd5b5060405162005573380380620055738339810160408190526200003a91620009cc565b60405180604001604052806008815260200167111e58590813919560c21b815250604051806040016040528060048152602001631913919560e21b815250816000908162000089919062000b7e565b50600162000098828262000b7e565b5050601880546001600160a01b03808b166001600160a01b03199283161790925560198054928a169290911691909117905550608085905260a084905260c083905260e0829052620000e962000199565b600b5560005b81518110156200018b576000806200012984848151811062000115576200011562000c4a565b60200260200101516200021460201b60201c565b6000918252601460209081526040928390208251815590820151600182015591810151600283015560608101516003830155608001516004909101805460ff191691151591909117905550819050620001828162000c76565b915050620000ef565b505050505050505062000d47565b60195460408051633fabe5a360e21b815290516000926001600160a01b03169163feaf968c9160048083019260a09291908290030181865afa158015620001e4573d6000803e3d6000fd5b505050506040513d601f19601f820116820180604052508101906200020a919062000caa565b5091949350505050565b60006200024b6040518060a00160405280600081526020016000815260200160008152602001600081526020016000151581525090565b60006200025760085490565b905060805181106200027c5760405163794bb39b60e01b815260040160405180910390fd5b6200028884826200030c565b60405181906001600160a01b038616907f30385c845b448a36257a6a1716e6ad2e1bc2cbe333cde1e69fe849ad6511adfe90600090a3620002f36040518060a00160405280600081526020016000815260200160008152602001600081526020016000151581525090565b6200030281836103e8620004b1565b9094909350915050565b6001600160a01b038216620003685760405162461bcd60e51b815260206004820181905260248201527f4552433732313a206d696e7420746f20746865207a65726f206164647265737360448201526064015b60405180910390fd5b6000818152600260205260409020546001600160a01b031615620003cf5760405162461bcd60e51b815260206004820152601c60248201527f4552433732313a20746f6b656e20616c7265616479206d696e7465640000000060448201526064016200035f565b620003df6000838360016200052d565b6000818152600260205260409020546001600160a01b031615620004465760405162461bcd60e51b815260206004820152601c60248201527f4552433732313a20746f6b656e20616c7265616479206d696e7465640000000060448201526064016200035f565b6001600160a01b038216600081815260036020908152604080832080546001019055848352600290915280822080546001600160a01b0319168417905551839291907fddf252ad1be2c89b69c2b068fc378daa952ba7f163c4a11628f55a4df523b3ef908290a45050565b8083600001818151620004c5919062000cff565b90525060125483511115620004da5782516012555b8060116000828254620004ee919062000cff565b909155505060405181815282907fbed79548735be4d252e30687e5817f81bb3a0166f8f2656f162b2fd746c53ae19060200160405180910390a2505050565b62000546848484846200056660201b62002a441760201c565b506000908152601460205260409020436003909101555050565b50505050565b6200057f84848484620006ca60201b62002b841760201c565b6001811115620005f85760405162461bcd60e51b815260206004820152603560248201527f455243373231456e756d657261626c653a20636f6e736563757469766520747260448201527f616e7366657273206e6f7420737570706f72746564000000000000000000000060648201526084016200035f565b816001600160a01b03851662000657576200065181600880546000838152600960205260408120829055600182018355919091527ff3f7a9fe364faab93b216da50a3214154f22a0a2b415b23a84c8169e8b636ee30155565b6200067d565b836001600160a01b0316856001600160a01b0316146200067d576200067d858262000759565b6001600160a01b0384166200069d57620006978162000806565b620006c3565b846001600160a01b0316846001600160a01b031614620006c357620006c38482620008c0565b5050505050565b600181111562000560576001600160a01b0384161562000714576001600160a01b038416600090815260036020526040812080548392906200070e90849062000d1b565b90915550505b6001600160a01b0383161562000560576001600160a01b038316600090815260036020526040812080548392906200074e90849062000cff565b909155505050505050565b6000600162000773846200091160201b620017971760201c565b6200077f919062000d1b565b600083815260076020526040902054909150808214620007d3576001600160a01b03841660009081526006602090815260408083208584528252808320548484528184208190558352600790915290208190555b5060009182526007602090815260408084208490556001600160a01b039094168352600681528383209183525290812055565b6008546000906200081a9060019062000d1b565b6000838152600960205260408120546008805493945090928490811062000845576200084562000c4a565b90600052602060002001549050806008838154811062000869576200086962000c4a565b6000918252602080832090910192909255828152600990915260408082208490558582528120556008805480620008a457620008a462000d31565b6001900381819060005260206000200160009055905550505050565b6000620008d8836200091160201b620017971760201c565b6001600160a01b039093166000908152600660209081526040808320868452825280832085905593825260079052919091209190915550565b60006001600160a01b0382166200097d5760405162461bcd60e51b815260206004820152602960248201527f4552433732313a2061646472657373207a65726f206973206e6f7420612076616044820152683634b21037bbb732b960b91b60648201526084016200035f565b506001600160a01b031660009081526003602052604090205490565b80516001600160a01b0381168114620009b157600080fd5b919050565b634e487b7160e01b600052604160045260246000fd5b600080600080600080600060e0888a031215620009e857600080fd5b620009f38862000999565b9650602062000a04818a0162000999565b60408a015160608b015160808c015160a08d015160c08e0151949b50929950909750955093506001600160401b038082111562000a4057600080fd5b818b0191508b601f83011262000a5557600080fd5b81518181111562000a6a5762000a6a620009b6565b8060051b604051601f19603f8301168101818110858211171562000a925762000a92620009b6565b60405291825284820192508381018501918e83111562000ab157600080fd5b938501935b8285101562000ada5762000aca8562000999565b8452938501939285019262000ab6565b80965050505050505092959891949750929550565b600181811c9082168062000b0457607f821691505b60208210810362000b2557634e487b7160e01b600052602260045260246000fd5b50919050565b601f82111562000b7957600081815260208120601f850160051c8101602086101562000b545750805b601f850160051c820191505b8181101562000b755782815560010162000b60565b5050505b505050565b81516001600160401b0381111562000b9a5762000b9a620009b6565b62000bb28162000bab845462000aef565b8462000b2b565b602080601f83116001811462000bea576000841562000bd15750858301515b600019600386901b1c1916600185901b17855562000b75565b600085815260208120601f198616915b8281101562000c1b5788860151825594840194600190910190840162000bfa565b508582101562000c3a5787850151600019600388901b60f8161c191681555b5050505050600190811b01905550565b634e487b7160e01b600052603260045260246000fd5b634e487b7160e01b600052601160045260246000fd5b60006001820162000c8b5762000c8b62000c60565b5060010190565b80516001600160501b0381168114620009b157600080fd5b600080600080600060a0868803121562000cc357600080fd5b62000cce8662000c92565b945060208601519350604086015192506060860151915062000cf36080870162000c92565b90509295509295909350565b8082018082111562000d155762000d1562000c60565b92915050565b8181038181111562000d155762000d1562000c60565b634e487b7160e01b600052603160045260246000fd5b60805160a05160c05160e0516147d662000d9d60003960008181610674015261168d0152600081816104840152611c3f015260008181610adb0152611cc3015260008181610598015261331701526147d66000f3fe6080604052600436106103815760003560e01c80636220347e116101d1578063b88d4fde11610102578063decb84dc116100a0578063e8101c1b1161006f578063e8101c1b14610ac9578063e985e9c514610afd578063f6153ccd14610b46578063febb16df14610b5c57600080fd5b8063decb84dc14610a5d578063e2bbb15814610a73578063e63697c814610a93578063e644669114610ab357600080fd5b8063c9e3d730116100dc578063c9e3d730146109ec578063d491250714610a07578063d878016114610a1d578063de1eecb314610a3d57600080fd5b8063b88d4fde14610992578063c784cbe6146109b2578063c87b56dd146109cc57600080fd5b8063959526191161016f578063aadfdcc211610149578063aadfdcc214610918578063add95a5114610932578063b1357bf914610952578063b260c42a1461097257600080fd5b806395952619146108c357806395d89b41146108e3578063a22cb465146108f857600080fd5b80637038fc4e116101ab5780637038fc4e1461084d57806370a0823114610863578063823abfd914610883578063916b9bef146108a357600080fd5b80636220347e146107ed5780636352211e1461081a5780636a6278421461083a57600080fd5b806332cb6b0c116102b6578063483afb2d116102545780635355655911610223578063535565591461077e578063551e123b146107915780635982dc29146107be5780635fae8b3d146107da57600080fd5b8063483afb2d146106cc5780634b2ec8ee1461056b5780634ddc77c8146107435780634f6ccce71461075e57600080fd5b8063379607f511610290578063379607f514610642578063397b802414610662578063413217b71461069657806342842e0e146106ac57600080fd5b806332cb6b0c1461058657806335f2faf0146105ba57806336416455146105d657600080fd5b8063174c67e11161032357806323b872dd116102fd57806323b872dd14610515578063265f63a1146105355780632f745c591461054b5780633295787f1461056b57600080fd5b8063174c67e1146104ca57806318160ddd146104e05780631849c73a146104f557600080fd5b8063081812fc1161035f578063081812fc14610418578063095ea7b3146104505780630ba4ae301461047257806310d4f96d146104b457600080fd5b8063019e242e1461038657806301ffc9a7146103d657806306fdde03146103f6575b600080fd5b34801561039257600080fd5b506103c16103a1366004613cc3565b601660209081526000928352604080842090915290825290205460ff1681565b60405190151581526020015b60405180910390f35b3480156103e257600080fd5b506103c16103f1366004613cfb565b610b72565b34801561040257600080fd5b5061040b610b9d565b6040516103cd9190613d68565b34801561042457600080fd5b50610438610433366004613d7b565b610c2f565b6040516001600160a01b0390911681526020016103cd565b34801561045c57600080fd5b5061047061046b366004613db0565b610c56565b005b34801561047e57600080fd5b506104a67f000000000000000000000000000000000000000000000000000000000000000081565b6040519081526020016103cd565b3480156104c057600080fd5b506104a660115481565b3480156104d657600080fd5b506104a660135481565b3480156104ec57600080fd5b506008546104a6565b34801561050157600080fd5b50610470610510366004613dda565b610d70565b34801561052157600080fd5b50610470610530366004613e06565b610e58565b34801561054157600080fd5b506104a6600c5481565b34801561055757600080fd5b506104a6610566366004613db0565b610e89565b34801561057757600080fd5b506104a666016bcc41e9000081565b34801561059257600080fd5b506104a67f000000000000000000000000000000000000000000000000000000000000000081565b3480156105c657600080fd5b506104a66714d1120d7b16000081565b3480156105e257600080fd5b506106216105f1366004613e42565b601560209081526000928352604080842090915290825290205460ff81169061010090046001600160f81b031682565b6040805160ff90931683526001600160f81b039091166020830152016103cd565b34801561064e57600080fd5b506104a661065d366004613d7b565b610f1f565b34801561066e57600080fd5b506104a67f000000000000000000000000000000000000000000000000000000000000000081565b3480156106a257600080fd5b506104a660125481565b3480156106b857600080fd5b506104706106c7366004613e06565b61115d565b3480156106d857600080fd5b506107196106e7366004613d7b565b601460205260009081526040902080546001820154600283015460038401546004909401549293919290919060ff1685565b6040805195865260208601949094529284019190915260608301521515608082015260a0016103cd565b34801561074f57600080fd5b506104a6660110d9316ec00081565b34801561076a57600080fd5b506104a6610779366004613d7b565b611178565b6104a661078c366004613d7b565b61120b565b34801561079d57600080fd5b506107b16107ac366004613eb3565b6112fe565b6040516103cd9190613f0d565b3480156107ca57600080fd5b506104a6670853a0d2313c000081565b6104706107e8366004613e42565b61148e565b3480156107f957600080fd5b506104a6610808366004613d7b565b60176020526000908152604090205481565b34801561082657600080fd5b50610438610835366004613d7b565b61161d565b6104a6610848366004613f53565b61167d565b34801561085957600080fd5b506104a6600b5481565b34801561086f57600080fd5b506104a661087e366004613f53565b611797565b34801561088f57600080fd5b506103c161089e366004613f7d565b61181d565b3480156108af57600080fd5b506104706108be366004613d7b565b6118d4565b3480156108cf57600080fd5b506104706108de366004613fb9565b6119fb565b3480156108ef57600080fd5b5061040b611b53565b34801561090457600080fd5b50610470610913366004614005565b611b62565b34801561092457600080fd5b506104a665b5e620f4800081565b34801561093e57600080fd5b50601854610438906001600160a01b031681565b34801561095e57600080fd5b506104a661096d366004613d7b565b611b71565b34801561097e57600080fd5b5061047061098d366004613d7b565b611e2d565b34801561099e57600080fd5b506104706109ad3660046140b1565b611ee6565b3480156109be57600080fd5b506104a6655af3107a400081565b3480156109d857600080fd5b5061040b6109e7366004613d7b565b611f1e565b3480156109f857600080fd5b506104a6662386f26fc1000081565b348015610a1357600080fd5b506104a6600e5481565b348015610a2957600080fd5b506104a6610a38366004614171565b611f91565b348015610a4957600080fd5b506104a6610a58366004613cc3565b6121da565b348015610a6957600080fd5b506104a6600d5481565b348015610a7f57600080fd5b50610470610a8e366004613cc3565b6125a1565b348015610a9f57600080fd5b50610470610aae366004614171565b612741565b348015610abf57600080fd5b506104a6600f5481565b348015610ad557600080fd5b506104a67f000000000000000000000000000000000000000000000000000000000000000081565b348015610b0957600080fd5b506103c1610b18366004614196565b6001600160a01b03918216600090815260056020908152604080832093909416825291909152205460ff1690565b348015610b5257600080fd5b506104a660105481565b348015610b6857600080fd5b506104a66103e881565b60006001600160e01b0319821663780e9d6360e01b1480610b975750610b9782612c0c565b92915050565b606060008054610bac906141c0565b80601f0160208091040260200160405190810160405280929190818152602001828054610bd8906141c0565b8015610c255780601f10610bfa57610100808354040283529160200191610c25565b820191906000526020600020905b815481529060010190602001808311610c0857829003601f168201915b5050505050905090565b6000610c3a82612c5c565b506000908152600460205260409020546001600160a01b031690565b6000610c618261161d565b9050806001600160a01b0316836001600160a01b031603610cd35760405162461bcd60e51b815260206004820152602160248201527f4552433732313a20617070726f76616c20746f2063757272656e74206f776e656044820152603960f91b60648201526084015b60405180910390fd5b336001600160a01b0382161480610cef5750610cef8133610b18565b610d615760405162461bcd60e51b815260206004820152603d60248201527f4552433732313a20617070726f76652063616c6c6572206973206e6f7420746f60448201527f6b656e206f776e6572206f7220617070726f76656420666f7220616c6c0000006064820152608401610cca565b610d6b8383612cbe565b505050565b826004610d7e82338361181d565b610d9f57818160405163acb8d02d60e01b8152600401610cca92919061422c565b60008313610dac57600080fd5b60008581526014602052604090206001810154841315610de757806001015460405163689b65e960e11b8152600401610cca91815260200190565b60018082018054869003905560008681526014602052604081209091018054869290610e14908490614256565b9091555050604051848152859087907fecf7a2a9b87e864721b005a74148c7e41af15fa580f04024f55a5902b32e556e9060200160405180910390a3505050505050565b610e623382612d2c565b610e7e5760405162461bcd60e51b8152600401610cca90614276565b610d6b838383612daa565b6000610e9483611797565b8210610ef65760405162461bcd60e51b815260206004820152602b60248201527f455243373231456e756d657261626c653a206f776e657220696e646578206f7560448201526a74206f6620626f756e647360a81b6064820152608401610cca565b506001600160a01b03919091166000908152600660209081526040808320938352929052205490565b6000816007610f2f82338361181d565b610f5057818160405163acb8d02d60e01b8152600401610cca92919061422c565b600084815260146020526040812060040154859160ff90911615159003610f8d57604051632080e3d360e01b815260048101829052602401610cca565b6000858152601660209081526040808320600e54845290915290205460ff1615610fd857600e54604051636bd4745f60e01b8152610cca918791600401918252602082015260400190565b6000858152601660209081526040808320600e5484528252808320805460ff1916600190811790915588845260148352818420825160a0810184528154815291810154938201939093526002830154918101919091526003820154606082015260049091015460ff16151560808201529080611059655af3107a4000612f1b565b90506000600c54131561107957611072600c5484612fb0565b915061109a565b6000611087600c5485613036565b909350905061109681836142c3565b9150505b81836020018181516110ac9190614256565b905250601080548391906000906110c4908490614256565b909155506110d59050838983613209565b600088815260146020908152604091829020855181558582015160018201558583015160028201556060860151600382015560808601516004909101805460ff1916911515919091179055905183815289917f80d2137c01c20957d2640ac104067c27bdfb6f6405d354a50e4e0663dbfd3406910160405180910390a2509695505050505050565b610d6b83838360405180602001604052806000815250611ee6565b600061118360085490565b82106111e65760405162461bcd60e51b815260206004820152602c60248201527f455243373231456e756d657261626c653a20676c6f62616c20696e646578206f60448201526b7574206f6620626f756e647360a01b6064820152608401610cca565b600882815481106111f9576111f96142d6565b90600052602060002001549050919050565b600081600261121b82338361181d565b61123c57818160405163acb8d02d60e01b8152600401610cca92919061422c565b600084815260146020526040812060040154859160ff9091161515900361127957604051632080e3d360e01b815260048101829052602401610cca565b600085815260176020526040812043905561129334613280565b9050806014600088815260200190815260200160002060010160008282546112bb9190614256565b909155505060405181815286907ff99ef896dbec5c9f8ed65fcd703b977e36f533d2dbe0f54b055724102c66935b9060200160405180910390a295945050505050565b60608167ffffffffffffffff81111561131957611319614041565b604051908082528060200260200182016040528015611342578160200160208202803683370190505b509050836001600160a01b03166113588661161d565b6001600160a01b0316036113ad5760005b828110156113a7576001828281518110611385576113856142d6565b911515602092830291909101909101528061139f816142ec565b915050611369565b50611486565b60008581526015602090815260408083206001600160a01b0388168452825280832081518083018352905460ff8116825261010090046001600160f81b0316818401819052898552601490935292206003015410156114845760005b8381101561148257611446858583818110611426576114266142d6565b905060200201602081019061143b9190614305565b835160ff16906132a5565b1561147057600183828151811061145f5761145f6142d6565b911515602092830291909101909101525b8061147a816142ec565b915050611409565b505b505b949350505050565b6000828152601460209081526040808320815160a081018352815481526001820154938101849052600282015492810192909252600381015460608301526004015460ff16151560808201529181126114fd57604051634fd4b9f760e01b815260048101859052602401610cca565b600061150834613280565b905061151682600019614320565b81121561153957604051630e874cb160e41b815260048101829052602401610cca565b611553838661154e66016bcc41e90000612f1b565b613209565b80836020018181516115659190614256565b9052506010805482919060009061157d908490614256565b9091555050600085815260146020908152604091829020855181559085015160018201559084015160028201556060840151600382015560808401516004909101805460ff19169115159190911790556115e06115d98661161d565b8587612daa565b60405185906001600160a01b038616907fa5ee7a2b0254fce91deed604506790ed7fa072d0b14cba4859c3bc8955b9caac90600090a35050505050565b6000818152600260205260408120546001600160a01b031680610b975760405162461bcd60e51b8152602060048201526018602482015277115490cdcc8c4e881a5b9d985b1a59081d1bdad95b88125160421b6044820152606401610cca565b60008061168934613280565b90507f00000000000000000000000000000000000000000000000000000000000000008112156116cf57604051633e0432ef60e01b815260048101829052602401610cca565b6000806116db856132d2565b915091508281602001818152505082601060008282546116fb9190614256565b909155508290507f06da3309189fa49284f335d2c2bcb4cb0b8ad2a59ad92a9bdebeeb8f1ceba51161172c856133e0565b60405190815260200160405180910390a26001608082018181526000848152601460209081526040918290208551815590850151938101939093558301516002830155606090920151600382015590516004909101805460ff19169115159190911790559392505050565b60006001600160a01b0382166118015760405162461bcd60e51b815260206004820152602960248201527f4552433732313a2061646472657373207a65726f206973206e6f7420612076616044820152683634b21037bbb732b960b91b6064820152608401610cca565b506001600160a01b031660009081526003602052604090205490565b6000826001600160a01b03166118328561161d565b6001600160a01b031603611848575060016118cd565b60008481526015602090815260408083206001600160a01b038716845282529182902082518084019093525460ff81168084526101009091046001600160f81b03169183019190915261189b90846132a5565b80156118c9575080602001516001600160f81b03166014600087815260200190815260200160002060030154105b9150505b9392505050565b8060016118e282338361181d565b61190357818160405163acb8d02d60e01b8152600401610cca92919061422c565b600083815260146020526040812060040154849160ff9091161515900361194057604051632080e3d360e01b815260048101829052602401610cca565b60008481526014602052604090206002015415611973576040516339d0e29960e01b815260048101859052602401610cca565b600084815260146020526040812060010154136119a2576040516207c73960e71b815260040160405180910390fd5b60008481526014602052604090819020600401805460ff19169055517fed48e4e899b34abded07dd8f092a22585a3fdec7db6b83f3927af165bf04cb1e906119ed9086815260200190565b60405180910390a150505050565b8233611a068261161d565b6001600160a01b031614611a305760405163d64dfb0160e01b815260048101829052602401610cca565b4360005b83811015611b10576000858583818110611a5057611a506142d6565b9050602002810190611a629190614350565b611a6b90614370565b9050806020015151600003611aa357600087815260156020908152604080832084516001600160a01b03168452909152812055611b07565b6040518060400160405280611abb8360200151613436565b60ff90811682526001600160f81b0380871660209384015260008b815260158452604080822087516001600160a01b031683528552902084519490930151166101000292169190911790555b50600101611a34565b507f5015559e4f379aa0dd2effee572c916b09bb68ed41ad9ab127c8066f052e1643858585604051611b4493929190614438565b60405180910390a15050505050565b606060018054610bac906141c0565b611b6d338383613484565b5050565b600081815260146020526040812060040154829060ff1615158203611bac57604051632080e3d360e01b815260048101829052602401610cca565b601854604080516318160ddd60e01b815290516000926001600160a01b0316916318160ddd9160048083019260209291908290030181865afa158015611bf6573d6000803e3d6000fd5b505050506040513d601f19601f82011682018060405250810190611c1a9190614548565b905080600003611c3d57604051632a8ef6b160e11b815260040160405180910390fd5b7f0000000000000000000000000000000000000000000000000000000000000000601354611c6b91906142c3565b421015611c8b576040516334490f5560e11b815260040160405180910390fd5b6000611c95613552565b90506000611cb2600b5483611caa9190614561565b600b546135ca565b90506000611cbf826135ee565b90507f0000000000000000000000000000000000000000000000000000000000000000811015611d055760405163e746612160e01b815260048101839052602401610cca565b42601355600b839055600e8054600f55439055600c54600d55611d30611d2a85613601565b8361366b565b600c55600087815260146020908152604091829020825160a081018452815481526001820154928101929092526002810154928201929092526003820154606082015260049091015460ff1615156080820152611da1818961154e611d9c8666016bcc41e900006142c3565b612f1b565b600088815260146020908152604091829020835181558382015160018201558383015160028201556060840151600382015560808401516004909101805460ff191691151591909117905590518981527fff14d8520387b9b85d2a017dc41ae15db04a22d4c67deac04eb45048631ffa86910160405180910390a1600c54965050505050505b50919050565b806000611e3b82338361181d565b611e5c57818160405163acb8d02d60e01b8152600401610cca92919061422c565b600083815260146020526040902060040154839060ff161515600103611e98576040516307e1313160e11b815260048101829052602401610cca565b60008481526014602052604090819020600401805460ff19166001179055517f3ec796be1be7d03bff3a62b9fa594a60e947c1809bced06d929f145308ae57ce906119ed9086815260200190565b611ef03383612d2c565b611f0c5760405162461bcd60e51b8152600401610cca90614276565b611f1884848484613690565b50505050565b6060611f2982612c5c565b6000611f4060408051602081019091526000815290565b90506000815111611f6057604051806020016040528060008152506118cd565b80611f6a846136c3565b604051602001611f7b929190614588565b6040516020818303038152906040529392505050565b6000600a54600114611fd25760405162461bcd60e51b815260206004820152600a6024820152695245454e5452414e435960b01b6044820152606401610cca565b6002600a55836006611fe582338361181d565b61200657818160405163acb8d02d60e01b8152600401610cca92919061422c565b600086815260146020526040812060040154879160ff9091161515900361204357604051632080e3d360e01b815260048101829052602401610cca565b6000878152601460205260409020600281015486111561207957604051630b32a9c760e21b815260048101879052602401610cca565b6002810180548790039055601854604051632770a7eb60e21b8152336004820152602481018890526001600160a01b0390911690639dc29fac90604401600060405180830381600087803b1580156120d057600080fd5b505af11580156120e4573d6000803e3d6000fd5b5050505060006120fa6120f5613552565b6133e0565b612108886305f5e1006145b7565b61211291906145e4565b90506000886001600160a01b03168260405160006040518083038185875af1925050503d8060008114612161576040519150601f19603f3d011682016040523d82523d6000602084013e612166565b606091505b505090508061219157604051637eaf0ff960e11b815233600482015260248101839052604401610cca565b6040518881528a9033907ff3a670cd3af7d64b488926880889d08a8585a138ff455227af6737339a1ec2629060200160405180910390a3506001600a5598975050505050505050565b600082815260146020526040812060040154839060ff161515820361221557604051632080e3d360e01b815260048101829052602401610cca565b600083815260146020526040812060040154849160ff9091161515900361225257604051632080e3d360e01b815260048101829052602401610cca565b6000858152601660209081526040808320600f54845290915290205460ff161561229d57600f54604051630cff449b60e21b8152610cca918791600401918252602082015260400190565b6001601660008781526020019081526020016000206000600f54815260200190815260200160002060006101000a81548160ff0219169083151502179055506000601460008781526020019081526020016000206040518060a0016040529081600082015481526020016001820154815260200160028201548152602001600382015481526020016004820160009054906101000a900460ff16151515158152505090506000601460008781526020019081526020016000206040518060a0016040529081600082015481526020016001820154815260200160028201548152602001600382015481526020016004820160009054906101000a900460ff1615151515815250509050600080600d541315612436576123be600d5484612fb0565b90506123e3816123de670853a0d2313c0000670de0b6b3a7640000614561565b61366b565b836020018181516123f49190614256565b90525061240981670853a0d2313c000061366b565b8260200181815161241a9190614256565b905250612431828861154e65b5e620f48000612f1b565b612482565b6000612444600d5485613036565b602086018051929450909250839161245d908390614256565b90525061246b848a83613209565b612480838961154e660110d9316ec000612f1b565b505b80601060008282546124949190614256565b9250508190555082601460008a81526020019081526020016000206000820151816000015560208201518160010155604082015181600201556060820151816003015560808201518160040160006101000a81548160ff02191690831515021790555090505081601460008981526020019081526020016000206000820151816000015560208201518160010155604082015181600201556060820151816003015560808201518160040160006101000a81548160ff02191690831515021790555090505086887f0e7d191e2306ac0b4fbf5a2cb60c28ddb5a0507bd6dc06322d0d1ea0925eabd78360405161258c91815260200190565b60405180910390a3945050505b505092915050565b8160036125af82338361181d565b6125d057818160405163acb8d02d60e01b8152600401610cca92919061422c565b600084815260146020526040812060040154859160ff9091161515900361260d57604051632080e3d360e01b815260048101829052602401610cca565b6000858152601460205260409020600281015485111561264357604051630b32a9c760e21b815260048101869052602401610cca565b600086815260176020526040908190204390556018549051632770a7eb60e21b8152336004820152602481018790526001600160a01b0390911690639dc29fac90604401600060405180830381600087803b1580156126a157600080fd5b505af11580156126b5573d6000803e3d6000fd5b50505060028201805487900390555060006126cf86613601565b9050808260010160008282546126e59190614256565b9250508190555080601060008282546126fe9190614256565b909155505060405186815287907f06da3309189fa49284f335d2c2bcb4cb0b8ad2a59ad92a9bdebeeb8f1ceba5119060200160405180910390a250505050505050565b82600561274f82338361181d565b61277057818160405163acb8d02d60e01b8152600401610cca92919061422c565b600085815260146020526040812060040154869160ff909116151590036127ad57604051632080e3d360e01b815260048101829052602401610cca565b6000868152601760205260409020544390036127de5760405163194af33f60e21b8152436004820152602401610cca565b600086815260146020526040902060018101546127fa86613601565b131561282157806001015460405163689b65e960e11b8152600401610cca91815260200190565b600061282e6120f5613552565b61283c6305f5e100476145e4565b61284691906145b7565b905060006128d687601860009054906101000a90046001600160a01b03166001600160a01b03166318160ddd6040518163ffffffff1660e01b8152600401602060405180830381865afa1580156128a1573d6000803e3d6000fd5b505050506040513d601f19601f820116820180604052508101906128c59190614548565b6128cf91906142c3565b8390613756565b90506714d1120d7b1600008110156129045760405163f51aaf6560e01b815260048101829052602401610cca565b600061290f60085490565b61291990846145e4565b9050600088856002015461292d91906142c3565b90508181111561295357604051630dd16eb960e41b815260048101839052602401610cca565b600061295e8a613601565b6001870180548290039055601080549192508291600090612980908490614561565b9091555050600286018290556018546040516340c10f1960e01b81526001600160a01b038d81166004830152602482018d9052909116906340c10f1990604401600060405180830381600087803b1580156129da57600080fd5b505af11580156129ee573d6000803e3d6000fd5b505050508a6001600160a01b03168c7fcf7d23a3cbe4e8b36ff82fd1b05b1b17373dc7804b4ebbd6e2356716ef2023728c604051612a2e91815260200190565b60405180910390a3505050505050505050505050565b612a5084848484612b84565b6001811115612abf5760405162461bcd60e51b815260206004820152603560248201527f455243373231456e756d657261626c653a20636f6e7365637574697665207472604482015274185b9cd9995c9cc81b9bdd081cdd5c1c1bdc9d1959605a1b6064820152608401610cca565b816001600160a01b038516612b1b57612b1681600880546000838152600960205260408120829055600182018355919091527ff3f7a9fe364faab93b216da50a3214154f22a0a2b415b23a84c8169e8b636ee30155565b612b3e565b836001600160a01b0316856001600160a01b031614612b3e57612b3e858261376b565b6001600160a01b038416612b5a57612b5581613808565b612b7d565b846001600160a01b0316846001600160a01b031614612b7d57612b7d84826138b7565b5050505050565b6001811115611f18576001600160a01b03841615612bca576001600160a01b03841660009081526003602052604081208054839290612bc49084906145f8565b90915550505b6001600160a01b03831615611f18576001600160a01b03831660009081526003602052604081208054839290612c019084906142c3565b909155505050505050565b60006001600160e01b031982166380ac58cd60e01b1480612c3d57506001600160e01b03198216635b5e139f60e01b145b80610b9757506301ffc9a760e01b6001600160e01b0319831614610b97565b6000818152600260205260409020546001600160a01b0316612cbb5760405162461bcd60e51b8152602060048201526018602482015277115490cdcc8c4e881a5b9d985b1a59081d1bdad95b88125160421b6044820152606401610cca565b50565b600081815260046020526040902080546001600160a01b0319166001600160a01b0384169081179091558190612cf38261161d565b6001600160a01b03167f8c5be1e5ebec7d5bd14f71427d1e84f3dd0314c0f7b2291e5b200ac8c7c3b92560405160405180910390a45050565b600080612d388361161d565b9050806001600160a01b0316846001600160a01b03161480612d7f57506001600160a01b0380821660009081526005602090815260408083209388168352929052205460ff165b806114865750836001600160a01b0316612d9884610c2f565b6001600160a01b031614949350505050565b826001600160a01b0316612dbd8261161d565b6001600160a01b031614612de35760405162461bcd60e51b8152600401610cca9061460b565b6001600160a01b038216612e455760405162461bcd60e51b8152602060048201526024808201527f4552433732313a207472616e7366657220746f20746865207a65726f206164646044820152637265737360e01b6064820152608401610cca565b612e5283838360016138fb565b826001600160a01b0316612e658261161d565b6001600160a01b031614612e8b5760405162461bcd60e51b8152600401610cca9061460b565b600081815260046020908152604080832080546001600160a01b03199081169091556001600160a01b0387811680865260038552838620805460001901905590871680865283862080546001019055868652600290945282852080549092168417909155905184937fddf252ad1be2c89b69c2b068fc378daa952ba7f163c4a11628f55a4df523b3ef91a4505050565b6000662386f26fc10000612fa683601860009054906101000a90046001600160a01b03166001600160a01b03166318160ddd6040518163ffffffff1660e01b8152600401602060405180830381865afa158015612f7c573d6000803e3d6000fd5b505050506040513d601f19601f82011682018060405250810190612fa09190614548565b90613921565b610b9791906145e4565b60008082602001511215612fd6576040516207c73960e71b815260040160405180910390fd5b6011548251600091612fe89190613756565b90506000612ffc84602001516010546135ca565b9050600060028261300c85613601565b6130169190614256565b6130209190614650565b905061302c868261366b565b9695505050505050565b60008060008360200151121561305e576040516207c73960e71b815260040160405180910390fd5b60125483516000916130709190613756565b601154855191925060009161308491613756565b905060006130928383613756565b905060006130a16010546133e0565b601860009054906101000a90046001600160a01b03166001600160a01b03166318160ddd6040518163ffffffff1660e01b8152600401602060405180830381865afa1580156130f4573d6000803e3d6000fd5b505050506040513d601f19601f820116820180604052508101906131189190614548565b61312291906142c3565b9050600061314c826131378a602001516133e0565b8a6040015161314691906142c3565b90613756565b9050600061316286670de0b6b3a76400006145f8565b9050600061319e6131998661317660085490565b61318890670de0b6b3a76400006145b7565b61319291906145f8565b8490613756565b613601565b90506002816131ac85613601565b6131b69190614256565b6131c09190614650565b905060006131ce828d61366b565b905060006131df89613146846135ee565b9050816131f4670de0b6b3a7640000836145e4565b9a509a505050505050505050505b9250929050565b808360000181815161321b91906142c3565b9052506012548351111561322f5782516012555b806011600082825461324191906142c3565b909155505060405181815282907fbed79548735be4d252e30687e5817f81bb3a0166f8f2656f162b2fd746c53ae19060200160405180910390a2505050565b600061328a613552565b61329b6131996305f5e100856145e4565b610b979190614320565b6000808260078111156132ba576132ba6141f4565b600160ff9182161b9490941690931615159392505050565b60006133086040518060a00160405280600081526020016000815260200160008152602001600081526020016000151581525090565b600061331360085490565b90507f000000000000000000000000000000000000000000000000000000000000000081106133555760405163794bb39b60e01b815260040160405180910390fd5b61335f8482613936565b60405181906001600160a01b038616907f30385c845b448a36257a6a1716e6ad2e1bc2cbe333cde1e69fe849ad6511adfe90600090a36133c96040518060a00160405280600081526020016000815260200160008152602001600081526020016000151581525090565b6133d681836103e8613209565b9094909350915050565b6000808212156134325760405162461bcd60e51b815260206004820181905260248201527f53616665436173743a2076616c7565206d75737420626520706f7369746976656044820152606401610cca565b5090565b6000805b8251811015611e2757828181518110613455576134556142d6565b6020026020010151600781111561346e5761346e6141f4565b600160ff9190911681901b92909217910161343a565b816001600160a01b0316836001600160a01b0316036134e55760405162461bcd60e51b815260206004820152601960248201527f4552433732313a20617070726f766520746f2063616c6c6572000000000000006044820152606401610cca565b6001600160a01b03838116600081815260056020908152604080832094871680845294825291829020805460ff191686151590811790915591519182527f17307eab39ab6107e8899845ad3d59bd9653f200f220920489ca2b5937696c31910160405180910390a3505050565b60195460408051633fabe5a360e21b815290516000926001600160a01b03169163feaf968c9160048083019260a09291908290030181865afa15801561359c573d6000803e3d6000fd5b505050506040513d601f19601f820116820180604052508101906135c09190614698565b5091949350505050565b670de0b6b3a76400008281029081058314821515166135e857600080fd5b05919050565b6000808212156134325781600003610b97565b60006001600160ff1b038211156134325760405162461bcd60e51b815260206004820152602860248201527f53616665436173743a2076616c756520646f65736e27742066697420696e2061604482015267371034b73a191a9b60c11b6064820152608401610cca565b818102821583820583141761367f57600080fd5b670de0b6b3a7640000900592915050565b61369b848484612daa565b6136a784848484613acf565b611f185760405162461bcd60e51b8152600401610cca906146e8565b606060006136d083613bcd565b600101905060008167ffffffffffffffff8111156136f0576136f0614041565b6040519080825280601f01601f19166020018201604052801561371a576020820181803683370190505b5090508181016020015b600019016f181899199a1a9b1b9c1cb0b131b232b360811b600a86061a8153600a850494508461372457509392505050565b60006118cd83670de0b6b3a764000084613ca5565b6000600161377884611797565b61378291906145f8565b6000838152600760205260409020549091508082146137d5576001600160a01b03841660009081526006602090815260408083208584528252808320548484528184208190558352600790915290208190555b5060009182526007602090815260408084208490556001600160a01b039094168352600681528383209183525290812055565b60085460009061381a906001906145f8565b60008381526009602052604081205460088054939450909284908110613842576138426142d6565b906000526020600020015490508060088381548110613863576138636142d6565b600091825260208083209091019290925582815260099091526040808220849055858252812055600880548061389b5761389b61473a565b6001900381819060005260206000200160009055905550505050565b60006138c283611797565b6001600160a01b039093166000908152600660209081526040808320868452825280832085905593825260079052919091209190915550565b61390784848484612a44565b506000908152601460205260409020436003909101555050565b60006118cd8383670de0b6b3a7640000613ca5565b6001600160a01b03821661398c5760405162461bcd60e51b815260206004820181905260248201527f4552433732313a206d696e7420746f20746865207a65726f20616464726573736044820152606401610cca565b6000818152600260205260409020546001600160a01b0316156139f15760405162461bcd60e51b815260206004820152601c60248201527f4552433732313a20746f6b656e20616c7265616479206d696e746564000000006044820152606401610cca565b6139ff6000838360016138fb565b6000818152600260205260409020546001600160a01b031615613a645760405162461bcd60e51b815260206004820152601c60248201527f4552433732313a20746f6b656e20616c7265616479206d696e746564000000006044820152606401610cca565b6001600160a01b038216600081815260036020908152604080832080546001019055848352600290915280822080546001600160a01b0319168417905551839291907fddf252ad1be2c89b69c2b068fc378daa952ba7f163c4a11628f55a4df523b3ef908290a45050565b60006001600160a01b0384163b15613bc557604051630a85bd0160e11b81526001600160a01b0385169063150b7a0290613b13903390899088908890600401614750565b6020604051808303816000875af1925050508015613b4e575060408051601f3d908101601f19168201909252613b4b91810190614783565b60015b613bab573d808015613b7c576040519150601f19603f3d011682016040523d82523d6000602084013e613b81565b606091505b508051600003613ba35760405162461bcd60e51b8152600401610cca906146e8565b805181602001fd5b6001600160e01b031916630a85bd0160e11b149050611486565b506001611486565b60008072184f03e93ff9f4daa797ed6e38ed64bf6a1f0160401b8310613c0c5772184f03e93ff9f4daa797ed6e38ed64bf6a1f0160401b830492506040015b6d04ee2d6d415b85acef81000000008310613c38576d04ee2d6d415b85acef8100000000830492506020015b662386f26fc100008310613c5657662386f26fc10000830492506010015b6305f5e1008310613c6e576305f5e100830492506008015b6127108310613c8257612710830492506004015b60648310613c94576064830492506002015b600a8310610b975760010192915050565b6000826000190484118302158202613cbc57600080fd5b5091020490565b60008060408385031215613cd657600080fd5b50508035926020909101359150565b6001600160e01b031981168114612cbb57600080fd5b600060208284031215613d0d57600080fd5b81356118cd81613ce5565b60005b83811015613d33578181015183820152602001613d1b565b50506000910152565b60008151808452613d54816020860160208601613d18565b601f01601f19169290920160200192915050565b6020815260006118cd6020830184613d3c565b600060208284031215613d8d57600080fd5b5035919050565b80356001600160a01b0381168114613dab57600080fd5b919050565b60008060408385031215613dc357600080fd5b613dcc83613d94565b946020939093013593505050565b600080600060608486031215613def57600080fd5b505081359360208301359350604090920135919050565b600080600060608486031215613e1b57600080fd5b613e2484613d94565b9250613e3260208501613d94565b9150604084013590509250925092565b60008060408385031215613e5557600080fd5b82359150613e6560208401613d94565b90509250929050565b60008083601f840112613e8057600080fd5b50813567ffffffffffffffff811115613e9857600080fd5b6020830191508360208260051b850101111561320257600080fd5b60008060008060608587031215613ec957600080fd5b84359350613ed960208601613d94565b9250604085013567ffffffffffffffff811115613ef557600080fd5b613f0187828801613e6e565b95989497509550505050565b6020808252825182820181905260009190848201906040850190845b81811015613f47578351151583529284019291840191600101613f29565b50909695505050505050565b600060208284031215613f6557600080fd5b6118cd82613d94565b803560088110613dab57600080fd5b600080600060608486031215613f9257600080fd5b83359250613fa260208501613d94565b9150613fb060408501613f6e565b90509250925092565b600080600060408486031215613fce57600080fd5b83359250602084013567ffffffffffffffff811115613fec57600080fd5b613ff886828701613e6e565b9497909650939450505050565b6000806040838503121561401857600080fd5b61402183613d94565b91506020830135801515811461403657600080fd5b809150509250929050565b634e487b7160e01b600052604160045260246000fd5b6040805190810167ffffffffffffffff8111828210171561407a5761407a614041565b60405290565b604051601f8201601f1916810167ffffffffffffffff811182821017156140a9576140a9614041565b604052919050565b600080600080608085870312156140c757600080fd5b6140d085613d94565b935060206140df818701613d94565b935060408601359250606086013567ffffffffffffffff8082111561410357600080fd5b818801915088601f83011261411757600080fd5b81358181111561412957614129614041565b61413b601f8201601f19168501614080565b9150808252898482850101111561415157600080fd5b808484018584013760008482840101525080935050505092959194509250565b60008060006060848603121561418657600080fd5b83359250613e3260208501613d94565b600080604083850312156141a957600080fd5b6141b283613d94565b9150613e6560208401613d94565b600181811c908216806141d457607f821691505b602082108103611e2757634e487b7160e01b600052602260045260246000fd5b634e487b7160e01b600052602160045260246000fd5b6008811061422857634e487b7160e01b600052602160045260246000fd5b9052565b828152604081016118cd602083018461420a565b634e487b7160e01b600052601160045260246000fd5b808201828112600083128015821682158216171561259957612599614240565b6020808252602d908201527f4552433732313a2063616c6c6572206973206e6f7420746f6b656e206f776e6560408201526c1c881bdc88185c1c1c9bdd9959609a1b606082015260800190565b80820180821115610b9757610b97614240565b634e487b7160e01b600052603260045260246000fd5b6000600182016142fe576142fe614240565b5060010190565b60006020828403121561431757600080fd5b6118cd82613f6e565b80820260008212600160ff1b8414161561433c5761433c614240565b8181058314821517610b9757610b97614240565b60008235603e1983360301811261436657600080fd5b9190910192915050565b60006040823603121561438257600080fd5b61438a614057565b61439383613d94565b815260208084013567ffffffffffffffff808211156143b157600080fd5b9085019036601f8301126143c457600080fd5b8135818111156143d6576143d6614041565b8060051b91506143e7848301614080565b818152918301840191848101903684111561440157600080fd5b938501935b838510156144265761441785613f6e565b82529385019390850190614406565b94860194909452509295945050505050565b8381526040602080830182905282820184905260009190606090818501600587811b8701840189875b8a81101561453757898303605f190185528135368d9003603e1901811261448757600080fd5b8c018389016001600160a01b0361449d83613d94565b16855287820135601e198336030181126144b657600080fd5b90910187810191903567ffffffffffffffff8111156144d457600080fd5b80871b36038313156144e557600080fd5b8589018b9052908190526000908986015b81831015614522576145108161450b86613f6e565b61420a565b928901926001929092019189016144f6565b97890197955050509186019150600101614461565b50909b9a5050505050505050505050565b60006020828403121561455a57600080fd5b5051919050565b818103600083128015838313168383128216171561458157614581614240565b5092915050565b6000835161459a818460208801613d18565b8351908301906145ae818360208801613d18565b01949350505050565b8082028115828204841417610b9757610b97614240565b634e487b7160e01b600052601260045260246000fd5b6000826145f3576145f36145ce565b500490565b81810381811115610b9757610b97614240565b60208082526025908201527f4552433732313a207472616e736665722066726f6d20696e636f72726563742060408201526437bbb732b960d91b606082015260800190565b60008261465f5761465f6145ce565b600160ff1b82146000198414161561467957614679614240565b500590565b805169ffffffffffffffffffff81168114613dab57600080fd5b600080600080600060a086880312156146b057600080fd5b6146b98661467e565b94506020860151935060408601519250606086015191506146dc6080870161467e565b90509295509295909350565b60208082526032908201527f4552433732313a207472616e7366657220746f206e6f6e20455243373231526560408201527131b2b4bb32b91034b6b83632b6b2b73a32b960711b606082015260800190565b634e487b7160e01b600052603160045260246000fd5b6001600160a01b038581168252841660208201526040810183905260806060820181905260009061302c90830184613d3c565b60006020828403121561479557600080fd5b81516118cd81613ce556fea2646970667358221220943122c95bcc166ddd99828b1eaa149df3e24108e5f7c8a65b9271f93a5b8a3a64736f6c63430008110033",
    "linkReferences": {}
  },
  "methodIdentifiers": {
    "MAX_SUPPLY()": "32cb6b0c",
    "MIN_COLLATERIZATION_RATIO()": "35f2faf0",
    "MIN_MINT_DYAD_DEPOSIT()": "397b8024",
    "MIN_PRICE_CHANGE_BETWEEN_SYNC()": "e8101c1b",
    "MIN_TIME_BETWEEN_SYNC()": "0ba4ae30",
    "SNIPE_MINT_SHARE_REWARD()": "5982dc29",
    "XP_CLAIM_REWARD()": "c784cbe6",
    "XP_LIQUIDATION_REWARD()": "4b2ec8ee",
    "XP_MINT_REWARD()": "febb16df",
    "XP_NORM_FACTOR()": "c9e3d730",
    "XP_SNIPE_BURN_REWARD()": "4ddc77c8",
    "XP_SNIPE_MINT_REWARD()": "aadfdcc2",
    "XP_SYNC_REWARD()": "3295787f",
    "activate(uint256)": "b260c42a",
    "approve(address,uint256)": "095ea7b3",
    "balanceOf(address)": "70a08231",
    "claim(uint256)": "379607f5",
    "deactivate(uint256)": "916b9bef",
    "deposit(uint256,uint256)": "e2bbb158",
    "dyad()": "add95a51",
    "dyadDelta()": "265f63a1",
    "exchange(uint256)": "53556559",
    "getApproved(uint256)": "081812fc",
    "grant(uint256,(address,uint8[])[])": "95952619",
    "hasPermission(uint256,address,uint8)": "823abfd9",
    "hasPermissions(uint256,address,uint8[])": "551e123b",
    "idToClaimed(uint256,uint256)": "019e242e",
    "idToLastDeposit(uint256)": "6220347e",
    "idToNft(uint256)": "483afb2d",
    "idToNftPermission(uint256,address)": "36416455",
    "isApprovedForAll(address,address)": "e985e9c5",
    "lastEthPrice()": "7038fc4e",
    "liquidate(uint256,address)": "5fae8b3d",
    "maxXp()": "413217b7",
    "mint(address)": "6a627842",
    "move(uint256,uint256,int256)": "1849c73a",
    "name()": "06fdde03",
    "ownerOf(uint256)": "6352211e",
    "prevDyadDelta()": "decb84dc",
    "prevSyncedBlock()": "e6446691",
    "redeem(uint256,address,uint256)": "d8780161",
    "safeTransferFrom(address,address,uint256)": "42842e0e",
    "safeTransferFrom(address,address,uint256,bytes)": "b88d4fde",
    "setApprovalForAll(address,bool)": "a22cb465",
    "snipe(uint256,uint256)": "de1eecb3",
    "supportsInterface(bytes4)": "01ffc9a7",
    "symbol()": "95d89b41",
    "sync(uint256)": "b1357bf9",
    "syncedBlock()": "d4912507",
    "timeOfLastSync()": "174c67e1",
    "tokenByIndex(uint256)": "4f6ccce7",
    "tokenOfOwnerByIndex(address,uint256)": "2f745c59",
    "tokenURI(uint256)": "c87b56dd",
    "totalDeposit()": "f6153ccd",
    "totalSupply()": "18160ddd",
    "totalXp()": "10d4f96d",
    "transferFrom(address,address,uint256)": "23b872dd",
    "withdraw(uint256,address,uint256)": "e63697c8"
  },
  "id": 40
}