{
  "abi": [
    {
      "inputs": [
        {
          "internalType": "address",
          "name": "_dyad",
          "type": "address"
        },
        {
          "internalType": "address",
          "name": "_oracle",
          "type": "address"
        },
        {
          "internalType": "uint256",
          "name": "_maxSupply",
          "type": "uint256"
        },
        {
          "internalType": "uint256",
          "name": "_minTimeBetweenSync",
          "type": "uint256"
        },
        {
          "internalType": "int256",
          "name": "_minMintDyadDeposit",
          "type": "int256"
        },
        {
          "internalType": "address[]",
          "name": "_insiders",
          "type": "address[]"
        }
      ],
      "stateMutability": "nonpayable",
      "type": "constructor"
    },
    {
      "inputs": [
        {
          "internalType": "uint256",
          "name": "id",
          "type": "uint256"
        },
        {
          "internalType": "uint256",
          "name": "syncedBlock",
          "type": "uint256"
        }
      ],
      "name": "AlreadyClaimed",
      "type": "error"
    },
    {
      "inputs": [],
      "name": "AlreadySniped",
      "type": "error"
    },
    {
      "inputs": [],
      "name": "CannotSnipeSelf",
      "type": "error"
    },
    {
      "inputs": [
        {
          "internalType": "uint256",
          "name": "cr",
          "type": "uint256"
        }
      ],
      "name": "CrTooLow",
      "type": "error"
    },
    {
      "inputs": [
        {
          "internalType": "uint256",
          "name": "id",
          "type": "uint256"
        }
      ],
      "name": "DNftDoesNotExist",
      "type": "error"
    },
    {
      "inputs": [],
      "name": "DepositAndWithdrawInSameBlock",
      "type": "error"
    },
    {
      "inputs": [],
      "name": "DepositIsNegative",
      "type": "error"
    },
    {
      "inputs": [],
      "name": "DyadTotalSupplyZero",
      "type": "error"
    },
    {
      "inputs": [],
      "name": "EthPriceUnchanged",
      "type": "error"
    },
    {
      "inputs": [
        {
          "internalType": "uint256",
          "name": "averageTVL",
          "type": "uint256"
        }
      ],
      "name": "ExceedsAverageTVL",
      "type": "error"
    },
    {
      "inputs": [
        {
          "internalType": "int256",
          "name": "deposit",
          "type": "int256"
        }
      ],
      "name": "ExceedsDeposit",
      "type": "error"
    },
    {
      "inputs": [
        {
          "internalType": "uint256",
          "name": "amount",
          "type": "uint256"
        }
      ],
      "name": "ExceedsWithdrawal",
      "type": "error"
    },
    {
      "inputs": [
        {
          "internalType": "uint256",
          "name": "id",
          "type": "uint256"
        }
      ],
      "name": "IsActive",
      "type": "error"
    },
    {
      "inputs": [
        {
          "internalType": "uint256",
          "name": "id",
          "type": "uint256"
        }
      ],
      "name": "IsInactive",
      "type": "error"
    },
    {
      "inputs": [
        {
          "internalType": "uint256",
          "name": "id",
          "type": "uint256"
        },
        {
          "internalType": "enum DNft.Permission",
          "name": "permission",
          "type": "uint8"
        }
      ],
      "name": "MissingPermission",
      "type": "error"
    },
    {
      "inputs": [
        {
          "internalType": "int256",
          "name": "amount",
          "type": "int256"
        }
      ],
      "name": "NotEnoughToCoverDepositMinimum",
      "type": "error"
    },
    {
      "inputs": [
        {
          "internalType": "int256",
          "name": "amount",
          "type": "int256"
        }
      ],
      "name": "NotEnoughToCoverNegativeDeposit",
      "type": "error"
    },
    {
      "inputs": [
        {
          "internalType": "uint256",
          "name": "id",
          "type": "uint256"
        }
      ],
      "name": "NotLiquidatable",
      "type": "error"
    },
    {
      "inputs": [
        {
          "internalType": "uint256",
          "name": "id",
          "type": "uint256"
        }
      ],
      "name": "NotNFTOwner",
      "type": "error"
    },
    {
      "inputs": [],
      "name": "ReachedMaxSupply",
      "type": "error"
    },
    {
      "inputs": [],
      "name": "SyncTooSoon",
      "type": "error"
    },
    {
      "inputs": [
        {
          "internalType": "uint256",
          "name": "id",
          "type": "uint256"
        }
      ],
      "name": "WithdrawalsNotZero",
      "type": "error"
    },
    {
      "anonymous": false,
      "inputs": [
        {
          "indexed": false,
          "internalType": "uint256",
          "name": "id",
          "type": "uint256"
        }
      ],
      "name": "Activated",
      "type": "event"
    },
    {
      "anonymous": false,
      "inputs": [
        {
          "indexed": true,
          "internalType": "address",
          "name": "owner",
          "type": "address"
        },
        {
          "indexed": true,
          "internalType": "address",
          "name": "approved",
          "type": "address"
        },
        {
          "indexed": true,
          "internalType": "uint256",
          "name": "tokenId",
          "type": "uint256"
        }
      ],
      "name": "Approval",
      "type": "event"
    },
    {
      "anonymous": false,
      "inputs": [
        {
          "indexed": true,
          "internalType": "address",
          "name": "owner",
          "type": "address"
        },
        {
          "indexed": true,
          "internalType": "address",
          "name": "operator",
          "type": "address"
        },
        {
          "indexed": false,
          "internalType": "bool",
          "name": "approved",
          "type": "bool"
        }
      ],
      "name": "ApprovalForAll",
      "type": "event"
    },
    {
      "anonymous": false,
      "inputs": [
        {
          "indexed": true,
          "internalType": "uint256",
          "name": "id",
          "type": "uint256"
        },
        {
          "indexed": false,
          "internalType": "int256",
          "name": "share",
          "type": "int256"
        }
      ],
      "name": "Claimed",
      "type": "event"
    },
    {
      "anonymous": false,
      "inputs": [
        {
          "indexed": false,
          "internalType": "uint256",
          "name": "id",
          "type": "uint256"
        }
      ],
      "name": "Deactivated",
      "type": "event"
    },
    {
      "anonymous": false,
      "inputs": [
        {
          "indexed": true,
          "internalType": "uint256",
          "name": "id",
          "type": "uint256"
        },
        {
          "indexed": false,
          "internalType": "uint256",
          "name": "amount",
          "type": "uint256"
        }
      ],
      "name": "Deposited",
      "type": "event"
    },
    {
      "anonymous": false,
      "inputs": [
        {
          "indexed": true,
          "internalType": "uint256",
          "name": "id",
          "type": "uint256"
        },
        {
          "indexed": false,
          "internalType": "int256",
          "name": "amount",
          "type": "int256"
        }
      ],
      "name": "Exchanged",
      "type": "event"
    },
    {
      "anonymous": false,
      "inputs": [
        {
          "indexed": true,
          "internalType": "address",
          "name": "to",
          "type": "address"
        },
        {
          "indexed": true,
          "internalType": "uint256",
          "name": "id",
          "type": "uint256"
        }
      ],
      "name": "Liquidated",
      "type": "event"
    },
    {
      "anonymous": false,
      "inputs": [
        {
          "indexed": true,
          "internalType": "address",
          "name": "to",
          "type": "address"
        },
        {
          "indexed": true,
          "internalType": "uint256",
          "name": "id",
          "type": "uint256"
        }
      ],
      "name": "Minted",
      "type": "event"
    },
    {
      "anonymous": false,
      "inputs": [
        {
          "indexed": false,
          "internalType": "uint256",
          "name": "tokenId",
          "type": "uint256"
        },
        {
          "components": [
            {
              "internalType": "address",
              "name": "operator",
              "type": "address"
            },
            {
              "internalType": "enum DNft.Permission[]",
              "name": "permissions",
              "type": "uint8[]"
            }
          ],
          "indexed": false,
          "internalType": "struct DNft.PermissionSet[]",
          "name": "permissions",
          "type": "tuple[]"
        }
      ],
      "name": "Modified",
      "type": "event"
    },
    {
      "anonymous": false,
      "inputs": [
        {
          "indexed": true,
          "internalType": "uint256",
          "name": "from",
          "type": "uint256"
        },
        {
          "indexed": true,
          "internalType": "uint256",
          "name": "to",
          "type": "uint256"
        },
        {
          "indexed": false,
          "internalType": "int256",
          "name": "amount",
          "type": "int256"
        }
      ],
      "name": "Moved",
      "type": "event"
    },
    {
      "anonymous": false,
      "inputs": [
        {
          "indexed": true,
          "internalType": "address",
          "name": "to",
          "type": "address"
        },
        {
          "indexed": true,
          "internalType": "uint256",
          "name": "id",
          "type": "uint256"
        },
        {
          "indexed": false,
          "internalType": "uint256",
          "name": "amount",
          "type": "uint256"
        }
      ],
      "name": "Redeemed",
      "type": "event"
    },
    {
      "anonymous": false,
      "inputs": [
        {
          "indexed": true,
          "internalType": "uint256",
          "name": "from",
          "type": "uint256"
        },
        {
          "indexed": true,
          "internalType": "uint256",
          "name": "to",
          "type": "uint256"
        },
        {
          "indexed": false,
          "internalType": "int256",
          "name": "share",
          "type": "int256"
        }
      ],
      "name": "Sniped",
      "type": "event"
    },
    {
      "anonymous": false,
      "inputs": [
        {
          "indexed": false,
          "internalType": "uint256",
          "name": "id",
          "type": "uint256"
        }
      ],
      "name": "Synced",
      "type": "event"
    },
    {
      "anonymous": false,
      "inputs": [
        {
          "indexed": true,
          "internalType": "address",
          "name": "from",
          "type": "address"
        },
        {
          "indexed": true,
          "internalType": "address",
          "name": "to",
          "type": "address"
        },
        {
          "indexed": true,
          "internalType": "uint256",
          "name": "tokenId",
          "type": "uint256"
        }
      ],
      "name": "Transfer",
      "type": "event"
    },
    {
      "anonymous": false,
      "inputs": [
        {
          "indexed": true,
          "internalType": "uint256",
          "name": "from",
          "type": "uint256"
        },
        {
          "indexed": true,
          "internalType": "address",
          "name": "to",
          "type": "address"
        },
        {
          "indexed": false,
          "internalType": "uint256",
          "name": "amount",
          "type": "uint256"
        }
      ],
      "name": "Withdrawn",
      "type": "event"
    },
    {
      "anonymous": false,
      "inputs": [
        {
          "indexed": true,
          "internalType": "uint256",
          "name": "id",
          "type": "uint256"
        },
        {
          "indexed": false,
          "internalType": "uint256",
          "name": "amount",
          "type": "uint256"
        }
      ],
      "name": "XpIncreased",
      "type": "event"
    },
    {
      "inputs": [],
      "name": "MAX_SUPPLY",
      "outputs": [
        {
          "internalType": "uint256",
          "name": "",
          "type": "uint256"
        }
      ],
      "stateMutability": "view",
      "type": "function"
    },
    {
      "inputs": [],
      "name": "MIN_COLLATERIZATION_RATIO",
      "outputs": [
        {
          "internalType": "uint256",
          "name": "",
          "type": "uint256"
        }
      ],
      "stateMutability": "view",
      "type": "function"
    },
    {
      "inputs": [],
      "name": "MIN_MINT_DYAD_DEPOSIT",
      "outputs": [
        {
          "internalType": "int256",
          "name": "",
          "type": "int256"
        }
      ],
      "stateMutability": "view",
      "type": "function"
    },
    {
      "inputs": [],
      "name": "MIN_TIME_BETWEEN_SYNC",
      "outputs": [
        {
          "internalType": "uint256",
          "name": "",
          "type": "uint256"
        }
      ],
      "stateMutability": "view",
      "type": "function"
    },
    {
      "inputs": [],
      "name": "SNIPE_MINT_SHARE_REWARD",
      "outputs": [
        {
          "internalType": "int256",
          "name": "",
          "type": "int256"
        }
      ],
      "stateMutability": "view",
      "type": "function"
    },
    {
      "inputs": [],
      "name": "XP_CLAIM_REWARD",
      "outputs": [
        {
          "internalType": "uint256",
          "name": "",
          "type": "uint256"
        }
      ],
      "stateMutability": "view",
      "type": "function"
    },
    {
      "inputs": [],
      "name": "XP_LIQUIDATION_REWARD",
      "outputs": [
        {
          "internalType": "uint256",
          "name": "",
          "type": "uint256"
        }
      ],
      "stateMutability": "view",
      "type": "function"
    },
    {
      "inputs": [],
      "name": "XP_MINT_REWARD",
      "outputs": [
        {
          "internalType": "uint256",
          "name": "",
          "type": "uint256"
        }
      ],
      "stateMutability": "view",
      "type": "function"
    },
    {
      "inputs": [],
      "name": "XP_SNIPE_BURN_REWARD",
      "outputs": [
        {
          "internalType": "uint256",
          "name": "",
          "type": "uint256"
        }
      ],
      "stateMutability": "view",
      "type": "function"
    },
    {
      "inputs": [],
      "name": "XP_SNIPE_MINT_REWARD",
      "outputs": [
        {
          "internalType": "uint256",
          "name": "",
          "type": "uint256"
        }
      ],
      "stateMutability": "view",
      "type": "function"
    },
    {
      "inputs": [],
      "name": "XP_SYNC_REWARD",
      "outputs": [
        {
          "internalType": "uint256",
          "name": "",
          "type": "uint256"
        }
      ],
      "stateMutability": "view",
      "type": "function"
    },
    {
      "inputs": [
        {
          "internalType": "uint256",
          "name": "id",
          "type": "uint256"
        }
      ],
      "name": "activate",
      "outputs": [],
      "stateMutability": "nonpayable",
      "type": "function"
    },
    {
      "inputs": [
        {
          "internalType": "address",
          "name": "to",
          "type": "address"
        },
        {
          "internalType": "uint256",
          "name": "tokenId",
          "type": "uint256"
        }
      ],
      "name": "approve",
      "outputs": [],
      "stateMutability": "nonpayable",
      "type": "function"
    },
    {
      "inputs": [
        {
          "internalType": "address",
          "name": "owner",
          "type": "address"
        }
      ],
      "name": "balanceOf",
      "outputs": [
        {
          "internalType": "uint256",
          "name": "",
          "type": "uint256"
        }
      ],
      "stateMutability": "view",
      "type": "function"
    },
    {
      "inputs": [
        {
          "internalType": "uint256",
          "name": "id",
          "type": "uint256"
        }
      ],
      "name": "claim",
      "outputs": [
        {
          "internalType": "int256",
          "name": "",
          "type": "int256"
        }
      ],
      "stateMutability": "nonpayable",
      "type": "function"
    },
    {
      "inputs": [
        {
          "internalType": "uint256",
          "name": "id",
          "type": "uint256"
        }
      ],
      "name": "deactivate",
      "outputs": [],
      "stateMutability": "nonpayable",
      "type": "function"
    },
    {
      "inputs": [
        {
          "internalType": "uint256",
          "name": "id",
          "type": "uint256"
        },
        {
          "internalType": "uint256",
          "name": "amount",
          "type": "uint256"
        }
      ],
      "name": "deposit",
      "outputs": [],
      "stateMutability": "nonpayable",
      "type": "function"
    },
    {
      "inputs": [],
      "name": "dyad",
      "outputs": [
        {
          "internalType": "contract Dyad",
          "name": "",
          "type": "address"
        }
      ],
      "stateMutability": "view",
      "type": "function"
    },
    {
      "inputs": [],
      "name": "dyadDelta",
      "outputs": [
        {
          "internalType": "int256",
          "name": "",
          "type": "int256"
        }
      ],
      "stateMutability": "view",
      "type": "function"
    },
    {
      "inputs": [],
      "name": "ethPrice",
      "outputs": [
        {
          "internalType": "int256",
          "name": "",
          "type": "int256"
        }
      ],
      "stateMutability": "view",
      "type": "function"
    },
    {
      "inputs": [
        {
          "internalType": "uint256",
          "name": "id",
          "type": "uint256"
        }
      ],
      "name": "exchange",
      "outputs": [
        {
          "internalType": "int256",
          "name": "",
          "type": "int256"
        }
      ],
      "stateMutability": "payable",
      "type": "function"
    },
    {
      "inputs": [
        {
          "internalType": "uint256",
          "name": "tokenId",
          "type": "uint256"
        }
      ],
      "name": "getApproved",
      "outputs": [
        {
          "internalType": "address",
          "name": "",
          "type": "address"
        }
      ],
      "stateMutability": "view",
      "type": "function"
    },
    {
      "inputs": [
        {
          "internalType": "uint256",
          "name": "_id",
          "type": "uint256"
        },
        {
          "components": [
            {
              "internalType": "address",
              "name": "operator",
              "type": "address"
            },
            {
              "internalType": "enum DNft.Permission[]",
              "name": "permissions",
              "type": "uint8[]"
            }
          ],
          "internalType": "struct DNft.PermissionSet[]",
          "name": "_permissionSets",
          "type": "tuple[]"
        }
      ],
      "name": "grant",
      "outputs": [],
      "stateMutability": "nonpayable",
      "type": "function"
    },
    {
      "inputs": [
        {
          "internalType": "uint256",
          "name": "id",
          "type": "uint256"
        },
        {
          "internalType": "address",
          "name": "operator",
          "type": "address"
        },
        {
          "internalType": "enum DNft.Permission",
          "name": "permission",
          "type": "uint8"
        }
      ],
      "name": "hasPermission",
      "outputs": [
        {
          "internalType": "bool",
          "name": "",
          "type": "bool"
        }
      ],
      "stateMutability": "view",
      "type": "function"
    },
    {
      "inputs": [
        {
          "internalType": "uint256",
          "name": "id",
          "type": "uint256"
        },
        {
          "internalType": "address",
          "name": "operator",
          "type": "address"
        },
        {
          "internalType": "enum DNft.Permission[]",
          "name": "permissions",
          "type": "uint8[]"
        }
      ],
      "name": "hasPermissions",
      "outputs": [
        {
          "internalType": "bool[]",
          "name": "_hasPermissions",
          "type": "bool[]"
        }
      ],
      "stateMutability": "view",
      "type": "function"
    },
    {
      "inputs": [
        {
          "internalType": "uint256",
          "name": "",
          "type": "uint256"
        },
        {
          "internalType": "uint256",
          "name": "",
          "type": "uint256"
        }
      ],
      "name": "idToClaimed",
      "outputs": [
        {
          "internalType": "bool",
          "name": "",
          "type": "bool"
        }
      ],
      "stateMutability": "view",
      "type": "function"
    },
    {
      "inputs": [
        {
          "internalType": "uint256",
          "name": "",
          "type": "uint256"
        }
      ],
      "name": "idToLastDeposit",
      "outputs": [
        {
          "internalType": "uint256",
          "name": "",
          "type": "uint256"
        }
      ],
      "stateMutability": "view",
      "type": "function"
    },
    {
      "inputs": [
        {
          "internalType": "uint256",
          "name": "",
          "type": "uint256"
        }
      ],
      "name": "idToNft",
      "outputs": [
        {
          "internalType": "uint256",
          "name": "xp",
          "type": "uint256"
        },
        {
          "internalType": "int256",
          "name": "deposit",
          "type": "int256"
        },
        {
          "internalType": "uint256",
          "name": "withdrawal",
          "type": "uint256"
        },
        {
          "internalType": "uint256",
          "name": "lastOwnershipChange",
          "type": "uint256"
        },
        {
          "internalType": "bool",
          "name": "isActive",
          "type": "bool"
        }
      ],
      "stateMutability": "view",
      "type": "function"
    },
    {
      "inputs": [
        {
          "internalType": "uint256",
          "name": "",
          "type": "uint256"
        },
        {
          "internalType": "address",
          "name": "",
          "type": "address"
        }
      ],
      "name": "idToNftPermission",
      "outputs": [
        {
          "internalType": "uint8",
          "name": "permissions",
          "type": "uint8"
        },
        {
          "internalType": "uint248",
          "name": "lastUpdated",
          "type": "uint248"
        }
      ],
      "stateMutability": "view",
      "type": "function"
    },
    {
      "inputs": [
        {
          "internalType": "address",
          "name": "owner",
          "type": "address"
        },
        {
          "internalType": "address",
          "name": "operator",
          "type": "address"
        }
      ],
      "name": "isApprovedForAll",
      "outputs": [
        {
          "internalType": "bool",
          "name": "",
          "type": "bool"
        }
      ],
      "stateMutability": "view",
      "type": "function"
    },
    {
      "inputs": [
        {
          "internalType": "uint256",
          "name": "id",
          "type": "uint256"
        },
        {
          "internalType": "address",
          "name": "to",
          "type": "address"
        }
      ],
      "name": "liquidate",
      "outputs": [],
      "stateMutability": "payable",
      "type": "function"
    },
    {
      "inputs": [],
      "name": "maxXp",
      "outputs": [
        {
          "internalType": "uint256",
          "name": "",
          "type": "uint256"
        }
      ],
      "stateMutability": "view",
      "type": "function"
    },
    {
      "inputs": [
        {
          "internalType": "address",
          "name": "to",
          "type": "address"
        }
      ],
      "name": "mint",
      "outputs": [
        {
          "internalType": "uint256",
          "name": "",
          "type": "uint256"
        }
      ],
      "stateMutability": "payable",
      "type": "function"
    },
    {
      "inputs": [
        {
          "internalType": "uint256",
          "name": "_from",
          "type": "uint256"
        },
        {
          "internalType": "uint256",
          "name": "_to",
          "type": "uint256"
        },
        {
          "internalType": "int256",
          "name": "_amount",
          "type": "int256"
        }
      ],
      "name": "move",
      "outputs": [],
      "stateMutability": "nonpayable",
      "type": "function"
    },
    {
      "inputs": [],
      "name": "name",
      "outputs": [
        {
          "internalType": "string",
          "name": "",
          "type": "string"
        }
      ],
      "stateMutability": "view",
      "type": "function"
    },
    {
      "inputs": [
        {
          "internalType": "uint256",
          "name": "tokenId",
          "type": "uint256"
        }
      ],
      "name": "ownerOf",
      "outputs": [
        {
          "internalType": "address",
          "name": "",
          "type": "address"
        }
      ],
      "stateMutability": "view",
      "type": "function"
    },
    {
      "inputs": [],
      "name": "prevDyadDelta",
      "outputs": [
        {
          "internalType": "int256",
          "name": "",
          "type": "int256"
        }
      ],
      "stateMutability": "view",
      "type": "function"
    },
    {
      "inputs": [],
      "name": "prevSyncedBlock",
      "outputs": [
        {
          "internalType": "uint256",
          "name": "",
          "type": "uint256"
        }
      ],
      "stateMutability": "view",
      "type": "function"
    },
    {
      "inputs": [
        {
          "internalType": "uint256",
          "name": "from",
          "type": "uint256"
        },
        {
          "internalType": "address",
          "name": "to",
          "type": "address"
        },
        {
          "internalType": "uint256",
          "name": "amount",
          "type": "uint256"
        }
      ],
      "name": "redeem",
      "outputs": [
        {
          "internalType": "uint256",
          "name": "",
          "type": "uint256"
        }
      ],
      "stateMutability": "nonpayable",
      "type": "function"
    },
    {
      "inputs": [
        {
          "internalType": "address",
          "name": "from",
          "type": "address"
        },
        {
          "internalType": "address",
          "name": "to",
          "type": "address"
        },
        {
          "internalType": "uint256",
          "name": "tokenId",
          "type": "uint256"
        }
      ],
      "name": "safeTransferFrom",
      "outputs": [],
      "stateMutability": "nonpayable",
      "type": "function"
    },
    {
      "inputs": [
        {
          "internalType": "address",
          "name": "from",
          "type": "address"
        },
        {
          "internalType": "address",
          "name": "to",
          "type": "address"
        },
        {
          "internalType": "uint256",
          "name": "tokenId",
          "type": "uint256"
        },
        {
          "internalType": "bytes",
          "name": "data",
          "type": "bytes"
        }
      ],
      "name": "safeTransferFrom",
      "outputs": [],
      "stateMutability": "nonpayable",
      "type": "function"
    },
    {
      "inputs": [
        {
          "internalType": "address",
          "name": "operator",
          "type": "address"
        },
        {
          "internalType": "bool",
          "name": "approved",
          "type": "bool"
        }
      ],
      "name": "setApprovalForAll",
      "outputs": [],
      "stateMutability": "nonpayable",
      "type": "function"
    },
    {
      "inputs": [
        {
          "internalType": "uint256",
          "name": "_from",
          "type": "uint256"
        },
        {
          "internalType": "uint256",
          "name": "_to",
          "type": "uint256"
        }
      ],
      "name": "snipe",
      "outputs": [
        {
          "internalType": "int256",
          "name": "",
          "type": "int256"
        }
      ],
      "stateMutability": "nonpayable",
      "type": "function"
    },
    {
      "inputs": [
        {
          "internalType": "bytes4",
          "name": "interfaceId",
          "type": "bytes4"
        }
      ],
      "name": "supportsInterface",
      "outputs": [
        {
          "internalType": "bool",
          "name": "",
          "type": "bool"
        }
      ],
      "stateMutability": "view",
      "type": "function"
    },
    {
      "inputs": [],
      "name": "symbol",
      "outputs": [
        {
          "internalType": "string",
          "name": "",
          "type": "string"
        }
      ],
      "stateMutability": "view",
      "type": "function"
    },
    {
      "inputs": [
        {
          "internalType": "uint256",
          "name": "id",
          "type": "uint256"
        }
      ],
      "name": "sync",
      "outputs": [
        {
          "internalType": "int256",
          "name": "",
          "type": "int256"
        }
      ],
      "stateMutability": "nonpayable",
      "type": "function"
    },
    {
      "inputs": [],
      "name": "syncedBlock",
      "outputs": [
        {
          "internalType": "uint256",
          "name": "",
          "type": "uint256"
        }
      ],
      "stateMutability": "view",
      "type": "function"
    },
    {
      "inputs": [],
      "name": "timeOfSync",
      "outputs": [
        {
          "internalType": "uint256",
          "name": "",
          "type": "uint256"
        }
      ],
      "stateMutability": "view",
      "type": "function"
    },
    {
      "inputs": [
        {
          "internalType": "uint256",
          "name": "index",
          "type": "uint256"
        }
      ],
      "name": "tokenByIndex",
      "outputs": [
        {
          "internalType": "uint256",
          "name": "",
          "type": "uint256"
        }
      ],
      "stateMutability": "view",
      "type": "function"
    },
    {
      "inputs": [
        {
          "internalType": "address",
          "name": "owner",
          "type": "address"
        },
        {
          "internalType": "uint256",
          "name": "index",
          "type": "uint256"
        }
      ],
      "name": "tokenOfOwnerByIndex",
      "outputs": [
        {
          "internalType": "uint256",
          "name": "",
          "type": "uint256"
        }
      ],
      "stateMutability": "view",
      "type": "function"
    },
    {
      "inputs": [
        {
          "internalType": "uint256",
          "name": "tokenId",
          "type": "uint256"
        }
      ],
      "name": "tokenURI",
      "outputs": [
        {
          "internalType": "string",
          "name": "",
          "type": "string"
        }
      ],
      "stateMutability": "view",
      "type": "function"
    },
    {
      "inputs": [],
      "name": "totalDeposit",
      "outputs": [
        {
          "internalType": "int256",
          "name": "",
          "type": "int256"
        }
      ],
      "stateMutability": "view",
      "type": "function"
    },
    {
      "inputs": [],
      "name": "totalSupply",
      "outputs": [
        {
          "internalType": "uint256",
          "name": "",
          "type": "uint256"
        }
      ],
      "stateMutability": "view",
      "type": "function"
    },
    {
      "inputs": [],
      "name": "totalXp",
      "outputs": [
        {
          "internalType": "uint256",
          "name": "",
          "type": "uint256"
        }
      ],
      "stateMutability": "view",
      "type": "function"
    },
    {
      "inputs": [
        {
          "internalType": "address",
          "name": "from",
          "type": "address"
        },
        {
          "internalType": "address",
          "name": "to",
          "type": "address"
        },
        {
          "internalType": "uint256",
          "name": "tokenId",
          "type": "uint256"
        }
      ],
      "name": "transferFrom",
      "outputs": [],
      "stateMutability": "nonpayable",
      "type": "function"
    },
    {
      "inputs": [
        {
          "internalType": "uint256",
          "name": "from",
          "type": "uint256"
        },
        {
          "internalType": "address",
          "name": "to",
          "type": "address"
        },
        {
          "internalType": "uint256",
          "name": "amount",
          "type": "uint256"
        }
      ],
      "name": "withdraw",
      "outputs": [
        {
          "internalType": "uint256",
          "name": "",
          "type": "uint256"
        }
      ],
      "stateMutability": "nonpayable",
      "type": "function"
    }
  ],
  "bytecode": {
    "object": "0x60e06040526001600a553480156200001657600080fd5b5060405162005608380380620056088339810160408190526200003991620009cb565b60405180604001604052806008815260200167111e58590813919560c21b815250604051806040016040528060048152602001631913919560e21b815250816000908162000088919062000b71565b50600162000097828262000b71565b5050601880546001600160a01b03808a166001600160a01b031992831617909255601980549289169290911691909117905550608084905260a083905260c0829052620000e362000192565b600b5560005b81518110156200018557600080620001238484815181106200010f576200010f62000c3d565b60200260200101516200020d60201b60201c565b6000918252601460209081526040928390208251815590820151600182015591810151600283015560608101516003830155608001516004909101805460ff1916911515919091179055508190506200017c8162000c69565b915050620000e9565b5050505050505062000d3a565b60195460408051633fabe5a360e21b815290516000926001600160a01b03169163feaf968c9160048083019260a09291908290030181865afa158015620001dd573d6000803e3d6000fd5b505050506040513d601f19601f8201168201806040525081019062000203919062000c9d565b5091949350505050565b6000620002446040518060a00160405280600081526020016000815260200160008152602001600081526020016000151581525090565b60006200025060085490565b90506080518110620002755760405163794bb39b60e01b815260040160405180910390fd5b62000281848262000341565b620002b66040518060a00160405280600081526020016000815260200160008152602001600081526020016000151581525090565b620002c4816103e8620004e6565b60405182906001600160a01b038716907f30385c845b448a36257a6a1716e6ad2e1bc2cbe333cde1e69fe849ad6511adfe90600090a3817fbed79548735be4d252e30687e5817f81bb3a0166f8f2656f162b2fd746c53ae16103e86040516200032f91815260200190565b60405180910390a29094909350915050565b6001600160a01b0382166200039d5760405162461bcd60e51b815260206004820181905260248201527f4552433732313a206d696e7420746f20746865207a65726f206164647265737360448201526064015b60405180910390fd5b6000818152600260205260409020546001600160a01b031615620004045760405162461bcd60e51b815260206004820152601c60248201527f4552433732313a20746f6b656e20616c7265616479206d696e74656400000000604482015260640162000394565b620004146000838360016200052c565b6000818152600260205260409020546001600160a01b0316156200047b5760405162461bcd60e51b815260206004820152601c60248201527f4552433732313a20746f6b656e20616c7265616479206d696e74656400000000604482015260640162000394565b6001600160a01b038216600081815260036020908152604080832080546001019055848352600290915280822080546001600160a01b0319168417905551839291907fddf252ad1be2c89b69c2b068fc378daa952ba7f163c4a11628f55a4df523b3ef908290a45050565b8082600001818151620004fa919062000cf2565b905250601354825111156200050f5781516013555b806012600082825462000523919062000cf2565b90915550505050565b62000545848484846200056560201b62002a811760201c565b506000908152601460205260409020436003909101555050565b50505050565b6200057e84848484620006c960201b62002bc11760201c565b6001811115620005f75760405162461bcd60e51b815260206004820152603560248201527f455243373231456e756d657261626c653a20636f6e736563757469766520747260448201527f616e7366657273206e6f7420737570706f727465640000000000000000000000606482015260840162000394565b816001600160a01b03851662000656576200065081600880546000838152600960205260408120829055600182018355919091527ff3f7a9fe364faab93b216da50a3214154f22a0a2b415b23a84c8169e8b636ee30155565b6200067c565b836001600160a01b0316856001600160a01b0316146200067c576200067c858262000758565b6001600160a01b0384166200069c57620006968162000805565b620006c2565b846001600160a01b0316846001600160a01b031614620006c257620006c28482620008bf565b5050505050565b60018111156200055f576001600160a01b0384161562000713576001600160a01b038416600090815260036020526040812080548392906200070d90849062000d0e565b90915550505b6001600160a01b038316156200055f576001600160a01b038316600090815260036020526040812080548392906200074d90849062000cf2565b909155505050505050565b6000600162000772846200091060201b6200179b1760201c565b6200077e919062000d0e565b600083815260076020526040902054909150808214620007d2576001600160a01b03841660009081526006602090815260408083208584528252808320548484528184208190558352600790915290208190555b5060009182526007602090815260408084208490556001600160a01b039094168352600681528383209183525290812055565b600854600090620008199060019062000d0e565b6000838152600960205260408120546008805493945090928490811062000844576200084462000c3d565b90600052602060002001549050806008838154811062000868576200086862000c3d565b6000918252602080832090910192909255828152600990915260408082208490558582528120556008805480620008a357620008a362000d24565b6001900381819060005260206000200160009055905550505050565b6000620008d7836200091060201b6200179b1760201c565b6001600160a01b039093166000908152600660209081526040808320868452825280832085905593825260079052919091209190915550565b60006001600160a01b0382166200097c5760405162461bcd60e51b815260206004820152602960248201527f4552433732313a2061646472657373207a65726f206973206e6f7420612076616044820152683634b21037bbb732b960b91b606482015260840162000394565b506001600160a01b031660009081526003602052604090205490565b80516001600160a01b0381168114620009b057600080fd5b919050565b634e487b7160e01b600052604160045260246000fd5b60008060008060008060c08789031215620009e557600080fd5b620009f08762000998565b9550602062000a0181890162000998565b604089015160608a015160808b015160a08c0151939950919750955093506001600160401b038082111562000a3557600080fd5b818a0191508a601f83011262000a4a57600080fd5b81518181111562000a5f5762000a5f620009b5565b8060051b604051601f19603f8301168101818110858211171562000a875762000a87620009b5565b60405291825284820192508381018501918d83111562000aa657600080fd5b938501935b8285101562000acf5762000abf8562000998565b8452938501939285019262000aab565b8096505050505050509295509295509295565b600181811c9082168062000af757607f821691505b60208210810362000b1857634e487b7160e01b600052602260045260246000fd5b50919050565b601f82111562000b6c57600081815260208120601f850160051c8101602086101562000b475750805b601f850160051c820191505b8181101562000b685782815560010162000b53565b5050505b505050565b81516001600160401b0381111562000b8d5762000b8d620009b5565b62000ba58162000b9e845462000ae2565b8462000b1e565b602080601f83116001811462000bdd576000841562000bc45750858301515b600019600386901b1c1916600185901b17855562000b68565b600085815260208120601f198616915b8281101562000c0e5788860151825594840194600190910190840162000bed565b508582101562000c2d5787850151600019600388901b60f8161c191681555b5050505050600190811b01905550565b634e487b7160e01b600052603260045260246000fd5b634e487b7160e01b600052601160045260246000fd5b60006001820162000c7e5762000c7e62000c53565b5060010190565b80516001600160501b0381168114620009b057600080fd5b600080600080600060a0868803121562000cb657600080fd5b62000cc18662000c85565b945060208601519350604086015192506060860151915062000ce66080870162000c85565b90509295509295909350565b8082018082111562000d085762000d0862000c53565b92915050565b8181038181111562000d085762000d0862000c53565b634e487b7160e01b600052603160045260246000fd5b60805160a05160c05161488962000d7f60003960008181610648015261169101526000818161046e0152611c4301526000818161056c015261333001526148896000f3fe60806040526004361061036b5760003560e01c80636220347e116101c6578063bc1ac5bb116100f7578063e2bbb15811610095578063e985e9c51161006f578063e985e9c514610a82578063f6153ccd14610acb578063febb16df14610ae1578063ff186b2e14610af757600080fd5b8063e2bbb15814610a2c578063e63697c814610a4c578063e644669114610a6c57600080fd5b8063d4912507116100d1578063d4912507146109c0578063d8780161146109d6578063de1eecb3146109f6578063decb84dc14610a1657600080fd5b8063bc1ac5bb14610970578063c784cbe614610986578063c87b56dd146109a057600080fd5b806395d89b4111610164578063add95a511161013e578063add95a51146108f0578063b1357bf914610910578063b260c42a14610930578063b88d4fde1461095057600080fd5b806395d89b41146108a1578063a22cb465146108b6578063aadfdcc2146108d657600080fd5b806370a08231116101a057806370a0823114610821578063823abfd914610841578063916b9bef14610861578063959526191461088157600080fd5b80636220347e146107c15780636352211e146107ee5780636a6278421461080e57600080fd5b806335f2faf0116102a05780634b2ec8ee1161023e57806353556559116102185780635355655914610752578063551e123b146107655780635982dc29146107925780635fae8b3d146107ae57600080fd5b80634b2ec8ee1461053f5780634ddc77c8146107175780634f6ccce71461073257600080fd5b8063397b80241161027a578063397b802414610636578063413217b71461066a57806342842e0e14610680578063483afb2d146106a057600080fd5b806335f2faf01461058e57806336416455146105aa578063379607f51461061657600080fd5b806318160ddd1161030d578063265f63a1116102e7578063265f63a1146105095780632f745c591461051f5780633295787f1461053f57806332cb6b0c1461055a57600080fd5b806318160ddd146104b45780631849c73a146104c957806323b872dd146104e957600080fd5b8063081812fc11610349578063081812fc14610402578063095ea7b31461043a5780630ba4ae301461045c57806310d4f96d1461049e57600080fd5b8063019e242e1461037057806301ffc9a7146103c057806306fdde03146103e0575b600080fd5b34801561037c57600080fd5b506103ab61038b366004613d56565b601660209081526000928352604080842090915290825290205460ff1681565b60405190151581526020015b60405180910390f35b3480156103cc57600080fd5b506103ab6103db366004613d8e565b610b0d565b3480156103ec57600080fd5b506103f5610b38565b6040516103b79190613dfb565b34801561040e57600080fd5b5061042261041d366004613e0e565b610bca565b6040516001600160a01b0390911681526020016103b7565b34801561044657600080fd5b5061045a610455366004613e43565b610bf1565b005b34801561046857600080fd5b506104907f000000000000000000000000000000000000000000000000000000000000000081565b6040519081526020016103b7565b3480156104aa57600080fd5b5061049060125481565b3480156104c057600080fd5b50600854610490565b3480156104d557600080fd5b5061045a6104e4366004613e6d565b610d0b565b3480156104f557600080fd5b5061045a610504366004613e99565b610df3565b34801561051557600080fd5b50610490600c5481565b34801561052b57600080fd5b5061049061053a366004613e43565b610e24565b34801561054b57600080fd5b5061049066016bcc41e9000081565b34801561056657600080fd5b506104907f000000000000000000000000000000000000000000000000000000000000000081565b34801561059a57600080fd5b506104906714d1120d7b16000081565b3480156105b657600080fd5b506105f56105c5366004613ed5565b601560209081526000928352604080842090915290825290205460ff81169061010090046001600160f81b031682565b6040805160ff90931683526001600160f81b039091166020830152016103b7565b34801561062257600080fd5b50610490610631366004613e0e565b610eba565b34801561064257600080fd5b506104907f000000000000000000000000000000000000000000000000000000000000000081565b34801561067657600080fd5b5061049060135481565b34801561068c57600080fd5b5061045a61069b366004613e99565b61111b565b3480156106ac57600080fd5b506106ed6106bb366004613e0e565b601460205260009081526040902080546001820154600283015460038401546004909401549293919290919060ff1685565b6040805195865260208601949094529284019190915260608301521515608082015260a0016103b7565b34801561072357600080fd5b50610490660110d9316ec00081565b34801561073e57600080fd5b5061049061074d366004613e0e565b611136565b610490610760366004613e0e565b6111c9565b34801561077157600080fd5b50610785610780366004613f46565b6112d5565b6040516103b79190613fa0565b34801561079e57600080fd5b50610490670853a0d2313c000081565b61045a6107bc366004613ed5565b611465565b3480156107cd57600080fd5b506104906107dc366004613e0e565b60176020526000908152604090205481565b3480156107fa57600080fd5b50610422610809366004613e0e565b611621565b61049061081c366004613fe6565b611681565b34801561082d57600080fd5b5061049061083c366004613fe6565b61179b565b34801561084d57600080fd5b506103ab61085c366004614010565b611821565b34801561086d57600080fd5b5061045a61087c366004613e0e565b6118d8565b34801561088d57600080fd5b5061045a61089c36600461404c565b6119ff565b3480156108ad57600080fd5b506103f5611b57565b3480156108c257600080fd5b5061045a6108d1366004614098565b611b66565b3480156108e257600080fd5b5061049065b5e620f4800081565b3480156108fc57600080fd5b50601854610422906001600160a01b031681565b34801561091c57600080fd5b5061049061092b366004613e0e565b611b75565b34801561093c57600080fd5b5061045a61094b366004613e0e565b611e37565b34801561095c57600080fd5b5061045a61096b366004614144565b611ef0565b34801561097c57600080fd5b50610490600e5481565b34801561099257600080fd5b50610490655af3107a400081565b3480156109ac57600080fd5b506103f56109bb366004613e0e565b611f28565b3480156109cc57600080fd5b50610490600f5481565b3480156109e257600080fd5b506104906109f1366004614204565b611f9b565b348015610a0257600080fd5b50610490610a11366004613d56565b61217b565b348015610a2257600080fd5b50610490600d5481565b348015610a3857600080fd5b5061045a610a47366004613d56565b6125df565b348015610a5857600080fd5b50610490610a67366004614204565b61277f565b348015610a7857600080fd5b5061049060105481565b348015610a8e57600080fd5b506103ab610a9d366004614229565b6001600160a01b03918216600090815260056020908152604080832093909416825291909152205460ff1690565b348015610ad757600080fd5b5061049060115481565b348015610aed57600080fd5b506104906103e881565b348015610b0357600080fd5b50610490600b5481565b60006001600160e01b0319821663780e9d6360e01b1480610b325750610b3282612c49565b92915050565b606060008054610b4790614253565b80601f0160208091040260200160405190810160405280929190818152602001828054610b7390614253565b8015610bc05780601f10610b9557610100808354040283529160200191610bc0565b820191906000526020600020905b815481529060010190602001808311610ba357829003601f168201915b5050505050905090565b6000610bd582612c99565b506000908152600460205260409020546001600160a01b031690565b6000610bfc82611621565b9050806001600160a01b0316836001600160a01b031603610c6e5760405162461bcd60e51b815260206004820152602160248201527f4552433732313a20617070726f76616c20746f2063757272656e74206f776e656044820152603960f91b60648201526084015b60405180910390fd5b336001600160a01b0382161480610c8a5750610c8a8133610a9d565b610cfc5760405162461bcd60e51b815260206004820152603d60248201527f4552433732313a20617070726f76652063616c6c6572206973206e6f7420746f60448201527f6b656e206f776e6572206f7220617070726f76656420666f7220616c6c0000006064820152608401610c65565b610d068383612cfb565b505050565b826004610d19823383611821565b610d3a57818160405163acb8d02d60e01b8152600401610c659291906142bf565b60008313610d4757600080fd5b60008581526014602052604090206001810154841315610d82578060010154604051631be6b37360e21b8152600401610c6591815260200190565b60018082018054869003905560008681526014602052604081209091018054869290610daf9084906142e9565b9091555050604051848152859087907fecf7a2a9b87e864721b005a74148c7e41af15fa580f04024f55a5902b32e556e9060200160405180910390a3505050505050565b610dfd3382612d69565b610e195760405162461bcd60e51b8152600401610c6590614309565b610d06838383612de7565b6000610e2f8361179b565b8210610e915760405162461bcd60e51b815260206004820152602b60248201527f455243373231456e756d657261626c653a206f776e657220696e646578206f7560448201526a74206f6620626f756e647360a81b6064820152608401610c65565b506001600160a01b03919091166000908152600660209081526040808320938352929052205490565b600081815260146020526040812060040154829060ff1615158203610ef557604051632080e3d360e01b815260048101829052602401610c65565b826007610f03823383611821565b610f2457818160405163acb8d02d60e01b8152600401610c659291906142bf565b6000858152601660209081526040808320600f54845290915290205460ff1615610f6f57600f54604051636bd4745f60e01b8152610c65918791600401918252602082015260400190565b6000858152601660209081526040808320600f5484528252808320805460ff1916600190811790915588845260148352818420825160a0810184528154815291810154938201939093526002830154918101919091526003820154606082015260049091015460ff16151560808201529080610ff0655af3107a4000612f58565b90506000600c54131561101057611009600c5484612fed565b9150611031565b600061101e600c5485613073565b909350905061102d8183614356565b9150505b818360200181815161104391906142e9565b9052506011805483919060009061105b9084906142e9565b9091555061106b90508382613258565b876000805160206148348339815191528260405161108b91815260200190565b60405180910390a2600088815260146020908152604091829020855181558582015160018201558583015160028201556060860151600382015560808601516004909101805460ff1916911515919091179055905183815289917f80d2137c01c20957d2640ac104067c27bdfb6f6405d354a50e4e0663dbfd3406910160405180910390a2509695505050505050565b610d0683838360405180602001604052806000815250611ef0565b600061114160085490565b82106111a45760405162461bcd60e51b815260206004820152602c60248201527f455243373231456e756d657261626c653a20676c6f62616c20696e646578206f60448201526b7574206f6620626f756e647360a01b6064820152608401610c65565b600882815481106111b7576111b7614369565b90600052602060002001549050919050565b60008160026111d9823383611821565b6111fa57818160405163acb8d02d60e01b8152600401610c659291906142bf565b600084815260146020526040812060040154859160ff9091161515900361123757604051632080e3d360e01b815260048101829052602401610c65565b600085815260176020526040812043905561125134613299565b90508060146000888152602001908152602001600020600101600082825461127991906142e9565b92505081905550806011600082825461129291906142e9565b909155505060405181815286907ff99ef896dbec5c9f8ed65fcd703b977e36f533d2dbe0f54b055724102c66935b9060200160405180910390a295945050505050565b60608167ffffffffffffffff8111156112f0576112f06140d4565b604051908082528060200260200182016040528015611319578160200160208202803683370190505b509050836001600160a01b031661132f86611621565b6001600160a01b0316036113845760005b8281101561137e57600182828151811061135c5761135c614369565b91151560209283029190910190910152806113768161437f565b915050611340565b5061145d565b60008581526015602090815260408083206001600160a01b0388168452825280832081518083018352905460ff8116825261010090046001600160f81b03168184018190528985526014909352922060030154101561145b5760005b838110156114595761141d8585838181106113fd576113fd614369565b90506020020160208101906114129190614398565b835160ff16906132be565b1561144757600183828151811061143657611436614369565b911515602092830291909101909101525b806114518161437f565b9150506113e0565b505b505b949350505050565b6000828152601460209081526040808320815160a081018352815481526001820154938101849052600282015492810192909252600381015460608301526004015460ff16151560808201529181126114d457604051634fd4b9f760e01b815260048101859052602401610c65565b60006114df34613299565b90506114ed826000196143b3565b81121561151057604051630e874cb160e41b815260048101829052602401610c65565b600061152266016bcc41e90000612f58565b905061152e8482613258565b856000805160206148348339815191528260405161154e91815260200190565b60405180910390a2818460200181815161156891906142e9565b905250601180548391906000906115809084906142e9565b9091555050600086815260146020908152604091829020865181559086015160018201559085015160028201556060850151600382015560808501516004909101805460ff19169115159190911790556115e36115dc87611621565b8688612de7565b60405186906001600160a01b038716907fa5ee7a2b0254fce91deed604506790ed7fa072d0b14cba4859c3bc8955b9caac90600090a3505050505050565b6000818152600260205260408120546001600160a01b031680610b325760405162461bcd60e51b8152602060048201526018602482015277115490cdcc8c4e881a5b9d985b1a59081d1bdad95b88125160421b6044820152606401610c65565b60008061168d34613299565b90507f00000000000000000000000000000000000000000000000000000000000000008112156116d357604051633e0432ef60e01b815260048101829052602401610c65565b6000806116df856132eb565b915091508281602001818152505082601160008282546116ff91906142e9565b909155508290507f06da3309189fa49284f335d2c2bcb4cb0b8ad2a59ad92a9bdebeeb8f1ceba51161173085613422565b60405190815260200160405180910390a26001608082018181526000848152601460209081526040918290208551815590850151938101939093558301516002830155606090920151600382015590516004909101805460ff19169115159190911790559392505050565b60006001600160a01b0382166118055760405162461bcd60e51b815260206004820152602960248201527f4552433732313a2061646472657373207a65726f206973206e6f7420612076616044820152683634b21037bbb732b960b91b6064820152608401610c65565b506001600160a01b031660009081526003602052604090205490565b6000826001600160a01b031661183685611621565b6001600160a01b03160361184c575060016118d1565b60008481526015602090815260408083206001600160a01b038716845282529182902082518084019093525460ff81168084526101009091046001600160f81b03169183019190915261189f90846132be565b80156118cd575080602001516001600160f81b03166014600087815260200190815260200160002060030154105b9150505b9392505050565b600081815260146020526040812060040154829160ff9091161515900361191557604051632080e3d360e01b815260048101829052602401610c65565b816001611923823383611821565b61194457818160405163acb8d02d60e01b8152600401610c659291906142bf565b60008481526014602052604090206002015415611977576040516339d0e29960e01b815260048101859052602401610c65565b600084815260146020526040812060010154136119a6576040516207c73960e71b815260040160405180910390fd5b60008481526014602052604090819020600401805460ff19169055517fed48e4e899b34abded07dd8f092a22585a3fdec7db6b83f3927af165bf04cb1e906119f19086815260200190565b60405180910390a150505050565b8233611a0a82611621565b6001600160a01b031614611a345760405163d64dfb0160e01b815260048101829052602401610c65565b4360005b83811015611b14576000858583818110611a5457611a54614369565b9050602002810190611a6691906143e3565b611a6f90614403565b9050806020015151600003611aa757600087815260156020908152604080832084516001600160a01b03168452909152812055611b0b565b6040518060400160405280611abf8360200151613478565b60ff90811682526001600160f81b0380871660209384015260008b815260158452604080822087516001600160a01b031683528552902084519490930151166101000292169190911790555b50600101611a38565b507f5015559e4f379aa0dd2effee572c916b09bb68ed41ad9ab127c8066f052e1643858585604051611b48939291906144cb565b60405180910390a15050505050565b606060018054610b4790614253565b611b713383836134c6565b5050565b600081815260146020526040812060040154829060ff1615158203611bb057604051632080e3d360e01b815260048101829052602401610c65565b601854604080516318160ddd60e01b815290516000926001600160a01b0316916318160ddd9160048083019260209291908290030181865afa158015611bfa573d6000803e3d6000fd5b505050506040513d601f19601f82011682018060405250810190611c1e91906145db565b905080600003611c4157604051632a8ef6b160e11b815260040160405180910390fd5b7f0000000000000000000000000000000000000000000000000000000000000000600e54611c6f9190614356565b421015611c8f576040516334490f5560e11b815260040160405180910390fd5b6000611c99613594565b9050600b548103611cbd57604051639f5333e960e01b815260040160405180910390fd5b6000611cd8600b5483611cd091906145f4565b600b5461360c565b9050611cec611ce684613630565b8261369a565b600c819055600d5542600e55600b829055600f80546010554390556000868152601460209081526040808320815160a08101835281548152600182015493810193909352600281015491830191909152600381015460608301526004015460ff161515608082015290611d77611d61846136bf565b611d729066016bcc41e90000614356565b612f58565b9050611d838282613258565b8760008051602061483483398151915282604051611da391815260200190565b60405180910390a2600088815260146020908152604091829020845181558482015160018201558483015160028201556060850151600382015560808501516004909101805460ff191691151591909117905590518981527fff14d8520387b9b85d2a017dc41ae15db04a22d4c67deac04eb45048631ffa86910160405180910390a1600c54965050505050505b50919050565b600081815260146020526040902060040154819060ff161515600103611e73576040516307e1313160e11b815260048101829052602401610c65565b816000611e81823383611821565b611ea257818160405163acb8d02d60e01b8152600401610c659291906142bf565b60008481526014602052604090819020600401805460ff19166001179055517f3ec796be1be7d03bff3a62b9fa594a60e947c1809bced06d929f145308ae57ce906119f19086815260200190565b611efa3383612d69565b611f165760405162461bcd60e51b8152600401610c6590614309565b611f22848484846136d2565b50505050565b6060611f3382612c99565b6000611f4a60408051602081019091526000815290565b90506000815111611f6a57604051806020016040528060008152506118d1565b80611f7484613705565b604051602001611f8592919061461b565b6040516020818303038152906040529392505050565b6000600a54600114611fdc5760405162461bcd60e51b815260206004820152600a6024820152695245454e5452414e435960b01b6044820152606401610c65565b6002600a55600084815260146020526040812060040154859160ff9091161515900361201e57604051632080e3d360e01b815260048101829052602401610c65565b84600661202c823383611821565b61204d57818160405163acb8d02d60e01b8152600401610c659291906142bf565b601854604051632770a7eb60e21b8152336004820152602481018790526001600160a01b0390911690639dc29fac90604401600060405180830381600087803b15801561209957600080fd5b505af11580156120ad573d6000803e3d6000fd5b505050600088815260146020526040902060028101549091508611156120e95760405163056c862560e41b815260048101879052602401610c65565b60028101805487900390556000612106612101613594565b613422565b612114886305f5e10061464a565b61211e9190614677565b90506121336001600160a01b03891682613798565b604051878152899033907ff3a670cd3af7d64b488926880889d08a8585a138ff455227af6737339a1ec2629060200160405180910390a36001600a5598975050505050505050565b600082815260146020526040812060040154839060ff16151582036121b657604051632080e3d360e01b815260048101829052602401610c65565b600083815260146020526040812060040154849160ff909116151590036121f357604051632080e3d360e01b815260048101829052602401610c65565b838503612213576040516335a787ff60e21b815260040160405180910390fd5b6000858152601660209081526040808320601054845290915290205460ff1615612250576040516375798c0d60e01b815260040160405180910390fd5b6001601660008781526020019081526020016000206000601054815260200190815260200160002060006101000a81548160ff0219169083151502179055506000601460008781526020019081526020016000206040518060a0016040529081600082015481526020016001820154815260200160028201548152602001600382015481526020016004820160009054906101000a900460ff16151515158152505090506000601460008781526020019081526020016000206040518060a0016040529081600082015481526020016001820154815260200160028201548152602001600382015481526020016004820160009054906101000a900460ff1615151515815250509050600080600d54131561241b57612371600d5484612fed565b905061239681612391670853a0d2313c0000670de0b6b3a76400006145f4565b61369a565b836020018181516123a791906142e9565b9052506123bc81670853a0d2313c000061369a565b826020018181516123cd91906142e9565b90525060006123e165b5e620f48000612f58565b90506123ed8382613258565b876000805160206148348339815191528260405161240d91815260200190565b60405180910390a2506124c0565b6000612429600d5485613073565b60208601805192945090925083916124429083906142e9565b90525061244f8482613258565b886000805160206148348339815191528260405161246f91815260200190565b60405180910390a26000612489660110d9316ec000612f58565b90506124958482613258565b88600080516020614834833981519152826040516124b591815260200190565b60405180910390a250505b80601160008282546124d291906142e9565b9250508190555082601460008a81526020019081526020016000206000820151816000015560208201518160010155604082015181600201556060820151816003015560808201518160040160006101000a81548160ff02191690831515021790555090505081601460008981526020019081526020016000206000820151816000015560208201518160010155604082015181600201556060820151816003015560808201518160040160006101000a81548160ff02191690831515021790555090505086887f0e7d191e2306ac0b4fbf5a2cb60c28ddb5a0507bd6dc06322d0d1ea0925eabd7836040516125ca91815260200190565b60405180910390a3945050505b505092915050565b8160036125ed823383611821565b61260e57818160405163acb8d02d60e01b8152600401610c659291906142bf565b600084815260146020526040812060040154859160ff9091161515900361264b57604051632080e3d360e01b815260048101829052602401610c65565b600085815260146020526040902060028101548511156126815760405163056c862560e41b815260048101869052602401610c65565b600086815260176020526040908190204390556018549051632770a7eb60e21b8152336004820152602481018790526001600160a01b0390911690639dc29fac90604401600060405180830381600087803b1580156126df57600080fd5b505af11580156126f3573d6000803e3d6000fd5b505050600282018054879003905550600061270d86613630565b90508082600101600082825461272391906142e9565b92505081905550806011600082825461273c91906142e9565b909155505060405186815287907f06da3309189fa49284f335d2c2bcb4cb0b8ad2a59ad92a9bdebeeb8f1ceba5119060200160405180910390a250505050505050565b600083815260146020526040812060040154849060ff16151582036127ba57604051632080e3d360e01b815260048101829052602401610c65565b8460056127c8823383611821565b6127e957818160405163acb8d02d60e01b8152600401610c659291906142bf565b6000878152601760205260409020544390036128185760405163fd1ba31d60e01b815260040160405180910390fd5b6000878152601460205260409020600181015461283487613630565b131561285b578060010154604051631be6b37360e21b8152600401610c6591815260200190565b6000612868612101613594565b6128766305f5e10047614677565b612880919061464a565b9050600061291088601860009054906101000a90046001600160a01b03166001600160a01b03166318160ddd6040518163ffffffff1660e01b8152600401602060405180830381865afa1580156128db573d6000803e3d6000fd5b505050506040513d601f19601f820116820180604052508101906128ff91906145db565b6129099190614356565b83906137e9565b90506714d1120d7b16000081101561293e5760405163f51aaf6560e01b815260048101829052602401610c65565b600061294960085490565b6129539084614677565b905060008985600201546129679190614356565b90508181111561298d57604051630dd16eb960e41b815260048101839052602401610c65565b60006129988b613630565b60018701805482900390556011805491925082916000906129ba9084906145f4565b9091555050600286018290556018546040516340c10f1960e01b81526001600160a01b038e81166004830152602482018e9052909116906340c10f1990604401600060405180830381600087803b158015612a1457600080fd5b505af1158015612a28573d6000803e3d6000fd5b505050508b6001600160a01b03168d7fcf7d23a3cbe4e8b36ff82fd1b05b1b17373dc7804b4ebbd6e2356716ef2023728d604051612a6891815260200190565b60405180910390a350919b9a5050505050505050505050565b612a8d84848484612bc1565b6001811115612afc5760405162461bcd60e51b815260206004820152603560248201527f455243373231456e756d657261626c653a20636f6e7365637574697665207472604482015274185b9cd9995c9cc81b9bdd081cdd5c1c1bdc9d1959605a1b6064820152608401610c65565b816001600160a01b038516612b5857612b5381600880546000838152600960205260408120829055600182018355919091527ff3f7a9fe364faab93b216da50a3214154f22a0a2b415b23a84c8169e8b636ee30155565b612b7b565b836001600160a01b0316856001600160a01b031614612b7b57612b7b85826137fe565b6001600160a01b038416612b9757612b928161389b565b612bba565b846001600160a01b0316846001600160a01b031614612bba57612bba848261394a565b5050505050565b6001811115611f22576001600160a01b03841615612c07576001600160a01b03841660009081526003602052604081208054839290612c0190849061468b565b90915550505b6001600160a01b03831615611f22576001600160a01b03831660009081526003602052604081208054839290612c3e908490614356565b909155505050505050565b60006001600160e01b031982166380ac58cd60e01b1480612c7a57506001600160e01b03198216635b5e139f60e01b145b80610b3257506301ffc9a760e01b6001600160e01b0319831614610b32565b6000818152600260205260409020546001600160a01b0316612cf85760405162461bcd60e51b8152602060048201526018602482015277115490cdcc8c4e881a5b9d985b1a59081d1bdad95b88125160421b6044820152606401610c65565b50565b600081815260046020526040902080546001600160a01b0319166001600160a01b0384169081179091558190612d3082611621565b6001600160a01b03167f8c5be1e5ebec7d5bd14f71427d1e84f3dd0314c0f7b2291e5b200ac8c7c3b92560405160405180910390a45050565b600080612d7583611621565b9050806001600160a01b0316846001600160a01b03161480612dbc57506001600160a01b0380821660009081526005602090815260408083209388168352929052205460ff165b8061145d5750836001600160a01b0316612dd584610bca565b6001600160a01b031614949350505050565b826001600160a01b0316612dfa82611621565b6001600160a01b031614612e205760405162461bcd60e51b8152600401610c659061469e565b6001600160a01b038216612e825760405162461bcd60e51b8152602060048201526024808201527f4552433732313a207472616e7366657220746f20746865207a65726f206164646044820152637265737360e01b6064820152608401610c65565b612e8f838383600161398e565b826001600160a01b0316612ea282611621565b6001600160a01b031614612ec85760405162461bcd60e51b8152600401610c659061469e565b600081815260046020908152604080832080546001600160a01b03199081169091556001600160a01b0387811680865260038552838620805460001901905590871680865283862080546001019055868652600290945282852080549092168417909155905184937fddf252ad1be2c89b69c2b068fc378daa952ba7f163c4a11628f55a4df523b3ef91a4505050565b6000662386f26fc10000612fe383601860009054906101000a90046001600160a01b03166001600160a01b03166318160ddd6040518163ffffffff1660e01b8152600401602060405180830381865afa158015612fb9573d6000803e3d6000fd5b505050506040513d601f19601f82011682018060405250810190612fdd91906145db565b906139b4565b610b329190614677565b60008082602001511215613013576040516207c73960e71b815260040160405180910390fd5b601254825160009161302591906137e9565b90506000613039846020015160115461360c565b9050600060028261304985613630565b61305391906142e9565b61305d91906146e3565b9050613069868261369a565b9695505050505050565b60008060008360200151121561309b576040516207c73960e71b815260040160405180910390fd5b60135483516000916130ad91906137e9565b60125485519192506000916130c1916137e9565b905060006130cf83836137e9565b905060006130de601154613422565b601860009054906101000a90046001600160a01b03166001600160a01b03166318160ddd6040518163ffffffff1660e01b8152600401602060405180830381865afa158015613131573d6000803e3d6000fd5b505050506040513d601f19601f8201168201806040525081019061315591906145db565b61315f9190614356565b90506000613189826131748a60200151613422565b8a604001516131839190614356565b906137e9565b9050600061319f86670de0b6b3a764000061468b565b905060006131db6131d6866131b360085490565b6131c590670de0b6b3a764000061464a565b6131cf919061468b565b84906137e9565b613630565b90506002816131e985613630565b6131f391906142e9565b6131fd91906146e3565b9050600061320b828d61369a565b905066b1a2bc2ec50000600061322d613224838c614356565b613183856136bf565b905082613242670de0b6b3a764000083614677565b9b509b50505050505050505050505b9250929050565b808260000181815161326a9190614356565b9052506013548251111561327e5781516013555b80601260008282546132909190614356565b90915550505050565b60006132a3613594565b6132b46131d66305f5e10085614677565b610b3291906143b3565b6000808260078111156132d3576132d3614287565b600160ff9182161b9490941690931615159392505050565b60006133216040518060a00160405280600081526020016000815260200160008152602001600081526020016000151581525090565b600061332c60085490565b90507f0000000000000000000000000000000000000000000000000000000000000000811061336e5760405163794bb39b60e01b815260040160405180910390fd5b61337884826139c9565b6133ac6040518060a00160405280600081526020016000815260200160008152602001600081526020016000151581525090565b6133b8816103e8613258565b60405182906001600160a01b038716907f30385c845b448a36257a6a1716e6ad2e1bc2cbe333cde1e69fe849ad6511adfe90600090a3816000805160206148348339815191526103e860405161341091815260200190565b60405180910390a29094909350915050565b6000808212156134745760405162461bcd60e51b815260206004820181905260248201527f53616665436173743a2076616c7565206d75737420626520706f7369746976656044820152606401610c65565b5090565b6000805b8251811015611e315782818151811061349757613497614369565b602002602001015160078111156134b0576134b0614287565b600160ff9190911681901b92909217910161347c565b816001600160a01b0316836001600160a01b0316036135275760405162461bcd60e51b815260206004820152601960248201527f4552433732313a20617070726f766520746f2063616c6c6572000000000000006044820152606401610c65565b6001600160a01b03838116600081815260056020908152604080832094871680845294825291829020805460ff191686151590811790915591519182527f17307eab39ab6107e8899845ad3d59bd9653f200f220920489ca2b5937696c31910160405180910390a3505050565b60195460408051633fabe5a360e21b815290516000926001600160a01b03169163feaf968c9160048083019260a09291908290030181865afa1580156135de573d6000803e3d6000fd5b505050506040513d601f19601f82011682018060405250810190613602919061472b565b5091949350505050565b670de0b6b3a764000082810290810583148215151661362a57600080fd5b05919050565b60006001600160ff1b038211156134745760405162461bcd60e51b815260206004820152602860248201527f53616665436173743a2076616c756520646f65736e27742066697420696e2061604482015267371034b73a191a9b60c11b6064820152608401610c65565b81810282158382058314176136ae57600080fd5b670de0b6b3a7640000900592915050565b6000808212156134745781600003610b32565b6136dd848484612de7565b6136e984848484613b62565b611f225760405162461bcd60e51b8152600401610c659061477b565b6060600061371283613c60565b600101905060008167ffffffffffffffff811115613732576137326140d4565b6040519080825280601f01601f19166020018201604052801561375c576020820181803683370190505b5090508181016020015b600019016f181899199a1a9b1b9c1cb0b131b232b360811b600a86061a8153600a850494508461376657509392505050565b600080600080600085875af1905080610d065760405162461bcd60e51b815260206004820152601360248201527211551217d514905394d1915497d19052531151606a1b6044820152606401610c65565b60006118d183670de0b6b3a764000084613d38565b6000600161380b8461179b565b613815919061468b565b600083815260076020526040902054909150808214613868576001600160a01b03841660009081526006602090815260408083208584528252808320548484528184208190558352600790915290208190555b5060009182526007602090815260408084208490556001600160a01b039094168352600681528383209183525290812055565b6008546000906138ad9060019061468b565b600083815260096020526040812054600880549394509092849081106138d5576138d5614369565b9060005260206000200154905080600883815481106138f6576138f6614369565b600091825260208083209091019290925582815260099091526040808220849055858252812055600880548061392e5761392e6147cd565b6001900381819060005260206000200160009055905550505050565b60006139558361179b565b6001600160a01b039093166000908152600660209081526040808320868452825280832085905593825260079052919091209190915550565b61399a84848484612a81565b506000908152601460205260409020436003909101555050565b60006118d18383670de0b6b3a7640000613d38565b6001600160a01b038216613a1f5760405162461bcd60e51b815260206004820181905260248201527f4552433732313a206d696e7420746f20746865207a65726f20616464726573736044820152606401610c65565b6000818152600260205260409020546001600160a01b031615613a845760405162461bcd60e51b815260206004820152601c60248201527f4552433732313a20746f6b656e20616c7265616479206d696e746564000000006044820152606401610c65565b613a9260008383600161398e565b6000818152600260205260409020546001600160a01b031615613af75760405162461bcd60e51b815260206004820152601c60248201527f4552433732313a20746f6b656e20616c7265616479206d696e746564000000006044820152606401610c65565b6001600160a01b038216600081815260036020908152604080832080546001019055848352600290915280822080546001600160a01b0319168417905551839291907fddf252ad1be2c89b69c2b068fc378daa952ba7f163c4a11628f55a4df523b3ef908290a45050565b60006001600160a01b0384163b15613c5857604051630a85bd0160e11b81526001600160a01b0385169063150b7a0290613ba69033908990889088906004016147e3565b6020604051808303816000875af1925050508015613be1575060408051601f3d908101601f19168201909252613bde91810190614816565b60015b613c3e573d808015613c0f576040519150601f19603f3d011682016040523d82523d6000602084013e613c14565b606091505b508051600003613c365760405162461bcd60e51b8152600401610c659061477b565b805181602001fd5b6001600160e01b031916630a85bd0160e11b14905061145d565b50600161145d565b60008072184f03e93ff9f4daa797ed6e38ed64bf6a1f0160401b8310613c9f5772184f03e93ff9f4daa797ed6e38ed64bf6a1f0160401b830492506040015b6d04ee2d6d415b85acef81000000008310613ccb576d04ee2d6d415b85acef8100000000830492506020015b662386f26fc100008310613ce957662386f26fc10000830492506010015b6305f5e1008310613d01576305f5e100830492506008015b6127108310613d1557612710830492506004015b60648310613d27576064830492506002015b600a8310610b325760010192915050565b6000826000190484118302158202613d4f57600080fd5b5091020490565b60008060408385031215613d6957600080fd5b50508035926020909101359150565b6001600160e01b031981168114612cf857600080fd5b600060208284031215613da057600080fd5b81356118d181613d78565b60005b83811015613dc6578181015183820152602001613dae565b50506000910152565b60008151808452613de7816020860160208601613dab565b601f01601f19169290920160200192915050565b6020815260006118d16020830184613dcf565b600060208284031215613e2057600080fd5b5035919050565b80356001600160a01b0381168114613e3e57600080fd5b919050565b60008060408385031215613e5657600080fd5b613e5f83613e27565b946020939093013593505050565b600080600060608486031215613e8257600080fd5b505081359360208301359350604090920135919050565b600080600060608486031215613eae57600080fd5b613eb784613e27565b9250613ec560208501613e27565b9150604084013590509250925092565b60008060408385031215613ee857600080fd5b82359150613ef860208401613e27565b90509250929050565b60008083601f840112613f1357600080fd5b50813567ffffffffffffffff811115613f2b57600080fd5b6020830191508360208260051b850101111561325157600080fd5b60008060008060608587031215613f5c57600080fd5b84359350613f6c60208601613e27565b9250604085013567ffffffffffffffff811115613f8857600080fd5b613f9487828801613f01565b95989497509550505050565b6020808252825182820181905260009190848201906040850190845b81811015613fda578351151583529284019291840191600101613fbc565b50909695505050505050565b600060208284031215613ff857600080fd5b6118d182613e27565b803560088110613e3e57600080fd5b60008060006060848603121561402557600080fd5b8335925061403560208501613e27565b915061404360408501614001565b90509250925092565b60008060006040848603121561406157600080fd5b83359250602084013567ffffffffffffffff81111561407f57600080fd5b61408b86828701613f01565b9497909650939450505050565b600080604083850312156140ab57600080fd5b6140b483613e27565b9150602083013580151581146140c957600080fd5b809150509250929050565b634e487b7160e01b600052604160045260246000fd5b6040805190810167ffffffffffffffff8111828210171561410d5761410d6140d4565b60405290565b604051601f8201601f1916810167ffffffffffffffff8111828210171561413c5761413c6140d4565b604052919050565b6000806000806080858703121561415a57600080fd5b61416385613e27565b93506020614172818701613e27565b935060408601359250606086013567ffffffffffffffff8082111561419657600080fd5b818801915088601f8301126141aa57600080fd5b8135818111156141bc576141bc6140d4565b6141ce601f8201601f19168501614113565b915080825289848285010111156141e457600080fd5b808484018584013760008482840101525080935050505092959194509250565b60008060006060848603121561421957600080fd5b83359250613ec560208501613e27565b6000806040838503121561423c57600080fd5b61424583613e27565b9150613ef860208401613e27565b600181811c9082168061426757607f821691505b602082108103611e3157634e487b7160e01b600052602260045260246000fd5b634e487b7160e01b600052602160045260246000fd5b600881106142bb57634e487b7160e01b600052602160045260246000fd5b9052565b828152604081016118d1602083018461429d565b634e487b7160e01b600052601160045260246000fd5b80820182811260008312801582168215821617156125d7576125d76142d3565b6020808252602d908201527f4552433732313a2063616c6c6572206973206e6f7420746f6b656e206f776e6560408201526c1c881bdc88185c1c1c9bdd9959609a1b606082015260800190565b80820180821115610b3257610b326142d3565b634e487b7160e01b600052603260045260246000fd5b600060018201614391576143916142d3565b5060010190565b6000602082840312156143aa57600080fd5b6118d182614001565b80820260008212600160ff1b841416156143cf576143cf6142d3565b8181058314821517610b3257610b326142d3565b60008235603e198336030181126143f957600080fd5b9190910192915050565b60006040823603121561441557600080fd5b61441d6140ea565b61442683613e27565b815260208084013567ffffffffffffffff8082111561444457600080fd5b9085019036601f83011261445757600080fd5b813581811115614469576144696140d4565b8060051b915061447a848301614113565b818152918301840191848101903684111561449457600080fd5b938501935b838510156144b9576144aa85614001565b82529385019390850190614499565b94860194909452509295945050505050565b8381526040602080830182905282820184905260009190606090818501600587811b8701840189875b8a8110156145ca57898303605f190185528135368d9003603e1901811261451a57600080fd5b8c018389016001600160a01b0361453083613e27565b16855287820135601e1983360301811261454957600080fd5b90910187810191903567ffffffffffffffff81111561456757600080fd5b80871b360383131561457857600080fd5b8589018b9052908190526000908986015b818310156145b5576145a38161459e86614001565b61429d565b92890192600192909201918901614589565b978901979550505091860191506001016144f4565b50909b9a5050505050505050505050565b6000602082840312156145ed57600080fd5b5051919050565b8181036000831280158383131683831282161715614614576146146142d3565b5092915050565b6000835161462d818460208801613dab565b835190830190614641818360208801613dab565b01949350505050565b8082028115828204841417610b3257610b326142d3565b634e487b7160e01b600052601260045260246000fd5b60008261468657614686614661565b500490565b81810381811115610b3257610b326142d3565b60208082526025908201527f4552433732313a207472616e736665722066726f6d20696e636f72726563742060408201526437bbb732b960d91b606082015260800190565b6000826146f2576146f2614661565b600160ff1b82146000198414161561470c5761470c6142d3565b500590565b805169ffffffffffffffffffff81168114613e3e57600080fd5b600080600080600060a0868803121561474357600080fd5b61474c86614711565b945060208601519350604086015192506060860151915061476f60808701614711565b90509295509295909350565b60208082526032908201527f4552433732313a207472616e7366657220746f206e6f6e20455243373231526560408201527131b2b4bb32b91034b6b83632b6b2b73a32b960711b606082015260800190565b634e487b7160e01b600052603160045260246000fd5b6001600160a01b038581168252841660208201526040810183905260806060820181905260009061306990830184613dcf565b60006020828403121561482857600080fd5b81516118d181613d7856febed79548735be4d252e30687e5817f81bb3a0166f8f2656f162b2fd746c53ae1a2646970667358221220a3ea2bd2610e78e1b5e9c1e92f9a8c0d685761ce9353075d95661e89c431071064736f6c63430008110033",
    "linkReferences": {}
  },
  "methodIdentifiers": {
    "MAX_SUPPLY()": "32cb6b0c",
    "MIN_COLLATERIZATION_RATIO()": "35f2faf0",
    "MIN_MINT_DYAD_DEPOSIT()": "397b8024",
    "MIN_TIME_BETWEEN_SYNC()": "0ba4ae30",
    "SNIPE_MINT_SHARE_REWARD()": "5982dc29",
    "XP_CLAIM_REWARD()": "c784cbe6",
    "XP_LIQUIDATION_REWARD()": "4b2ec8ee",
    "XP_MINT_REWARD()": "febb16df",
    "XP_SNIPE_BURN_REWARD()": "4ddc77c8",
    "XP_SNIPE_MINT_REWARD()": "aadfdcc2",
    "XP_SYNC_REWARD()": "3295787f",
    "activate(uint256)": "b260c42a",
    "approve(address,uint256)": "095ea7b3",
    "balanceOf(address)": "70a08231",
    "claim(uint256)": "379607f5",
    "deactivate(uint256)": "916b9bef",
    "deposit(uint256,uint256)": "e2bbb158",
    "dyad()": "add95a51",
    "dyadDelta()": "265f63a1",
    "ethPrice()": "ff186b2e",
    "exchange(uint256)": "53556559",
    "getApproved(uint256)": "081812fc",
    "grant(uint256,(address,uint8[])[])": "95952619",
    "hasPermission(uint256,address,uint8)": "823abfd9",
    "hasPermissions(uint256,address,uint8[])": "551e123b",
    "idToClaimed(uint256,uint256)": "019e242e",
    "idToLastDeposit(uint256)": "6220347e",
    "idToNft(uint256)": "483afb2d",
    "idToNftPermission(uint256,address)": "36416455",
    "isApprovedForAll(address,address)": "e985e9c5",
    "liquidate(uint256,address)": "5fae8b3d",
    "maxXp()": "413217b7",
    "mint(address)": "6a627842",
    "move(uint256,uint256,int256)": "1849c73a",
    "name()": "06fdde03",
    "ownerOf(uint256)": "6352211e",
    "prevDyadDelta()": "decb84dc",
    "prevSyncedBlock()": "e6446691",
    "redeem(uint256,address,uint256)": "d8780161",
    "safeTransferFrom(address,address,uint256)": "42842e0e",
    "safeTransferFrom(address,address,uint256,bytes)": "b88d4fde",
    "setApprovalForAll(address,bool)": "a22cb465",
    "snipe(uint256,uint256)": "de1eecb3",
    "supportsInterface(bytes4)": "01ffc9a7",
    "symbol()": "95d89b41",
    "sync(uint256)": "b1357bf9",
    "syncedBlock()": "d4912507",
    "timeOfSync()": "bc1ac5bb",
    "tokenByIndex(uint256)": "4f6ccce7",
    "tokenOfOwnerByIndex(address,uint256)": "2f745c59",
    "tokenURI(uint256)": "c87b56dd",
    "totalDeposit()": "f6153ccd",
    "totalSupply()": "18160ddd",
    "totalXp()": "10d4f96d",
    "transferFrom(address,address,uint256)": "23b872dd",
    "withdraw(uint256,address,uint256)": "e63697c8"
  },
  "id": 40
}