{
  "abi": [
    {
      "inputs": [
        {
          "internalType": "address",
          "name": "_dyad",
          "type": "address"
        },
        {
          "internalType": "address",
          "name": "_oracle",
          "type": "address"
        },
        {
          "internalType": "uint256",
          "name": "_maxSupply",
          "type": "uint256"
        },
        {
          "internalType": "uint256",
          "name": "_minTimeBetweenSync",
          "type": "uint256"
        },
        {
          "internalType": "int256",
          "name": "_minMintDyadDeposit",
          "type": "int256"
        },
        {
          "internalType": "address[]",
          "name": "_insiders",
          "type": "address[]"
        }
      ],
      "stateMutability": "nonpayable",
      "type": "constructor"
    },
    {
      "inputs": [
        {
          "internalType": "uint256",
          "name": "id",
          "type": "uint256"
        },
        {
          "internalType": "uint256",
          "name": "syncedBlock",
          "type": "uint256"
        }
      ],
      "name": "AlreadyClaimed",
      "type": "error"
    },
    {
      "inputs": [],
      "name": "AlreadySniped",
      "type": "error"
    },
    {
      "inputs": [],
      "name": "CannotSnipeSelf",
      "type": "error"
    },
    {
      "inputs": [
        {
          "internalType": "uint256",
          "name": "cr",
          "type": "uint256"
        }
      ],
      "name": "CrTooLow",
      "type": "error"
    },
    {
      "inputs": [
        {
          "internalType": "uint256",
          "name": "id",
          "type": "uint256"
        }
      ],
      "name": "DNftDoesNotExist",
      "type": "error"
    },
    {
      "inputs": [],
      "name": "DepositIsNegative",
      "type": "error"
    },
    {
      "inputs": [],
      "name": "DepositTooLow",
      "type": "error"
    },
    {
      "inputs": [],
      "name": "DepositedInSameBlock",
      "type": "error"
    },
    {
      "inputs": [],
      "name": "DyadTotalSupplyZero",
      "type": "error"
    },
    {
      "inputs": [],
      "name": "EthPriceUnchanged",
      "type": "error"
    },
    {
      "inputs": [
        {
          "internalType": "uint256",
          "name": "averageTVL",
          "type": "uint256"
        }
      ],
      "name": "ExceedsAverageTVL",
      "type": "error"
    },
    {
      "inputs": [
        {
          "internalType": "int256",
          "name": "deposit",
          "type": "int256"
        }
      ],
      "name": "ExceedsDeposit",
      "type": "error"
    },
    {
      "inputs": [
        {
          "internalType": "uint256",
          "name": "amount",
          "type": "uint256"
        }
      ],
      "name": "ExceedsWithdrawal",
      "type": "error"
    },
    {
      "inputs": [
        {
          "internalType": "uint256",
          "name": "id",
          "type": "uint256"
        }
      ],
      "name": "IsActive",
      "type": "error"
    },
    {
      "inputs": [
        {
          "internalType": "uint256",
          "name": "id",
          "type": "uint256"
        }
      ],
      "name": "IsInactive",
      "type": "error"
    },
    {
      "inputs": [],
      "name": "MaxSupply",
      "type": "error"
    },
    {
      "inputs": [
        {
          "internalType": "uint256",
          "name": "id",
          "type": "uint256"
        },
        {
          "internalType": "enum DNft.Permission",
          "name": "permission",
          "type": "uint8"
        }
      ],
      "name": "MissingPermission",
      "type": "error"
    },
    {
      "inputs": [],
      "name": "NotLiquidatable",
      "type": "error"
    },
    {
      "inputs": [
        {
          "internalType": "uint256",
          "name": "id",
          "type": "uint256"
        }
      ],
      "name": "NotNFTOwner",
      "type": "error"
    },
    {
      "inputs": [],
      "name": "SyncTooSoon",
      "type": "error"
    },
    {
      "inputs": [
        {
          "internalType": "uint256",
          "name": "id",
          "type": "uint256"
        }
      ],
      "name": "WithdrawalsNotZero",
      "type": "error"
    },
    {
      "anonymous": false,
      "inputs": [
        {
          "indexed": true,
          "internalType": "address",
          "name": "owner",
          "type": "address"
        },
        {
          "indexed": true,
          "internalType": "address",
          "name": "approved",
          "type": "address"
        },
        {
          "indexed": true,
          "internalType": "uint256",
          "name": "tokenId",
          "type": "uint256"
        }
      ],
      "name": "Approval",
      "type": "event"
    },
    {
      "anonymous": false,
      "inputs": [
        {
          "indexed": true,
          "internalType": "address",
          "name": "owner",
          "type": "address"
        },
        {
          "indexed": true,
          "internalType": "address",
          "name": "operator",
          "type": "address"
        },
        {
          "indexed": false,
          "internalType": "bool",
          "name": "approved",
          "type": "bool"
        }
      ],
      "name": "ApprovalForAll",
      "type": "event"
    },
    {
      "anonymous": false,
      "inputs": [
        {
          "indexed": true,
          "internalType": "uint256",
          "name": "id",
          "type": "uint256"
        },
        {
          "indexed": false,
          "internalType": "int256",
          "name": "share",
          "type": "int256"
        }
      ],
      "name": "Claimed",
      "type": "event"
    },
    {
      "anonymous": false,
      "inputs": [
        {
          "indexed": true,
          "internalType": "uint256",
          "name": "id",
          "type": "uint256"
        },
        {
          "indexed": false,
          "internalType": "int256",
          "name": "deposit",
          "type": "int256"
        }
      ],
      "name": "DepositUpdated",
      "type": "event"
    },
    {
      "anonymous": false,
      "inputs": [
        {
          "indexed": true,
          "internalType": "uint256",
          "name": "id",
          "type": "uint256"
        },
        {
          "indexed": false,
          "internalType": "uint256",
          "name": "amount",
          "type": "uint256"
        }
      ],
      "name": "Deposited",
      "type": "event"
    },
    {
      "anonymous": false,
      "inputs": [
        {
          "indexed": true,
          "internalType": "uint256",
          "name": "id",
          "type": "uint256"
        },
        {
          "indexed": false,
          "internalType": "int256",
          "name": "amount",
          "type": "int256"
        }
      ],
      "name": "Exchanged",
      "type": "event"
    },
    {
      "anonymous": false,
      "inputs": [
        {
          "indexed": true,
          "internalType": "uint256",
          "name": "id",
          "type": "uint256"
        },
        {
          "indexed": false,
          "internalType": "bool",
          "name": "isActive",
          "type": "bool"
        }
      ],
      "name": "IsActiveUpdated",
      "type": "event"
    },
    {
      "anonymous": false,
      "inputs": [
        {
          "indexed": true,
          "internalType": "address",
          "name": "to",
          "type": "address"
        },
        {
          "indexed": true,
          "internalType": "uint256",
          "name": "id",
          "type": "uint256"
        }
      ],
      "name": "Liquidated",
      "type": "event"
    },
    {
      "anonymous": false,
      "inputs": [
        {
          "indexed": true,
          "internalType": "address",
          "name": "to",
          "type": "address"
        },
        {
          "indexed": true,
          "internalType": "uint256",
          "name": "id",
          "type": "uint256"
        }
      ],
      "name": "Minted",
      "type": "event"
    },
    {
      "anonymous": false,
      "inputs": [
        {
          "indexed": true,
          "internalType": "uint256",
          "name": "id",
          "type": "uint256"
        },
        {
          "components": [
            {
              "internalType": "address",
              "name": "operator",
              "type": "address"
            },
            {
              "internalType": "enum DNft.Permission[]",
              "name": "permissions",
              "type": "uint8[]"
            }
          ],
          "indexed": false,
          "internalType": "struct DNft.PermissionSet[]",
          "name": "permissions",
          "type": "tuple[]"
        }
      ],
      "name": "Modified",
      "type": "event"
    },
    {
      "anonymous": false,
      "inputs": [
        {
          "indexed": true,
          "internalType": "uint256",
          "name": "from",
          "type": "uint256"
        },
        {
          "indexed": true,
          "internalType": "uint256",
          "name": "to",
          "type": "uint256"
        },
        {
          "indexed": false,
          "internalType": "int256",
          "name": "amount",
          "type": "int256"
        }
      ],
      "name": "Moved",
      "type": "event"
    },
    {
      "anonymous": false,
      "inputs": [
        {
          "indexed": true,
          "internalType": "address",
          "name": "to",
          "type": "address"
        },
        {
          "indexed": true,
          "internalType": "uint256",
          "name": "id",
          "type": "uint256"
        },
        {
          "indexed": false,
          "internalType": "uint256",
          "name": "amount",
          "type": "uint256"
        }
      ],
      "name": "Redeemed",
      "type": "event"
    },
    {
      "anonymous": false,
      "inputs": [
        {
          "indexed": true,
          "internalType": "uint256",
          "name": "from",
          "type": "uint256"
        },
        {
          "indexed": true,
          "internalType": "uint256",
          "name": "to",
          "type": "uint256"
        },
        {
          "indexed": false,
          "internalType": "int256",
          "name": "share",
          "type": "int256"
        }
      ],
      "name": "Sniped",
      "type": "event"
    },
    {
      "anonymous": false,
      "inputs": [
        {
          "indexed": false,
          "internalType": "uint256",
          "name": "id",
          "type": "uint256"
        }
      ],
      "name": "Synced",
      "type": "event"
    },
    {
      "anonymous": false,
      "inputs": [
        {
          "indexed": true,
          "internalType": "address",
          "name": "from",
          "type": "address"
        },
        {
          "indexed": true,
          "internalType": "address",
          "name": "to",
          "type": "address"
        },
        {
          "indexed": true,
          "internalType": "uint256",
          "name": "tokenId",
          "type": "uint256"
        }
      ],
      "name": "Transfer",
      "type": "event"
    },
    {
      "anonymous": false,
      "inputs": [
        {
          "indexed": true,
          "internalType": "uint256",
          "name": "id",
          "type": "uint256"
        },
        {
          "indexed": false,
          "internalType": "uint256",
          "name": "withdrawal",
          "type": "uint256"
        }
      ],
      "name": "WithdrawalUpdated",
      "type": "event"
    },
    {
      "anonymous": false,
      "inputs": [
        {
          "indexed": true,
          "internalType": "uint256",
          "name": "from",
          "type": "uint256"
        },
        {
          "indexed": true,
          "internalType": "address",
          "name": "to",
          "type": "address"
        },
        {
          "indexed": false,
          "internalType": "uint256",
          "name": "amount",
          "type": "uint256"
        }
      ],
      "name": "Withdrawn",
      "type": "event"
    },
    {
      "anonymous": false,
      "inputs": [
        {
          "indexed": true,
          "internalType": "uint256",
          "name": "id",
          "type": "uint256"
        },
        {
          "indexed": false,
          "internalType": "uint256",
          "name": "xp",
          "type": "uint256"
        }
      ],
      "name": "XpUpdated",
      "type": "event"
    },
    {
      "inputs": [],
      "name": "MAX_SUPPLY",
      "outputs": [
        {
          "internalType": "uint256",
          "name": "",
          "type": "uint256"
        }
      ],
      "stateMutability": "view",
      "type": "function"
    },
    {
      "inputs": [],
      "name": "MIN_COLLATERIZATION_RATIO",
      "outputs": [
        {
          "internalType": "uint256",
          "name": "",
          "type": "uint256"
        }
      ],
      "stateMutability": "view",
      "type": "function"
    },
    {
      "inputs": [],
      "name": "MIN_MINT_DYAD_DEPOSIT",
      "outputs": [
        {
          "internalType": "int256",
          "name": "",
          "type": "int256"
        }
      ],
      "stateMutability": "view",
      "type": "function"
    },
    {
      "inputs": [],
      "name": "MIN_TIME_BETWEEN_SYNC",
      "outputs": [
        {
          "internalType": "uint256",
          "name": "",
          "type": "uint256"
        }
      ],
      "stateMutability": "view",
      "type": "function"
    },
    {
      "inputs": [],
      "name": "SNIPE_MINT_SHARE_REWARD",
      "outputs": [
        {
          "internalType": "int256",
          "name": "",
          "type": "int256"
        }
      ],
      "stateMutability": "view",
      "type": "function"
    },
    {
      "inputs": [],
      "name": "XP_CLAIM_REWARD",
      "outputs": [
        {
          "internalType": "uint256",
          "name": "",
          "type": "uint256"
        }
      ],
      "stateMutability": "view",
      "type": "function"
    },
    {
      "inputs": [],
      "name": "XP_LIQUIDATION_REWARD",
      "outputs": [
        {
          "internalType": "uint256",
          "name": "",
          "type": "uint256"
        }
      ],
      "stateMutability": "view",
      "type": "function"
    },
    {
      "inputs": [],
      "name": "XP_MINT_REWARD",
      "outputs": [
        {
          "internalType": "uint256",
          "name": "",
          "type": "uint256"
        }
      ],
      "stateMutability": "view",
      "type": "function"
    },
    {
      "inputs": [],
      "name": "XP_SNIPE_BURN_REWARD",
      "outputs": [
        {
          "internalType": "uint256",
          "name": "",
          "type": "uint256"
        }
      ],
      "stateMutability": "view",
      "type": "function"
    },
    {
      "inputs": [],
      "name": "XP_SNIPE_MINT_REWARD",
      "outputs": [
        {
          "internalType": "uint256",
          "name": "",
          "type": "uint256"
        }
      ],
      "stateMutability": "view",
      "type": "function"
    },
    {
      "inputs": [],
      "name": "XP_SYNC_REWARD",
      "outputs": [
        {
          "internalType": "uint256",
          "name": "",
          "type": "uint256"
        }
      ],
      "stateMutability": "view",
      "type": "function"
    },
    {
      "inputs": [
        {
          "internalType": "uint256",
          "name": "id",
          "type": "uint256"
        }
      ],
      "name": "activate",
      "outputs": [],
      "stateMutability": "nonpayable",
      "type": "function"
    },
    {
      "inputs": [
        {
          "internalType": "address",
          "name": "to",
          "type": "address"
        },
        {
          "internalType": "uint256",
          "name": "tokenId",
          "type": "uint256"
        }
      ],
      "name": "approve",
      "outputs": [],
      "stateMutability": "nonpayable",
      "type": "function"
    },
    {
      "inputs": [
        {
          "internalType": "address",
          "name": "owner",
          "type": "address"
        }
      ],
      "name": "balanceOf",
      "outputs": [
        {
          "internalType": "uint256",
          "name": "",
          "type": "uint256"
        }
      ],
      "stateMutability": "view",
      "type": "function"
    },
    {
      "inputs": [
        {
          "internalType": "uint256",
          "name": "id",
          "type": "uint256"
        }
      ],
      "name": "claim",
      "outputs": [
        {
          "internalType": "int256",
          "name": "",
          "type": "int256"
        }
      ],
      "stateMutability": "nonpayable",
      "type": "function"
    },
    {
      "inputs": [
        {
          "internalType": "uint256",
          "name": "id",
          "type": "uint256"
        }
      ],
      "name": "deactivate",
      "outputs": [],
      "stateMutability": "nonpayable",
      "type": "function"
    },
    {
      "inputs": [
        {
          "internalType": "uint256",
          "name": "id",
          "type": "uint256"
        },
        {
          "internalType": "uint256",
          "name": "amount",
          "type": "uint256"
        }
      ],
      "name": "deposit",
      "outputs": [],
      "stateMutability": "nonpayable",
      "type": "function"
    },
    {
      "inputs": [],
      "name": "dyad",
      "outputs": [
        {
          "internalType": "contract Dyad",
          "name": "",
          "type": "address"
        }
      ],
      "stateMutability": "view",
      "type": "function"
    },
    {
      "inputs": [],
      "name": "dyadDelta",
      "outputs": [
        {
          "internalType": "int256",
          "name": "",
          "type": "int256"
        }
      ],
      "stateMutability": "view",
      "type": "function"
    },
    {
      "inputs": [],
      "name": "ethPrice",
      "outputs": [
        {
          "internalType": "int256",
          "name": "",
          "type": "int256"
        }
      ],
      "stateMutability": "view",
      "type": "function"
    },
    {
      "inputs": [
        {
          "internalType": "uint256",
          "name": "id",
          "type": "uint256"
        }
      ],
      "name": "exchange",
      "outputs": [
        {
          "internalType": "int256",
          "name": "",
          "type": "int256"
        }
      ],
      "stateMutability": "payable",
      "type": "function"
    },
    {
      "inputs": [
        {
          "internalType": "uint256",
          "name": "tokenId",
          "type": "uint256"
        }
      ],
      "name": "getApproved",
      "outputs": [
        {
          "internalType": "address",
          "name": "",
          "type": "address"
        }
      ],
      "stateMutability": "view",
      "type": "function"
    },
    {
      "inputs": [
        {
          "internalType": "uint256",
          "name": "_id",
          "type": "uint256"
        },
        {
          "components": [
            {
              "internalType": "address",
              "name": "operator",
              "type": "address"
            },
            {
              "internalType": "enum DNft.Permission[]",
              "name": "permissions",
              "type": "uint8[]"
            }
          ],
          "internalType": "struct DNft.PermissionSet[]",
          "name": "_permissionSets",
          "type": "tuple[]"
        }
      ],
      "name": "grant",
      "outputs": [],
      "stateMutability": "nonpayable",
      "type": "function"
    },
    {
      "inputs": [
        {
          "internalType": "uint256",
          "name": "id",
          "type": "uint256"
        },
        {
          "internalType": "address",
          "name": "operator",
          "type": "address"
        },
        {
          "internalType": "enum DNft.Permission",
          "name": "permission",
          "type": "uint8"
        }
      ],
      "name": "hasPermission",
      "outputs": [
        {
          "internalType": "bool",
          "name": "",
          "type": "bool"
        }
      ],
      "stateMutability": "view",
      "type": "function"
    },
    {
      "inputs": [
        {
          "internalType": "uint256",
          "name": "id",
          "type": "uint256"
        },
        {
          "internalType": "address",
          "name": "operator",
          "type": "address"
        },
        {
          "internalType": "enum DNft.Permission[]",
          "name": "permissions",
          "type": "uint8[]"
        }
      ],
      "name": "hasPermissions",
      "outputs": [
        {
          "internalType": "bool[]",
          "name": "_hasPermissions",
          "type": "bool[]"
        }
      ],
      "stateMutability": "view",
      "type": "function"
    },
    {
      "inputs": [
        {
          "internalType": "uint256",
          "name": "",
          "type": "uint256"
        },
        {
          "internalType": "uint256",
          "name": "",
          "type": "uint256"
        }
      ],
      "name": "idToClaimed",
      "outputs": [
        {
          "internalType": "bool",
          "name": "",
          "type": "bool"
        }
      ],
      "stateMutability": "view",
      "type": "function"
    },
    {
      "inputs": [
        {
          "internalType": "uint256",
          "name": "",
          "type": "uint256"
        }
      ],
      "name": "idToLastDeposit",
      "outputs": [
        {
          "internalType": "uint256",
          "name": "",
          "type": "uint256"
        }
      ],
      "stateMutability": "view",
      "type": "function"
    },
    {
      "inputs": [
        {
          "internalType": "uint256",
          "name": "",
          "type": "uint256"
        }
      ],
      "name": "idToNft",
      "outputs": [
        {
          "internalType": "uint256",
          "name": "xp",
          "type": "uint256"
        },
        {
          "internalType": "int256",
          "name": "deposit",
          "type": "int256"
        },
        {
          "internalType": "uint256",
          "name": "withdrawal",
          "type": "uint256"
        },
        {
          "internalType": "uint256",
          "name": "lastOwnershipChange",
          "type": "uint256"
        },
        {
          "internalType": "bool",
          "name": "isActive",
          "type": "bool"
        }
      ],
      "stateMutability": "view",
      "type": "function"
    },
    {
      "inputs": [
        {
          "internalType": "uint256",
          "name": "",
          "type": "uint256"
        },
        {
          "internalType": "address",
          "name": "",
          "type": "address"
        }
      ],
      "name": "idToNftPermission",
      "outputs": [
        {
          "internalType": "uint8",
          "name": "permissions",
          "type": "uint8"
        },
        {
          "internalType": "uint248",
          "name": "lastUpdated",
          "type": "uint248"
        }
      ],
      "stateMutability": "view",
      "type": "function"
    },
    {
      "inputs": [
        {
          "internalType": "address",
          "name": "owner",
          "type": "address"
        },
        {
          "internalType": "address",
          "name": "operator",
          "type": "address"
        }
      ],
      "name": "isApprovedForAll",
      "outputs": [
        {
          "internalType": "bool",
          "name": "",
          "type": "bool"
        }
      ],
      "stateMutability": "view",
      "type": "function"
    },
    {
      "inputs": [
        {
          "internalType": "uint256",
          "name": "id",
          "type": "uint256"
        },
        {
          "internalType": "address",
          "name": "to",
          "type": "address"
        }
      ],
      "name": "liquidate",
      "outputs": [],
      "stateMutability": "payable",
      "type": "function"
    },
    {
      "inputs": [],
      "name": "maxXp",
      "outputs": [
        {
          "internalType": "uint256",
          "name": "",
          "type": "uint256"
        }
      ],
      "stateMutability": "view",
      "type": "function"
    },
    {
      "inputs": [
        {
          "internalType": "address",
          "name": "to",
          "type": "address"
        }
      ],
      "name": "mint",
      "outputs": [
        {
          "internalType": "uint256",
          "name": "",
          "type": "uint256"
        }
      ],
      "stateMutability": "payable",
      "type": "function"
    },
    {
      "inputs": [
        {
          "internalType": "uint256",
          "name": "_from",
          "type": "uint256"
        },
        {
          "internalType": "uint256",
          "name": "_to",
          "type": "uint256"
        },
        {
          "internalType": "int256",
          "name": "amount",
          "type": "int256"
        }
      ],
      "name": "move",
      "outputs": [],
      "stateMutability": "nonpayable",
      "type": "function"
    },
    {
      "inputs": [],
      "name": "name",
      "outputs": [
        {
          "internalType": "string",
          "name": "",
          "type": "string"
        }
      ],
      "stateMutability": "view",
      "type": "function"
    },
    {
      "inputs": [
        {
          "internalType": "uint256",
          "name": "tokenId",
          "type": "uint256"
        }
      ],
      "name": "ownerOf",
      "outputs": [
        {
          "internalType": "address",
          "name": "",
          "type": "address"
        }
      ],
      "stateMutability": "view",
      "type": "function"
    },
    {
      "inputs": [],
      "name": "prevDyadDelta",
      "outputs": [
        {
          "internalType": "int256",
          "name": "",
          "type": "int256"
        }
      ],
      "stateMutability": "view",
      "type": "function"
    },
    {
      "inputs": [],
      "name": "prevSyncedBlock",
      "outputs": [
        {
          "internalType": "uint256",
          "name": "",
          "type": "uint256"
        }
      ],
      "stateMutability": "view",
      "type": "function"
    },
    {
      "inputs": [
        {
          "internalType": "uint256",
          "name": "from",
          "type": "uint256"
        },
        {
          "internalType": "address",
          "name": "to",
          "type": "address"
        },
        {
          "internalType": "uint256",
          "name": "amount",
          "type": "uint256"
        }
      ],
      "name": "redeem",
      "outputs": [
        {
          "internalType": "uint256",
          "name": "",
          "type": "uint256"
        }
      ],
      "stateMutability": "nonpayable",
      "type": "function"
    },
    {
      "inputs": [
        {
          "internalType": "address",
          "name": "from",
          "type": "address"
        },
        {
          "internalType": "address",
          "name": "to",
          "type": "address"
        },
        {
          "internalType": "uint256",
          "name": "tokenId",
          "type": "uint256"
        }
      ],
      "name": "safeTransferFrom",
      "outputs": [],
      "stateMutability": "nonpayable",
      "type": "function"
    },
    {
      "inputs": [
        {
          "internalType": "address",
          "name": "from",
          "type": "address"
        },
        {
          "internalType": "address",
          "name": "to",
          "type": "address"
        },
        {
          "internalType": "uint256",
          "name": "tokenId",
          "type": "uint256"
        },
        {
          "internalType": "bytes",
          "name": "data",
          "type": "bytes"
        }
      ],
      "name": "safeTransferFrom",
      "outputs": [],
      "stateMutability": "nonpayable",
      "type": "function"
    },
    {
      "inputs": [
        {
          "internalType": "address",
          "name": "operator",
          "type": "address"
        },
        {
          "internalType": "bool",
          "name": "approved",
          "type": "bool"
        }
      ],
      "name": "setApprovalForAll",
      "outputs": [],
      "stateMutability": "nonpayable",
      "type": "function"
    },
    {
      "inputs": [
        {
          "internalType": "uint256",
          "name": "_from",
          "type": "uint256"
        },
        {
          "internalType": "uint256",
          "name": "_to",
          "type": "uint256"
        }
      ],
      "name": "snipe",
      "outputs": [
        {
          "internalType": "int256",
          "name": "",
          "type": "int256"
        }
      ],
      "stateMutability": "nonpayable",
      "type": "function"
    },
    {
      "inputs": [
        {
          "internalType": "bytes4",
          "name": "interfaceId",
          "type": "bytes4"
        }
      ],
      "name": "supportsInterface",
      "outputs": [
        {
          "internalType": "bool",
          "name": "",
          "type": "bool"
        }
      ],
      "stateMutability": "view",
      "type": "function"
    },
    {
      "inputs": [],
      "name": "symbol",
      "outputs": [
        {
          "internalType": "string",
          "name": "",
          "type": "string"
        }
      ],
      "stateMutability": "view",
      "type": "function"
    },
    {
      "inputs": [
        {
          "internalType": "uint256",
          "name": "id",
          "type": "uint256"
        }
      ],
      "name": "sync",
      "outputs": [
        {
          "internalType": "int256",
          "name": "",
          "type": "int256"
        }
      ],
      "stateMutability": "nonpayable",
      "type": "function"
    },
    {
      "inputs": [],
      "name": "syncedBlock",
      "outputs": [
        {
          "internalType": "uint256",
          "name": "",
          "type": "uint256"
        }
      ],
      "stateMutability": "view",
      "type": "function"
    },
    {
      "inputs": [],
      "name": "timeOfSync",
      "outputs": [
        {
          "internalType": "uint256",
          "name": "",
          "type": "uint256"
        }
      ],
      "stateMutability": "view",
      "type": "function"
    },
    {
      "inputs": [
        {
          "internalType": "uint256",
          "name": "index",
          "type": "uint256"
        }
      ],
      "name": "tokenByIndex",
      "outputs": [
        {
          "internalType": "uint256",
          "name": "",
          "type": "uint256"
        }
      ],
      "stateMutability": "view",
      "type": "function"
    },
    {
      "inputs": [
        {
          "internalType": "address",
          "name": "owner",
          "type": "address"
        },
        {
          "internalType": "uint256",
          "name": "index",
          "type": "uint256"
        }
      ],
      "name": "tokenOfOwnerByIndex",
      "outputs": [
        {
          "internalType": "uint256",
          "name": "",
          "type": "uint256"
        }
      ],
      "stateMutability": "view",
      "type": "function"
    },
    {
      "inputs": [
        {
          "internalType": "uint256",
          "name": "tokenId",
          "type": "uint256"
        }
      ],
      "name": "tokenURI",
      "outputs": [
        {
          "internalType": "string",
          "name": "",
          "type": "string"
        }
      ],
      "stateMutability": "view",
      "type": "function"
    },
    {
      "inputs": [],
      "name": "totalDeposit",
      "outputs": [
        {
          "internalType": "int256",
          "name": "",
          "type": "int256"
        }
      ],
      "stateMutability": "view",
      "type": "function"
    },
    {
      "inputs": [],
      "name": "totalSupply",
      "outputs": [
        {
          "internalType": "uint256",
          "name": "",
          "type": "uint256"
        }
      ],
      "stateMutability": "view",
      "type": "function"
    },
    {
      "inputs": [],
      "name": "totalXp",
      "outputs": [
        {
          "internalType": "uint256",
          "name": "",
          "type": "uint256"
        }
      ],
      "stateMutability": "view",
      "type": "function"
    },
    {
      "inputs": [
        {
          "internalType": "address",
          "name": "from",
          "type": "address"
        },
        {
          "internalType": "address",
          "name": "to",
          "type": "address"
        },
        {
          "internalType": "uint256",
          "name": "tokenId",
          "type": "uint256"
        }
      ],
      "name": "transferFrom",
      "outputs": [],
      "stateMutability": "nonpayable",
      "type": "function"
    },
    {
      "inputs": [
        {
          "internalType": "uint256",
          "name": "from",
          "type": "uint256"
        },
        {
          "internalType": "address",
          "name": "to",
          "type": "address"
        },
        {
          "internalType": "uint256",
          "name": "amount",
          "type": "uint256"
        }
      ],
      "name": "withdraw",
      "outputs": [
        {
          "internalType": "uint256",
          "name": "",
          "type": "uint256"
        }
      ],
      "stateMutability": "nonpayable",
      "type": "function"
    }
  ],
  "bytecode": {
    "object": "0x60e06040526001600a553480156200001657600080fd5b506040516200571f3803806200571f8339810160408190526200003991620009c7565b60405180604001604052806008815260200167111e58590813919560c21b815250604051806040016040528060048152602001631913919560e21b815250816000908162000088919062000b6d565b50600162000097828262000b6d565b5050601880546001600160a01b03808a166001600160a01b031992831617909255601980549289169290911691909117905550608084905260a083905260c0829052620000e362000192565b600b5560005b81518110156200018557600080620001238484815181106200010f576200010f62000c39565b60200260200101516200020d60201b60201c565b6000918252601460209081526040928390208251815590820151600182015591810151600283015560608101516003830155608001516004909101805460ff1916911515919091179055508190506200017c8162000c65565b915050620000e9565b5050505050505062000d36565b60195460408051633fabe5a360e21b815290516000926001600160a01b03169163feaf968c9160048083019260a09291908290030181865afa158015620001dd573d6000803e3d6000fd5b505050506040513d601f19601f8201168201806040525081019062000203919062000c99565b5091949350505050565b6000620002446040518060a00160405280600081526020016000815260200160008152602001600081526020016000151581525090565b60006200025060085490565b905060805181106200027557604051632cdb04a160e21b815260040160405180910390fd5b62000281848262000305565b60405181906001600160a01b038616907f30385c845b448a36257a6a1716e6ad2e1bc2cbe333cde1e69fe849ad6511adfe90600090a3620002ec6040518060a00160405280600081526020016000815260200160008152602001600081526020016000151581525090565b620002fb82826103e8620004aa565b9094909350915050565b6001600160a01b038216620003615760405162461bcd60e51b815260206004820181905260248201527f4552433732313a206d696e7420746f20746865207a65726f206164647265737360448201526064015b60405180910390fd5b6000818152600260205260409020546001600160a01b031615620003c85760405162461bcd60e51b815260206004820152601c60248201527f4552433732313a20746f6b656e20616c7265616479206d696e74656400000000604482015260640162000358565b620003d860008383600162000528565b6000818152600260205260409020546001600160a01b0316156200043f5760405162461bcd60e51b815260206004820152601c60248201527f4552433732313a20746f6b656e20616c7265616479206d696e74656400000000604482015260640162000358565b6001600160a01b038216600081815260036020908152604080832080546001019055848352600290915280822080546001600160a01b0319168417905551839291907fddf252ad1be2c89b69c2b068fc378daa952ba7f163c4a11628f55a4df523b3ef908290a45050565b8082600001818151620004be919062000cee565b90525060135482511115620004d35781516013555b8060126000828254620004e7919062000cee565b9091555050815160405190815283907ff2e0bfcc8ce3e6fe5fb06c3beb8c1251b90c08997c09b4ae25d9a993790558b99060200160405180910390a2505050565b62000541848484846200056160201b62002ba21760201c565b506000908152601460205260409020436003909101555050565b50505050565b6200057a84848484620006c560201b62002ce21760201c565b6001811115620005f35760405162461bcd60e51b815260206004820152603560248201527f455243373231456e756d657261626c653a20636f6e736563757469766520747260448201527f616e7366657273206e6f7420737570706f727465640000000000000000000000606482015260840162000358565b816001600160a01b03851662000652576200064c81600880546000838152600960205260408120829055600182018355919091527ff3f7a9fe364faab93b216da50a3214154f22a0a2b415b23a84c8169e8b636ee30155565b62000678565b836001600160a01b0316856001600160a01b031614620006785762000678858262000754565b6001600160a01b0384166200069857620006928162000801565b620006be565b846001600160a01b0316846001600160a01b031614620006be57620006be8482620008bb565b5050505050565b60018111156200055b576001600160a01b038416156200070f576001600160a01b038416600090815260036020526040812080548392906200070990849062000d0a565b90915550505b6001600160a01b038316156200055b576001600160a01b038316600090815260036020526040812080548392906200074990849062000cee565b909155505050505050565b600060016200076e846200090c60201b6200183c1760201c565b6200077a919062000d0a565b600083815260076020526040902054909150808214620007ce576001600160a01b03841660009081526006602090815260408083208584528252808320548484528184208190558352600790915290208190555b5060009182526007602090815260408084208490556001600160a01b039094168352600681528383209183525290812055565b600854600090620008159060019062000d0a565b6000838152600960205260408120546008805493945090928490811062000840576200084062000c39565b90600052602060002001549050806008838154811062000864576200086462000c39565b60009182526020808320909101929092558281526009909152604080822084905585825281205560088054806200089f576200089f62000d20565b6001900381819060005260206000200160009055905550505050565b6000620008d3836200090c60201b6200183c1760201c565b6001600160a01b039093166000908152600660209081526040808320868452825280832085905593825260079052919091209190915550565b60006001600160a01b038216620009785760405162461bcd60e51b815260206004820152602960248201527f4552433732313a2061646472657373207a65726f206973206e6f7420612076616044820152683634b21037bbb732b960b91b606482015260840162000358565b506001600160a01b031660009081526003602052604090205490565b80516001600160a01b0381168114620009ac57600080fd5b919050565b634e487b7160e01b600052604160045260246000fd5b60008060008060008060c08789031215620009e157600080fd5b620009ec8762000994565b95506020620009fd81890162000994565b604089015160608a015160808b015160a08c0151939950919750955093506001600160401b038082111562000a3157600080fd5b818a0191508a601f83011262000a4657600080fd5b81518181111562000a5b5762000a5b620009b1565b8060051b604051601f19603f8301168101818110858211171562000a835762000a83620009b1565b60405291825284820192508381018501918d83111562000aa257600080fd5b938501935b8285101562000acb5762000abb8562000994565b8452938501939285019262000aa7565b8096505050505050509295509295509295565b600181811c9082168062000af357607f821691505b60208210810362000b1457634e487b7160e01b600052602260045260246000fd5b50919050565b601f82111562000b6857600081815260208120601f850160051c8101602086101562000b435750805b601f850160051c820191505b8181101562000b645782815560010162000b4f565b5050505b505050565b81516001600160401b0381111562000b895762000b89620009b1565b62000ba18162000b9a845462000ade565b8462000b1a565b602080601f83116001811462000bd9576000841562000bc05750858301515b600019600386901b1c1916600185901b17855562000b64565b600085815260208120601f198616915b8281101562000c0a5788860151825594840194600190910190840162000be9565b508582101562000c295787850151600019600388901b60f8161c191681555b5050505050600190811b01905550565b634e487b7160e01b600052603260045260246000fd5b634e487b7160e01b600052601160045260246000fd5b60006001820162000c7a5762000c7a62000c4f565b5060010190565b80516001600160501b0381168114620009ac57600080fd5b600080600080600060a0868803121562000cb257600080fd5b62000cbd8662000c81565b945060208601519350604086015192506060860151915062000ce26080870162000c81565b90509295509295909350565b8082018082111562000d045762000d0462000c4f565b92915050565b8181038181111562000d045762000d0462000c4f565b634e487b7160e01b600052603160045260246000fd5b60805160a05160c0516149a462000d7b60003960008181610648015261178801526000818161046e0152611cde01526000818161056c015261348301526149a46000f3fe60806040526004361061036b5760003560e01c80636220347e116101c6578063bc1ac5bb116100f7578063e2bbb15811610095578063e985e9c51161006f578063e985e9c514610a82578063f6153ccd14610acb578063febb16df14610ae1578063ff186b2e14610af757600080fd5b8063e2bbb15814610a2c578063e63697c814610a4c578063e644669114610a6c57600080fd5b8063d4912507116100d1578063d4912507146109c0578063d8780161146109d6578063de1eecb3146109f6578063decb84dc14610a1657600080fd5b8063bc1ac5bb14610970578063c784cbe614610986578063c87b56dd146109a057600080fd5b806395d89b4111610164578063add95a511161013e578063add95a51146108f0578063b1357bf914610910578063b260c42a14610930578063b88d4fde1461095057600080fd5b806395d89b41146108a1578063a22cb465146108b6578063aadfdcc2146108d657600080fd5b806370a08231116101a057806370a0823114610821578063823abfd914610841578063916b9bef14610861578063959526191461088157600080fd5b80636220347e146107c15780636352211e146107ee5780636a6278421461080e57600080fd5b806335f2faf0116102a05780634b2ec8ee1161023e57806353556559116102185780635355655914610752578063551e123b146107655780635982dc29146107925780635fae8b3d146107ae57600080fd5b80634b2ec8ee1461053f5780634ddc77c8146107175780634f6ccce71461073257600080fd5b8063397b80241161027a578063397b802414610636578063413217b71461066a57806342842e0e14610680578063483afb2d146106a057600080fd5b806335f2faf01461058e57806336416455146105aa578063379607f51461061657600080fd5b806318160ddd1161030d578063265f63a1116102e7578063265f63a1146105095780632f745c591461051f5780633295787f1461053f57806332cb6b0c1461055a57600080fd5b806318160ddd146104b45780631849c73a146104c957806323b872dd146104e957600080fd5b8063081812fc11610349578063081812fc14610402578063095ea7b31461043a5780630ba4ae301461045c57806310d4f96d1461049e57600080fd5b8063019e242e1461037057806301ffc9a7146103c057806306fdde03146103e0575b600080fd5b34801561037c57600080fd5b506103ab61038b366004613e80565b601660209081526000928352604080842090915290825290205460ff1681565b60405190151581526020015b60405180910390f35b3480156103cc57600080fd5b506103ab6103db366004613eb8565b610b0d565b3480156103ec57600080fd5b506103f5610b38565b6040516103b79190613f25565b34801561040e57600080fd5b5061042261041d366004613f38565b610bca565b6040516001600160a01b0390911681526020016103b7565b34801561044657600080fd5b5061045a610455366004613f6d565b610bf1565b005b34801561046857600080fd5b506104907f000000000000000000000000000000000000000000000000000000000000000081565b6040519081526020016103b7565b3480156104aa57600080fd5b5061049060125481565b3480156104c057600080fd5b50600854610490565b3480156104d557600080fd5b5061045a6104e4366004613f97565b610d0b565b3480156104f557600080fd5b5061045a610504366004613fc3565b610f2b565b34801561051557600080fd5b50610490600c5481565b34801561052b57600080fd5b5061049061053a366004613f6d565b610f5c565b34801561054b57600080fd5b5061049066016bcc41e9000081565b34801561056657600080fd5b506104907f000000000000000000000000000000000000000000000000000000000000000081565b34801561059a57600080fd5b506104906714d1120d7b16000081565b3480156105b657600080fd5b506105f56105c5366004613fff565b601560209081526000928352604080842090915290825290205460ff81169061010090046001600160f81b031682565b6040805160ff90931683526001600160f81b039091166020830152016103b7565b34801561062257600080fd5b50610490610631366004613f38565b610ff2565b34801561064257600080fd5b506104907f000000000000000000000000000000000000000000000000000000000000000081565b34801561067657600080fd5b5061049060135481565b34801561068c57600080fd5b5061045a61069b366004613fc3565b61120b565b3480156106ac57600080fd5b506106ed6106bb366004613f38565b601460205260009081526040902080546001820154600283015460038401546004909401549293919290919060ff1685565b6040805195865260208601949094529284019190915260608301521515608082015260a0016103b7565b34801561072357600080fd5b50610490660110d9316ec00081565b34801561073e57600080fd5b5061049061074d366004613f38565b611226565b610490610760366004613f38565b6112b9565b34801561077157600080fd5b50610785610780366004614070565b611426565b6040516103b791906140ca565b34801561079e57600080fd5b50610490670853a0d2313c000081565b61045a6107bc366004613fff565b6115b6565b3480156107cd57600080fd5b506104906107dc366004613f38565b60176020526000908152604090205481565b3480156107fa57600080fd5b50610422610809366004613f38565b611718565b61049061081c366004614110565b611778565b34801561082d57600080fd5b5061049061083c366004614110565b61183c565b34801561084d57600080fd5b506103ab61085c36600461413a565b6118c2565b34801561086d57600080fd5b5061045a61087c366004613f38565b611979565b34801561088d57600080fd5b5061045a61089c366004614176565b611a9b565b3480156108ad57600080fd5b506103f5611bf2565b3480156108c257600080fd5b5061045a6108d13660046141c2565b611c01565b3480156108e257600080fd5b5061049065b5e620f4800081565b3480156108fc57600080fd5b50601854610422906001600160a01b031681565b34801561091c57600080fd5b5061049061092b366004613f38565b611c10565b34801561093c57600080fd5b5061045a61094b366004613f38565b611ea4565b34801561095c57600080fd5b5061045a61096b36600461426e565b611f61565b34801561097c57600080fd5b50610490600e5481565b34801561099257600080fd5b50610490655af3107a400081565b3480156109ac57600080fd5b506103f56109bb366004613f38565b611f99565b3480156109cc57600080fd5b50610490600f5481565b3480156109e257600080fd5b506104906109f136600461432e565b61200c565b348015610a0257600080fd5b50610490610a11366004613e80565b612234565b348015610a2257600080fd5b50610490600d5481565b348015610a3857600080fd5b5061045a610a47366004613e80565b6125ca565b348015610a5857600080fd5b50610490610a6736600461432e565b6127ff565b348015610a7857600080fd5b5061049060105481565b348015610a8e57600080fd5b506103ab610a9d366004614353565b6001600160a01b03918216600090815260056020908152604080832093909416825291909152205460ff1690565b348015610ad757600080fd5b5061049060115481565b348015610aed57600080fd5b506104906103e881565b348015610b0357600080fd5b50610490600b5481565b60006001600160e01b0319821663780e9d6360e01b1480610b325750610b3282612d6a565b92915050565b606060008054610b479061437d565b80601f0160208091040260200160405190810160405280929190818152602001828054610b739061437d565b8015610bc05780601f10610b9557610100808354040283529160200191610bc0565b820191906000526020600020905b815481529060010190602001808311610ba357829003601f168201915b5050505050905090565b6000610bd582612dba565b506000908152600460205260409020546001600160a01b031690565b6000610bfc82611718565b9050806001600160a01b0316836001600160a01b031603610c6e5760405162461bcd60e51b815260206004820152602160248201527f4552433732313a20617070726f76616c20746f2063757272656e74206f776e656044820152603960f91b60648201526084015b60405180910390fd5b336001600160a01b0382161480610c8a5750610c8a8133610a9d565b610cfc5760405162461bcd60e51b815260206004820152603d60248201527f4552433732313a20617070726f76652063616c6c6572206973206e6f7420746f60448201527f6b656e206f776e6572206f7220617070726f76656420666f7220616c6c0000006064820152608401610c65565b610d068383612e1c565b505050565b826004610d198233836118c2565b610d3a57818160405163acb8d02d60e01b8152600401610c659291906143e9565b60008313610d4757600080fd5b6000601460008781526020019081526020016000206040518060a0016040529081600082015481526020016001820154815260200160028201548152602001600382015481526020016004820160009054906101000a900460ff16151515158152505090506000601460008781526020019081526020016000206040518060a0016040529081600082015481526020016001820154815260200160028201548152602001600382015481526020016004820160009054906101000a900460ff16151515158152505090508160200151851315610e3e578160200151604051631be6b37360e21b8152600401610c6591815260200190565b610e518783610e4c88614413565b612e8a565b610e5c868287612e8a565b60008781526014602090815260408083208551815585830151600180830191909155868301516002808401919091556060808901516003808601919091556080808b01516004968701805491151560ff199283161790558f8a52988790208a5181558a89015195810195909555898701519385019390935590880151908301558601519101805491151591909416179092559051868152879189917fecf7a2a9b87e864721b005a74148c7e41af15fa580f04024f55a5902b32e556e910160405180910390a350505050505050565b610f353382612ef8565b610f515760405162461bcd60e51b8152600401610c659061442f565b610d06838383612f76565b6000610f678361183c565b8210610fc95760405162461bcd60e51b815260206004820152602b60248201527f455243373231456e756d657261626c653a206f776e657220696e646578206f7560448201526a74206f6620626f756e647360a81b6064820152608401610c65565b506001600160a01b03919091166000908152600660209081526040808320938352929052205490565b60008160076110028233836118c2565b61102357818160405163acb8d02d60e01b8152600401610c659291906143e9565b600084815260146020526040812060040154859160ff9091161515900361106057604051632080e3d360e01b815260048101829052602401610c65565b6000858152601660209081526040808320600f54845290915290205460ff16156110ab57600f54604051636bd4745f60e01b8152610c65918791600401918252602082015260400190565b6000858152601660209081526040808320600f5484528252808320805460ff1916600190811790915588845260148352818420825160a0810184528154815291810154938201939093526002830154918101919091526003820154606082015260049091015460ff1615156080820152908061112c655af3107a40006130e7565b90506000600c54131561114c57611145600c5484613110565b915061116d565b600061115a600c5485613196565b9093509050611169818361447c565b9150505b611178888484612e8a565b61118388848361337b565b600088815260146020908152604091829020855181558582015160018201558583015160028201556060860151600382015560808601516004909101805460ff1916911515919091179055905183815289917f80d2137c01c20957d2640ac104067c27bdfb6f6405d354a50e4e0663dbfd3406910160405180910390a2509695505050505050565b610d0683838360405180602001604052806000815250611f61565b600061123160085490565b82106112945760405162461bcd60e51b815260206004820152602c60248201527f455243373231456e756d657261626c653a20676c6f62616c20696e646578206f60448201526b7574206f6620626f756e647360a01b6064820152608401610c65565b600882815481106112a7576112a761448f565b90600052602060002001549050919050565b60008160026112c98233836118c2565b6112ea57818160405163acb8d02d60e01b8152600401610c659291906143e9565b600084815260146020526040812060040154859160ff9091161515900361132757604051632080e3d360e01b815260048101829052602401610c65565b6000858152601760205260408120439055611341346133ec565b600087815260146020908152604091829020825160a081018452815481526001820154928101929092526002810154928201929092526003820154606082015260049091015460ff161515608082015290915061139f878284612e8a565b600087815260146020908152604091829020835181558382015160018201558383015160028201556060840151600382015560808401516004909101805460ff1916911515919091179055905183815288917ff99ef896dbec5c9f8ed65fcd703b977e36f533d2dbe0f54b055724102c66935b910160405180910390a25095945050505050565b60608167ffffffffffffffff811115611441576114416141fe565b60405190808252806020026020018201604052801561146a578160200160208202803683370190505b509050836001600160a01b031661148086611718565b6001600160a01b0316036114d55760005b828110156114cf5760018282815181106114ad576114ad61448f565b91151560209283029190910190910152806114c7816144a5565b915050611491565b506115ae565b60008581526015602090815260408083206001600160a01b0388168452825280832081518083018352905460ff8116825261010090046001600160f81b0316818401819052898552601490935292206003015410156115ac5760005b838110156115aa5761156e85858381811061154e5761154e61448f565b905060200201602081019061156391906144be565b835160ff1690613411565b156115985760018382815181106115875761158761448f565b911515602092830291909101909101525b806115a2816144a5565b915050611531565b505b505b949350505050565b6000828152601460209081526040808320815160a081018352815481526001820154938101849052600282015492810192909252600381015460608301526004015460ff161515608082015291811261162257604051636ef5bcdd60e11b815260040160405180910390fd5b600061162d346133ec565b905061163882614413565b81121561165857604051632b7786bd60e21b815260040160405180910390fd5b611663858483612e8a565b61167d858461167866016bcc41e900006130e7565b61337b565b600085815260146020908152604091829020855181559085015160018201559084015160028201556060840151600382015560808401516004909101805460ff19169115159190911790556116db6116d486611718565b8587612f76565b60405185906001600160a01b038616907fa5ee7a2b0254fce91deed604506790ed7fa072d0b14cba4859c3bc8955b9caac90600090a35050505050565b6000818152600260205260408120546001600160a01b031680610b325760405162461bcd60e51b8152602060048201526018602482015277115490cdcc8c4e881a5b9d985b1a59081d1bdad95b88125160421b6044820152606401610c65565b600080611784346133ec565b90507f00000000000000000000000000000000000000000000000000000000000000008112156117c757604051632b7786bd60e21b815260040160405180910390fd5b6000806117d38561343e565b915091506117e2828285612e8a565b6001608082018181526000848152601460209081526040918290208551815590850151938101939093558301516002830155606090920151600382015590516004909101805460ff19169115159190911790559392505050565b60006001600160a01b0382166118a65760405162461bcd60e51b815260206004820152602960248201527f4552433732313a2061646472657373207a65726f206973206e6f7420612076616044820152683634b21037bbb732b960b91b6064820152608401610c65565b506001600160a01b031660009081526003602052604090205490565b6000826001600160a01b03166118d785611718565b6001600160a01b0316036118ed57506001611972565b60008481526015602090815260408083206001600160a01b038716845282529182902082518084019093525460ff81168084526101009091046001600160f81b0316918301919091526119409084613411565b801561196e575080602001516001600160f81b03166014600087815260200190815260200160002060030154105b9150505b9392505050565b8060016119878233836118c2565b6119a857818160405163acb8d02d60e01b8152600401610c659291906143e9565b600083815260146020526040812060040154849160ff909116151590036119e557604051632080e3d360e01b815260048101829052602401610c65565b60008481526014602052604090206002015415611a18576040516339d0e29960e01b815260048101859052602401610c65565b60008481526014602052604081206001015413611a47576040516207c73960e71b815260040160405180910390fd5b6000848152601460209081526040808320600401805460ff191690555191825285917f50737735a7b77dd799bc4f8c7ad312507df2b6d0f97c49c755732561b0c06ee491015b60405180910390a250505050565b8233611aa682611718565b6001600160a01b031614611ad05760405163d64dfb0160e01b815260048101829052602401610c65565b4360005b83811015611bb0576000858583818110611af057611af061448f565b9050602002810190611b0291906144d9565b611b0b906144f9565b9050806020015151600003611b4357600087815260156020908152604080832084516001600160a01b03168452909152812055611ba7565b6040518060400160405280611b5b836020015161354c565b60ff90811682526001600160f81b0380871660209384015260008b815260158452604080822087516001600160a01b031683528552902084519490930151166101000292169190911790555b50600101611ad4565b50847f5015559e4f379aa0dd2effee572c916b09bb68ed41ad9ab127c8066f052e16438585604051611be39291906145c1565b60405180910390a25050505050565b606060018054610b479061437d565b611c0c33838361359a565b5050565b600081815260146020526040812060040154829060ff1615158203611c4b57604051632080e3d360e01b815260048101829052602401610c65565b601854604080516318160ddd60e01b815290516000926001600160a01b0316916318160ddd9160048083019260209291908290030181865afa158015611c95573d6000803e3d6000fd5b505050506040513d601f19601f82011682018060405250810190611cb991906146c6565b905080600003611cdc57604051632a8ef6b160e11b815260040160405180910390fd5b7f0000000000000000000000000000000000000000000000000000000000000000600e54611d0a919061447c565b421015611d2a576040516334490f5560e11b815260040160405180910390fd5b6000611d34613668565b9050600b548103611d5857604051639f5333e960e01b815260040160405180910390fd5b6000611d73600b5483611d6b91906146df565b600b546136e0565b9050611d87611d8184613704565b82613772565b600c819055600d5542600e55600b829055600f8054601055439055600086815260146020908152604091829020825160a081018452815481526001820154928101929092526002810154928201929092526003820154606082015260049091015460ff1615156080820152611e198782611678611e0386613797565b611e149066016bcc41e9000061447c565b6130e7565b600087815260146020908152604091829020835181558382015160018201558383015160028201556060840151600382015560808401516004909101805460ff191691151591909117905590518881527fff14d8520387b9b85d2a017dc41ae15db04a22d4c67deac04eb45048631ffa86910160405180910390a1600c549550505050505b50919050565b806000611eb28233836118c2565b611ed357818160405163acb8d02d60e01b8152600401610c659291906143e9565b600083815260146020526040902060040154839060ff161515600103611f0f576040516307e1313160e11b815260048101829052602401610c65565b600084815260146020908152604091829020600401805460ff19166001908117909155915191825285917f50737735a7b77dd799bc4f8c7ad312507df2b6d0f97c49c755732561b0c06ee49101611a8d565b611f6b3383612ef8565b611f875760405162461bcd60e51b8152600401610c659061442f565b611f93848484846137aa565b50505050565b6060611fa482612dba565b6000611fbb60408051602081019091526000815290565b90506000815111611fdb5760405180602001604052806000815250611972565b80611fe5846137dd565b604051602001611ff6929190614706565b6040516020818303038152906040529392505050565b6000600a5460011461204d5760405162461bcd60e51b815260206004820152600a6024820152695245454e5452414e435960b01b6044820152606401610c65565b6002600a558360066120608233836118c2565b61208157818160405163acb8d02d60e01b8152600401610c659291906143e9565b600086815260146020526040812060040154879160ff909116151590036120be57604051632080e3d360e01b815260048101829052602401610c65565b601854604051632770a7eb60e21b8152336004820152602481018790526001600160a01b0390911690639dc29fac90604401600060405180830381600087803b15801561210a57600080fd5b505af115801561211e573d6000803e3d6000fd5b5050506000888152601460205260409020600281015490915086111561215a5760405163056c862560e41b815260048101879052602401610c65565b8581600201600082825461216e9190614735565b9091555050600281015460405190815288907f9c8b9d3dc3f8c4d403953f1d33bc5611ca3e4bce07a619064bf346ab7861d8979060200160405180910390a260006121bf6121ba613668565b613870565b6121cd886305f5e100614748565b6121d79190614775565b90506121ec6001600160a01b038916826138c2565b604051878152899033907ff3a670cd3af7d64b488926880889d08a8585a138ff455227af6737339a1ec2629060200160405180910390a36001600a5598975050505050505050565b600082815260146020526040812060040154839060ff161515820361226f57604051632080e3d360e01b815260048101829052602401610c65565b600083815260146020526040812060040154849160ff909116151590036122ac57604051632080e3d360e01b815260048101829052602401610c65565b8385036122cc576040516335a787ff60e21b815260040160405180910390fd5b6000858152601660209081526040808320601054845290915290205460ff1615612309576040516375798c0d60e01b815260040160405180910390fd5b6001601660008781526020019081526020016000206000601054815260200190815260200160002060006101000a81548160ff0219169083151502179055506000601460008781526020019081526020016000206040518060a0016040529081600082015481526020016001820154815260200160028201548152602001600382015481526020016004820160009054906101000a900460ff16151515158152505090506000601460008781526020019081526020016000206040518060a0016040529081600082015481526020016001820154815260200160028201548152602001600382015481526020016004820160009054906101000a900460ff1615151515815250509050600080600d5413156124845761242a600d5484613110565b90506124548884610e4c8461244f670853a0d2313c0000670de0b6b3a76400006146df565b613772565b61246b8783610e4c84670853a0d2313c0000613772565b61247f878361167865b5e620f480006130e7565b6124c4565b6000612492600d5485613196565b90925090506124a2898584612e8a565b6124ad89858361337b565b6124c28884611678660110d9316ec0006130e7565b505b82601460008a81526020019081526020016000206000820151816000015560208201518160010155604082015181600201556060820151816003015560808201518160040160006101000a81548160ff02191690831515021790555090505081601460008981526020019081526020016000206000820151816000015560208201518160010155604082015181600201556060820151816003015560808201518160040160006101000a81548160ff02191690831515021790555090505086887f0e7d191e2306ac0b4fbf5a2cb60c28ddb5a0507bd6dc06322d0d1ea0925eabd7836040516125b591815260200190565b60405180910390a3945050505b505092915050565b8160036125d88233836118c2565b6125f957818160405163acb8d02d60e01b8152600401610c659291906143e9565b600084815260146020526040812060040154859160ff9091161515900361263657604051632080e3d360e01b815260048101829052602401610c65565b600085815260176020526040908190204390556018549051632770a7eb60e21b8152336004820152602481018690526001600160a01b0390911690639dc29fac90604401600060405180830381600087803b15801561269457600080fd5b505af11580156126a8573d6000803e3d6000fd5b505050600086815260146020908152604091829020825160a081018452815481526001820154928101929092526002810154928201839052600381015460608301526004015460ff1615156080820152915085111561271d5760405163056c862560e41b815260048101869052602401610c65565b848160400181815161272f9190614735565b905250604081810151905190815286907f9c8b9d3dc3f8c4d403953f1d33bc5611ca3e4bce07a619064bf346ab7861d8979060200160405180910390a261277a8682610e4c88613704565b600086815260146020908152604091829020835181558382015160018201558383015160028201556060840151600382015560808401516004909101805460ff1916911515919091179055905186815287917f06da3309189fa49284f335d2c2bcb4cb0b8ad2a59ad92a9bdebeeb8f1ceba511910160405180910390a2505050505050565b600083600561280f8233836118c2565b61283057818160405163acb8d02d60e01b8152600401610c659291906143e9565b600086815260146020526040812060040154879160ff9091161515900361286d57604051632080e3d360e01b815260048101829052602401610c65565b60008781526017602052604090205443900361289c5760405163ba08e24560e01b815260040160405180910390fd5b600087815260146020908152604091829020825160a081018452815481526001820154928101839052600282015493810193909352600381015460608401526004015460ff16151560808301526128f287613704565b1315612919578060200151604051631be6b37360e21b8152600401610c6591815260200190565b60006129266121ba613668565b6129346305f5e10047614775565b61293e9190614748565b905060006129ce88601860009054906101000a90046001600160a01b03166001600160a01b03166318160ddd6040518163ffffffff1660e01b8152600401602060405180830381865afa158015612999573d6000803e3d6000fd5b505050506040513d601f19601f820116820180604052508101906129bd91906146c6565b6129c7919061447c565b8390613913565b90506714d1120d7b1600008110156129fc5760405163f51aaf6560e01b815260048101829052602401610c65565b6000612a0760085490565b612a119084614775565b90506000898560400151612a25919061447c565b905081811115612a4b57604051630dd16eb960e41b815260048101839052602401610c65565b612a628c86612a598d613704565b610e4c90614413565b6040858101829052518181528c907f9c8b9d3dc3f8c4d403953f1d33bc5611ca3e4bce07a619064bf346ab7861d8979060200160405180910390a260008c815260146020908152604091829020875181559087015160018201558682015160028201556060870151600382015560808701516004918201805460ff191691151591909117905560185491516340c10f1960e01b81526001600160a01b038e811692820192909252602481018d90529116906340c10f1990604401600060405180830381600087803b158015612b3657600080fd5b505af1158015612b4a573d6000803e3d6000fd5b505050508a6001600160a01b03168c7fcf7d23a3cbe4e8b36ff82fd1b05b1b17373dc7804b4ebbd6e2356716ef2023728c604051612b8a91815260200190565b60405180910390a350909a9950505050505050505050565b612bae84848484612ce2565b6001811115612c1d5760405162461bcd60e51b815260206004820152603560248201527f455243373231456e756d657261626c653a20636f6e7365637574697665207472604482015274185b9cd9995c9cc81b9bdd081cdd5c1c1bdc9d1959605a1b6064820152608401610c65565b816001600160a01b038516612c7957612c7481600880546000838152600960205260408120829055600182018355919091527ff3f7a9fe364faab93b216da50a3214154f22a0a2b415b23a84c8169e8b636ee30155565b612c9c565b836001600160a01b0316856001600160a01b031614612c9c57612c9c8582613928565b6001600160a01b038416612cb857612cb3816139c5565b612cdb565b846001600160a01b0316846001600160a01b031614612cdb57612cdb8482613a74565b5050505050565b6001811115611f93576001600160a01b03841615612d28576001600160a01b03841660009081526003602052604081208054839290612d22908490614735565b90915550505b6001600160a01b03831615611f93576001600160a01b03831660009081526003602052604081208054839290612d5f90849061447c565b909155505050505050565b60006001600160e01b031982166380ac58cd60e01b1480612d9b57506001600160e01b03198216635b5e139f60e01b145b80610b3257506301ffc9a760e01b6001600160e01b0319831614610b32565b6000818152600260205260409020546001600160a01b0316612e195760405162461bcd60e51b8152602060048201526018602482015277115490cdcc8c4e881a5b9d985b1a59081d1bdad95b88125160421b6044820152606401610c65565b50565b600081815260046020526040902080546001600160a01b0319166001600160a01b0384169081179091558190612e5182611718565b6001600160a01b03167f8c5be1e5ebec7d5bd14f71427d1e84f3dd0314c0f7b2291e5b200ac8c7c3b92560405160405180910390a45050565b8082602001818151612e9c9190614789565b90525060118054829190600090612eb4908490614789565b909155505060208083015160405190815284917f425be55cd58976813ab39c8ab1d72583611da983d06236e7cb644ac4e49f2d4a91015b60405180910390a2505050565b600080612f0483611718565b9050806001600160a01b0316846001600160a01b03161480612f4b57506001600160a01b0380821660009081526005602090815260408083209388168352929052205460ff165b806115ae5750836001600160a01b0316612f6484610bca565b6001600160a01b031614949350505050565b826001600160a01b0316612f8982611718565b6001600160a01b031614612faf5760405162461bcd60e51b8152600401610c65906147a9565b6001600160a01b0382166130115760405162461bcd60e51b8152602060048201526024808201527f4552433732313a207472616e7366657220746f20746865207a65726f206164646044820152637265737360e01b6064820152608401610c65565b61301e8383836001613ab8565b826001600160a01b031661303182611718565b6001600160a01b0316146130575760405162461bcd60e51b8152600401610c65906147a9565b600081815260046020908152604080832080546001600160a01b03199081169091556001600160a01b0387811680865260038552838620805460001901905590871680865283862080546001019055868652600290945282852080549092168417909155905184937fddf252ad1be2c89b69c2b068fc378daa952ba7f163c4a11628f55a4df523b3ef91a4505050565b6000662386f26fc1000061310683613100601154613870565b90613ade565b610b329190614775565b60008082602001511215613136576040516207c73960e71b815260040160405180910390fd5b60125482516000916131489190613913565b9050600061315c84602001516011546136e0565b9050600060028261316c85613704565b6131769190614789565b61318091906147ee565b905061318c8682613772565b9695505050505050565b6000806000836020015112156131be576040516207c73960e71b815260040160405180910390fd5b60135483516000916131d09190613913565b60125485519192506000916131e491613913565b905060006131f28383613913565b90506000613201601154613870565b601860009054906101000a90046001600160a01b03166001600160a01b03166318160ddd6040518163ffffffff1660e01b8152600401602060405180830381865afa158015613254573d6000803e3d6000fd5b505050506040513d601f19601f8201168201806040525081019061327891906146c6565b613282919061447c565b905060006132ac826132978a60200151613870565b8a604001516132a6919061447c565b90613913565b905060006132c286670de0b6b3a7640000614735565b905060006132fe6132f9866132d660085490565b6132e890670de0b6b3a7640000614748565b6132f29190614735565b8490613913565b613704565b905060028161330c85613704565b6133169190614789565b61332091906147ee565b9050600061332e828d613772565b905066b1a2bc2ec500006000613350613347838c61447c565b6132a685613797565b905082613365670de0b6b3a764000083614775565b9b509b50505050505050505050505b9250929050565b808260000181815161338d919061447c565b905250601354825111156133a15781516013555b80601260008282546133b3919061447c565b9091555050815160405190815283907ff2e0bfcc8ce3e6fe5fb06c3beb8c1251b90c08997c09b4ae25d9a993790558b990602001612eeb565b60006133f6613668565b6134076132f96305f5e10085614775565b610b32919061481c565b600080826007811115613426576134266143b1565b600160ff9182161b9490941690931615159392505050565b60006134746040518060a00160405280600081526020016000815260200160008152602001600081526020016000151581525090565b600061347f60085490565b90507f000000000000000000000000000000000000000000000000000000000000000081106134c157604051632cdb04a160e21b815260040160405180910390fd5b6134cb8482613af3565b60405181906001600160a01b038616907f30385c845b448a36257a6a1716e6ad2e1bc2cbe333cde1e69fe849ad6511adfe90600090a36135356040518060a00160405280600081526020016000815260200160008152602001600081526020016000151581525090565b61354282826103e861337b565b9094909350915050565b6000805b8251811015611e9e5782818151811061356b5761356b61448f565b60200260200101516007811115613584576135846143b1565b600160ff9190911681901b929092179101613550565b816001600160a01b0316836001600160a01b0316036135fb5760405162461bcd60e51b815260206004820152601960248201527f4552433732313a20617070726f766520746f2063616c6c6572000000000000006044820152606401610c65565b6001600160a01b03838116600081815260056020908152604080832094871680845294825291829020805460ff191686151590811790915591519182527f17307eab39ab6107e8899845ad3d59bd9653f200f220920489ca2b5937696c31910160405180910390a3505050565b60195460408051633fabe5a360e21b815290516000926001600160a01b03169163feaf968c9160048083019260a09291908290030181865afa1580156136b2573d6000803e3d6000fd5b505050506040513d601f19601f820116820180604052508101906136d69190614866565b5091949350505050565b670de0b6b3a76400008281029081058314821515166136fe57600080fd5b05919050565b60006001600160ff1b0382111561376e5760405162461bcd60e51b815260206004820152602860248201527f53616665436173743a2076616c756520646f65736e27742066697420696e2061604482015267371034b73a191a9b60c11b6064820152608401610c65565b5090565b818102821583820583141761378657600080fd5b670de0b6b3a7640000900592915050565b60008082121561376e5781600003610b32565b6137b5848484612f76565b6137c184848484613c8c565b611f935760405162461bcd60e51b8152600401610c65906148b6565b606060006137ea83613d8a565b600101905060008167ffffffffffffffff81111561380a5761380a6141fe565b6040519080825280601f01601f191660200182016040528015613834576020820181803683370190505b5090508181016020015b600019016f181899199a1a9b1b9c1cb0b131b232b360811b600a86061a8153600a850494508461383e57509392505050565b60008082121561376e5760405162461bcd60e51b815260206004820181905260248201527f53616665436173743a2076616c7565206d75737420626520706f7369746976656044820152606401610c65565b600080600080600085875af1905080610d065760405162461bcd60e51b815260206004820152601360248201527211551217d514905394d1915497d19052531151606a1b6044820152606401610c65565b600061197283670de0b6b3a764000084613e62565b600060016139358461183c565b61393f9190614735565b600083815260076020526040902054909150808214613992576001600160a01b03841660009081526006602090815260408083208584528252808320548484528184208190558352600790915290208190555b5060009182526007602090815260408084208490556001600160a01b039094168352600681528383209183525290812055565b6008546000906139d790600190614735565b600083815260096020526040812054600880549394509092849081106139ff576139ff61448f565b906000526020600020015490508060088381548110613a2057613a2061448f565b6000918252602080832090910192909255828152600990915260408082208490558582528120556008805480613a5857613a58614908565b6001900381819060005260206000200160009055905550505050565b6000613a7f8361183c565b6001600160a01b039093166000908152600660209081526040808320868452825280832085905593825260079052919091209190915550565b613ac484848484612ba2565b506000908152601460205260409020436003909101555050565b60006119728383670de0b6b3a7640000613e62565b6001600160a01b038216613b495760405162461bcd60e51b815260206004820181905260248201527f4552433732313a206d696e7420746f20746865207a65726f20616464726573736044820152606401610c65565b6000818152600260205260409020546001600160a01b031615613bae5760405162461bcd60e51b815260206004820152601c60248201527f4552433732313a20746f6b656e20616c7265616479206d696e746564000000006044820152606401610c65565b613bbc600083836001613ab8565b6000818152600260205260409020546001600160a01b031615613c215760405162461bcd60e51b815260206004820152601c60248201527f4552433732313a20746f6b656e20616c7265616479206d696e746564000000006044820152606401610c65565b6001600160a01b038216600081815260036020908152604080832080546001019055848352600290915280822080546001600160a01b0319168417905551839291907fddf252ad1be2c89b69c2b068fc378daa952ba7f163c4a11628f55a4df523b3ef908290a45050565b60006001600160a01b0384163b15613d8257604051630a85bd0160e11b81526001600160a01b0385169063150b7a0290613cd090339089908890889060040161491e565b6020604051808303816000875af1925050508015613d0b575060408051601f3d908101601f19168201909252613d0891810190614951565b60015b613d68573d808015613d39576040519150601f19603f3d011682016040523d82523d6000602084013e613d3e565b606091505b508051600003613d605760405162461bcd60e51b8152600401610c65906148b6565b805181602001fd5b6001600160e01b031916630a85bd0160e11b1490506115ae565b5060016115ae565b60008072184f03e93ff9f4daa797ed6e38ed64bf6a1f0160401b8310613dc95772184f03e93ff9f4daa797ed6e38ed64bf6a1f0160401b830492506040015b6d04ee2d6d415b85acef81000000008310613df5576d04ee2d6d415b85acef8100000000830492506020015b662386f26fc100008310613e1357662386f26fc10000830492506010015b6305f5e1008310613e2b576305f5e100830492506008015b6127108310613e3f57612710830492506004015b60648310613e51576064830492506002015b600a8310610b325760010192915050565b6000826000190484118302158202613e7957600080fd5b5091020490565b60008060408385031215613e9357600080fd5b50508035926020909101359150565b6001600160e01b031981168114612e1957600080fd5b600060208284031215613eca57600080fd5b813561197281613ea2565b60005b83811015613ef0578181015183820152602001613ed8565b50506000910152565b60008151808452613f11816020860160208601613ed5565b601f01601f19169290920160200192915050565b6020815260006119726020830184613ef9565b600060208284031215613f4a57600080fd5b5035919050565b80356001600160a01b0381168114613f6857600080fd5b919050565b60008060408385031215613f8057600080fd5b613f8983613f51565b946020939093013593505050565b600080600060608486031215613fac57600080fd5b505081359360208301359350604090920135919050565b600080600060608486031215613fd857600080fd5b613fe184613f51565b9250613fef60208501613f51565b9150604084013590509250925092565b6000806040838503121561401257600080fd5b8235915061402260208401613f51565b90509250929050565b60008083601f84011261403d57600080fd5b50813567ffffffffffffffff81111561405557600080fd5b6020830191508360208260051b850101111561337457600080fd5b6000806000806060858703121561408657600080fd5b8435935061409660208601613f51565b9250604085013567ffffffffffffffff8111156140b257600080fd5b6140be8782880161402b565b95989497509550505050565b6020808252825182820181905260009190848201906040850190845b818110156141045783511515835292840192918401916001016140e6565b50909695505050505050565b60006020828403121561412257600080fd5b61197282613f51565b803560088110613f6857600080fd5b60008060006060848603121561414f57600080fd5b8335925061415f60208501613f51565b915061416d6040850161412b565b90509250925092565b60008060006040848603121561418b57600080fd5b83359250602084013567ffffffffffffffff8111156141a957600080fd5b6141b58682870161402b565b9497909650939450505050565b600080604083850312156141d557600080fd5b6141de83613f51565b9150602083013580151581146141f357600080fd5b809150509250929050565b634e487b7160e01b600052604160045260246000fd5b6040805190810167ffffffffffffffff81118282101715614237576142376141fe565b60405290565b604051601f8201601f1916810167ffffffffffffffff81118282101715614266576142666141fe565b604052919050565b6000806000806080858703121561428457600080fd5b61428d85613f51565b9350602061429c818701613f51565b935060408601359250606086013567ffffffffffffffff808211156142c057600080fd5b818801915088601f8301126142d457600080fd5b8135818111156142e6576142e66141fe565b6142f8601f8201601f1916850161423d565b9150808252898482850101111561430e57600080fd5b808484018584013760008482840101525080935050505092959194509250565b60008060006060848603121561434357600080fd5b83359250613fef60208501613f51565b6000806040838503121561436657600080fd5b61436f83613f51565b915061402260208401613f51565b600181811c9082168061439157607f821691505b602082108103611e9e57634e487b7160e01b600052602260045260246000fd5b634e487b7160e01b600052602160045260246000fd5b600881106143e557634e487b7160e01b600052602160045260246000fd5b9052565b8281526040810161197260208301846143c7565b634e487b7160e01b600052601160045260246000fd5b6000600160ff1b8201614428576144286143fd565b5060000390565b6020808252602d908201527f4552433732313a2063616c6c6572206973206e6f7420746f6b656e206f776e6560408201526c1c881bdc88185c1c1c9bdd9959609a1b606082015260800190565b80820180821115610b3257610b326143fd565b634e487b7160e01b600052603260045260246000fd5b6000600182016144b7576144b76143fd565b5060010190565b6000602082840312156144d057600080fd5b6119728261412b565b60008235603e198336030181126144ef57600080fd5b9190910192915050565b60006040823603121561450b57600080fd5b614513614214565b61451c83613f51565b815260208084013567ffffffffffffffff8082111561453a57600080fd5b9085019036601f83011261454d57600080fd5b81358181111561455f5761455f6141fe565b8060051b915061457084830161423d565b818152918301840191848101903684111561458a57600080fd5b938501935b838510156145af576145a08561412b565b8252938501939085019061458f565b94860194909452509295945050505050565b60208082528181018390526000906040808401600586811b8601830188865b898110156146b757888303603f190185528135368c9003603e1901811261460657600080fd5b8b018387016001600160a01b0361461c83613f51565b16855288820135601e1983360301811261463557600080fd5b90910188810191903567ffffffffffffffff81111561465357600080fd5b80871b360383131561466457600080fd5b858a0189905290819052600090606086015b818310156146a2576146908161468b8661412b565b6143c7565b928a0192600192909201918a01614676565b978a01979550505091870191506001016145e0565b50909998505050505050505050565b6000602082840312156146d857600080fd5b5051919050565b81810360008312801583831316838312821617156146ff576146ff6143fd565b5092915050565b60008351614718818460208801613ed5565b83519083019061472c818360208801613ed5565b01949350505050565b81810381811115610b3257610b326143fd565b8082028115828204841417610b3257610b326143fd565b634e487b7160e01b600052601260045260246000fd5b6000826147845761478461475f565b500490565b80820182811260008312801582168215821617156125c2576125c26143fd565b60208082526025908201527f4552433732313a207472616e736665722066726f6d20696e636f72726563742060408201526437bbb732b960d91b606082015260800190565b6000826147fd576147fd61475f565b600160ff1b821460001984141615614817576148176143fd565b500590565b80820260008212600160ff1b84141615614838576148386143fd565b8181058314821517610b3257610b326143fd565b805169ffffffffffffffffffff81168114613f6857600080fd5b600080600080600060a0868803121561487e57600080fd5b6148878661484c565b94506020860151935060408601519250606086015191506148aa6080870161484c565b90509295509295909350565b60208082526032908201527f4552433732313a207472616e7366657220746f206e6f6e20455243373231526560408201527131b2b4bb32b91034b6b83632b6b2b73a32b960711b606082015260800190565b634e487b7160e01b600052603160045260246000fd5b6001600160a01b038581168252841660208201526040810183905260806060820181905260009061318c90830184613ef9565b60006020828403121561496357600080fd5b815161197281613ea256fea2646970667358221220d528098675478dfd22fbf0c805413f4a038729f5bb68040aa4ffabb8d790205864736f6c63430008110033",
    "linkReferences": {}
  },
  "methodIdentifiers": {
    "MAX_SUPPLY()": "32cb6b0c",
    "MIN_COLLATERIZATION_RATIO()": "35f2faf0",
    "MIN_MINT_DYAD_DEPOSIT()": "397b8024",
    "MIN_TIME_BETWEEN_SYNC()": "0ba4ae30",
    "SNIPE_MINT_SHARE_REWARD()": "5982dc29",
    "XP_CLAIM_REWARD()": "c784cbe6",
    "XP_LIQUIDATION_REWARD()": "4b2ec8ee",
    "XP_MINT_REWARD()": "febb16df",
    "XP_SNIPE_BURN_REWARD()": "4ddc77c8",
    "XP_SNIPE_MINT_REWARD()": "aadfdcc2",
    "XP_SYNC_REWARD()": "3295787f",
    "activate(uint256)": "b260c42a",
    "approve(address,uint256)": "095ea7b3",
    "balanceOf(address)": "70a08231",
    "claim(uint256)": "379607f5",
    "deactivate(uint256)": "916b9bef",
    "deposit(uint256,uint256)": "e2bbb158",
    "dyad()": "add95a51",
    "dyadDelta()": "265f63a1",
    "ethPrice()": "ff186b2e",
    "exchange(uint256)": "53556559",
    "getApproved(uint256)": "081812fc",
    "grant(uint256,(address,uint8[])[])": "95952619",
    "hasPermission(uint256,address,uint8)": "823abfd9",
    "hasPermissions(uint256,address,uint8[])": "551e123b",
    "idToClaimed(uint256,uint256)": "019e242e",
    "idToLastDeposit(uint256)": "6220347e",
    "idToNft(uint256)": "483afb2d",
    "idToNftPermission(uint256,address)": "36416455",
    "isApprovedForAll(address,address)": "e985e9c5",
    "liquidate(uint256,address)": "5fae8b3d",
    "maxXp()": "413217b7",
    "mint(address)": "6a627842",
    "move(uint256,uint256,int256)": "1849c73a",
    "name()": "06fdde03",
    "ownerOf(uint256)": "6352211e",
    "prevDyadDelta()": "decb84dc",
    "prevSyncedBlock()": "e6446691",
    "redeem(uint256,address,uint256)": "d8780161",
    "safeTransferFrom(address,address,uint256)": "42842e0e",
    "safeTransferFrom(address,address,uint256,bytes)": "b88d4fde",
    "setApprovalForAll(address,bool)": "a22cb465",
    "snipe(uint256,uint256)": "de1eecb3",
    "supportsInterface(bytes4)": "01ffc9a7",
    "symbol()": "95d89b41",
    "sync(uint256)": "b1357bf9",
    "syncedBlock()": "d4912507",
    "timeOfSync()": "bc1ac5bb",
    "tokenByIndex(uint256)": "4f6ccce7",
    "tokenOfOwnerByIndex(address,uint256)": "2f745c59",
    "tokenURI(uint256)": "c87b56dd",
    "totalDeposit()": "f6153ccd",
    "totalSupply()": "18160ddd",
    "totalXp()": "10d4f96d",
    "transferFrom(address,address,uint256)": "23b872dd",
    "withdraw(uint256,address,uint256)": "e63697c8"
  },
  "id": 41
}